{
	"data": {
		"bytecode": {
			"linkReferences": {},
			"object": "60c06040523480156200001157600080fd5b5060405162004ebf38038062004ebf833981810160405281019062000037919062000111565b8173ffffffffffffffffffffffffffffffffffffffff1660808173ffffffffffffffffffffffffffffffffffffffff16815250508073ffffffffffffffffffffffffffffffffffffffff1660a08173ffffffffffffffffffffffffffffffffffffffff1681525050505062000158565b600080fd5b600073ffffffffffffffffffffffffffffffffffffffff82169050919050565b6000620000d982620000ac565b9050919050565b620000eb81620000cc565b8114620000f757600080fd5b50565b6000815190506200010b81620000e0565b92915050565b600080604083850312156200012b576200012a620000a7565b5b60006200013b85828601620000fa565b92505060206200014e85828601620000fa565b9150509250929050565b60805160a051614c306200028f60003960008181610114015281816105b5015281816105f3015281816106f5015281816109a601528181610d4d01528181610ff201528181611126015281816112b4015281816113500152818161172e01528181611ba601528181611bff01528181611c3301528181611cb401528181611e4f01528181611fd1015261206d0152600081816107bc015281816108c101528181610a9901528181610b1201528181610c1701528181610e1401528181610f0d015281816111df0152818161138f015281816115450152818161163e015281816117b4015281816119cc015281816119f501528181611a8901528181611bdd01528181611f08015281816120ac015281816129f101528181612a4501528181612ff9015281816130b001526131560152614c306000f3fe60806040526004361061010d5760003560e01c80638803dbee11610095578063c45a015511610064578063c45a01551461045f578063d06ca61f1461048a578063e8e33700146104c7578063f305d71914610506578063fb3bdb411461053857610170565b80638803dbee1461037c578063ad5c4648146103b9578063ad615dec146103e4578063baa2abde1461042157610170565b80631f00ca74116100dc5780631f00ca741461025857806338ed1739146102955780634a25d94a146102d25780637ff36ab51461030f57806385f8c2591461033f57610170565b806302751cec14610175578063054d50d4146101b357806315d3df97146101f057806318cbafe51461021b57610170565b36610170577f000000000000000000000000000000000000000000000000000000000000000073ffffffffffffffffffffffffffffffffffffffff163373ffffffffffffffffffffffffffffffffffffffff161461016e5761016d6134ac565b5b005b600080fd5b34801561018157600080fd5b5061019c60048036038101906101979190613583565b610568565b6040516101aa92919061361f565b60405180910390f35b3480156101bf57600080fd5b506101da60048036038101906101d59190613648565b610692565b6040516101e7919061369b565b60405180910390f35b3480156101fc57600080fd5b506102056106a8565b604051610212919061369b565b60405180910390f35b34801561022757600080fd5b50610242600480360381019061023d919061371b565b6106ad565b60405161024f9190613873565b60405180910390f35b34801561026457600080fd5b5061027f600480360381019061027a91906139e4565b610a92565b60405161028c9190613873565b60405180910390f35b3480156102a157600080fd5b506102bc60048036038101906102b7919061371b565b610ac7565b6040516102c99190613873565b60405180910390f35b3480156102de57600080fd5b506102f960048036038101906102f4919061371b565b610d05565b6040516103069190613873565b60405180910390f35b61032960048036038101906103249190613a40565b6110de565b6040516103369190613873565b60405180910390f35b34801561034b57600080fd5b5061036660048036038101906103619190613648565b6114e4565b604051610373919061369b565b60405180910390f35b34801561038857600080fd5b506103a3600480360381019061039e919061371b565b6114fa565b6040516103b09190613873565b60405180910390f35b3480156103c557600080fd5b506103ce61172c565b6040516103db9190613ad7565b60405180910390f35b3480156103f057600080fd5b5061040b60048036038101906104069190613648565b611750565b604051610418919061369b565b60405180910390f35b34801561042d57600080fd5b5061044860048036038101906104439190613af2565b611766565b60405161045692919061361f565b60405180910390f35b34801561046b57600080fd5b506104746119ca565b6040516104819190613ad7565b60405180910390f35b34801561049657600080fd5b506104b160048036038101906104ac91906139e4565b6119ee565b6040516104be9190613873565b60405180910390f35b3480156104d357600080fd5b506104ee60048036038101906104e99190613b94565b611a23565b6040516104fd93929190613c4a565b60405180910390f35b610520600480360381019061051b9190613583565b611b57565b60405161052f93929190613c4a565b60405180910390f35b610552600480360381019061054d9190613a40565b611e07565b60405161055f9190613873565b60405180910390f35b60008082428110156105af576040517f08c379a00000000000000000000000000000000000000000000000000000000081526004016105a690613cde565b60405180910390fd5b6105de897f00000000000000000000000000000000000000000000000000000000000000008a8a8a308a611766565b80935081945050506105f1898685612255565b7f000000000000000000000000000000000000000000000000000000000000000073ffffffffffffffffffffffffffffffffffffffff16632e1a7d4d836040518263ffffffff1660e01b815260040161064a919061369b565b600060405180830381600087803b15801561066457600080fd5b505af1158015610678573d6000803e3d6000fd5b50505050610686858361238b565b50965096945050505050565b600061069f84848461248b565b90509392505050565b600090565b606081428110156106f3576040517f08c379a00000000000000000000000000000000000000000000000000000000081526004016106ea90613cde565b60405180910390fd5b7f000000000000000000000000000000000000000000000000000000000000000073ffffffffffffffffffffffffffffffffffffffff16868660018989905061073c9190613d2d565b81811061074c5761074b613d61565b5b90506020020160208101906107619190613d90565b73ffffffffffffffffffffffffffffffffffffffff16146107b7576040517f08c379a00000000000000000000000000000000000000000000000000000000081526004016107ae90613e09565b60405180910390fd5b6108237f000000000000000000000000000000000000000000000000000000000000000089888880806020026020016040519081016040528093929190818152602001838360200280828437600081840152601f19601f82011690508083019250505050505050612591565b91508682600184516108359190613d2d565b8151811061084657610845613d61565b5b6020026020010151101561088f576040517f08c379a000000000000000000000000000000000000000000000000000000000815260040161088690613e9b565b60405180910390fd5b610958868660008181106108a6576108a5613d61565b5b90506020020160208101906108bb9190613d90565b336109377f00000000000000000000000000000000000000000000000000000000000000008a8a60008181106108f4576108f3613d61565b5b90506020020160208101906109099190613d90565b8b8b600181811061091d5761091c613d61565b5b90506020020160208101906109329190613d90565b61271c565b8560008151811061094b5761094a613d61565b5b60200260200101516127b6565b6109a482878780806020026020016040519081016040528093929190818152602001838360200280828437600081840152601f19601f82011690508083019250505050505050306128ef565b7f000000000000000000000000000000000000000000000000000000000000000073ffffffffffffffffffffffffffffffffffffffff16632e1a7d4d83600185516109ef9190613d2d565b81518110610a00576109ff613d61565b5b60200260200101516040518263ffffffff1660e01b8152600401610a24919061369b565b600060405180830381600087803b158015610a3e57600080fd5b505af1158015610a52573d6000803e3d6000fd5b50505050610a87848360018551610a699190613d2d565b81518110610a7a57610a79613d61565b5b602002602001015161238b565b509695505050505050565b6060610abf7f00000000000000000000000000000000000000000000000000000000000000008484612b48565b905092915050565b60608142811015610b0d576040517f08c379a0000000000000000000000000000000000000000000000000000000008152600401610b0490613cde565b60405180910390fd5b610b797f000000000000000000000000000000000000000000000000000000000000000089888880806020026020016040519081016040528093929190818152602001838360200280828437600081840152601f19601f82011690508083019250505050505050612591565b9150868260018451610b8b9190613d2d565b81518110610b9c57610b9b613d61565b5b60200260200101511015610be5576040517f08c379a0000000000000000000000000000000000000000000000000000000008152600401610bdc90613e9b565b60405180910390fd5b610cae86866000818110610bfc57610bfb613d61565b5b9050602002016020810190610c119190613d90565b33610c8d7f00000000000000000000000000000000000000000000000000000000000000008a8a6000818110610c4a57610c49613d61565b5b9050602002016020810190610c5f9190613d90565b8b8b6001818110610c7357610c72613d61565b5b9050602002016020810190610c889190613d90565b61271c565b85600081518110610ca157610ca0613d61565b5b60200260200101516127b6565b610cfa82878780806020026020016040519081016040528093929190818152602001838360200280828437600081840152601f19601f82011690508083019250505050505050866128ef565b509695505050505050565b60608142811015610d4b576040517f08c379a0000000000000000000000000000000000000000000000000000000008152600401610d4290613cde565b60405180910390fd5b7f000000000000000000000000000000000000000000000000000000000000000073ffffffffffffffffffffffffffffffffffffffff168686600189899050610d949190613d2d565b818110610da457610da3613d61565b5b9050602002016020810190610db99190613d90565b73ffffffffffffffffffffffffffffffffffffffff1614610e0f576040517f08c379a0000000000000000000000000000000000000000000000000000000008152600401610e0690613e09565b60405180910390fd5b610e7b7f000000000000000000000000000000000000000000000000000000000000000089888880806020026020016040519081016040528093929190818152602001838360200280828437600081840152601f19601f82011690508083019250505050505050612b48565b91508682600081518110610e9257610e91613d61565b5b60200260200101511115610edb576040517f08c379a0000000000000000000000000000000000000000000000000000000008152600401610ed290613f07565b60405180910390fd5b610fa486866000818110610ef257610ef1613d61565b5b9050602002016020810190610f079190613d90565b33610f837f00000000000000000000000000000000000000000000000000000000000000008a8a6000818110610f4057610f3f613d61565b5b9050602002016020810190610f559190613d90565b8b8b6001818110610f6957610f68613d61565b5b9050602002016020810190610f7e9190613d90565b61271c565b85600081518110610f9757610f96613d61565b5b60200260200101516127b6565b610ff082878780806020026020016040519081016040528093929190818152602001838360200280828437600081840152601f19601f82011690508083019250505050505050306128ef565b7f000000000000000000000000000000000000000000000000000000000000000073ffffffffffffffffffffffffffffffffffffffff16632e1a7d4d836001855161103b9190613d2d565b8151811061104c5761104b613d61565b5b60200260200101516040518263ffffffff1660e01b8152600401611070919061369b565b600060405180830381600087803b15801561108a57600080fd5b505af115801561109e573d6000803e3d6000fd5b505050506110d38483600185516110b59190613d2d565b815181106110c6576110c5613d61565b5b602002602001015161238b565b509695505050505050565b60608142811015611124576040517f08c379a000000000000000000000000000000000000000000000000000000000815260040161111b90613cde565b60405180910390fd5b7f000000000000000000000000000000000000000000000000000000000000000073ffffffffffffffffffffffffffffffffffffffff168686600081811061116f5761116e613d61565b5b90506020020160208101906111849190613d90565b73ffffffffffffffffffffffffffffffffffffffff16146111da576040517f08c379a00000000000000000000000000000000000000000000000000000000081526004016111d190613e09565b60405180910390fd5b6112467f000000000000000000000000000000000000000000000000000000000000000034888880806020026020016040519081016040528093929190818152602001838360200280828437600081840152601f19601f82011690508083019250505050505050612591565b91508682600184516112589190613d2d565b8151811061126957611268613d61565b5b602002602001015110156112b2576040517f08c379a00000000000000000000000000000000000000000000000000000000081526004016112a990613e9b565b60405180910390fd5b7f000000000000000000000000000000000000000000000000000000000000000073ffffffffffffffffffffffffffffffffffffffff1663d0e30db08360008151811061130257611301613d61565b5b60200260200101516040518263ffffffff1660e01b81526004016000604051808303818588803b15801561133557600080fd5b505af1158015611349573d6000803e3d6000fd5b50505050507f000000000000000000000000000000000000000000000000000000000000000073ffffffffffffffffffffffffffffffffffffffff1663a9059cbb6114057f0000000000000000000000000000000000000000000000000000000000000000898960008181106113c2576113c1613d61565b5b90506020020160208101906113d79190613d90565b8a8a60018181106113eb576113ea613d61565b5b90506020020160208101906114009190613d90565b61271c565b8460008151811061141957611418613d61565b5b60200260200101516040518363ffffffff1660e01b815260040161143e929190613f27565b6020604051808303816000875af115801561145d573d6000803e3d6000fd5b505050506040513d601f19601f820116820180604052508101906114819190613f88565b61148e5761148d6134ac565b5b6114da82878780806020026020016040519081016040528093929190818152602001838360200280828437600081840152601f19601f82011690508083019250505050505050866128ef565b5095945050505050565b60006114f1848484612ce3565b90509392505050565b60608142811015611540576040517f08c379a000000000000000000000000000000000000000000000000000000000815260040161153790613cde565b60405180910390fd5b6115ac7f000000000000000000000000000000000000000000000000000000000000000089888880806020026020016040519081016040528093929190818152602001838360200280828437600081840152601f19601f82011690508083019250505050505050612b48565b915086826000815181106115c3576115c2613d61565b5b6020026020010151111561160c576040517f08c379a000000000000000000000000000000000000000000000000000000000815260040161160390613f07565b60405180910390fd5b6116d58686600081811061162357611622613d61565b5b90506020020160208101906116389190613d90565b336116b47f00000000000000000000000000000000000000000000000000000000000000008a8a600081811061167157611670613d61565b5b90506020020160208101906116869190613d90565b8b8b600181811061169a57611699613d61565b5b90506020020160208101906116af9190613d90565b61271c565b856000815181106116c8576116c7613d61565b5b60200260200101516127b6565b61172182878780806020026020016040519081016040528093929190818152602001838360200280828437600081840152601f19601f82011690508083019250505050505050866128ef565b509695505050505050565b7f000000000000000000000000000000000000000000000000000000000000000081565b600061175d848484612df6565b90509392505050565b60008082428110156117ad576040517f08c379a00000000000000000000000000000000000000000000000000000000081526004016117a490613cde565b60405180910390fd5b60006117da7f00000000000000000000000000000000000000000000000000000000000000008c8c61271c565b90508073ffffffffffffffffffffffffffffffffffffffff166323b872dd33838c6040518463ffffffff1660e01b815260040161181993929190613fb5565b6020604051808303816000875af1158015611838573d6000803e3d6000fd5b505050506040513d601f19601f8201168201806040525081019061185c9190613f88565b506000808273ffffffffffffffffffffffffffffffffffffffff166389afcb44896040518263ffffffff1660e01b81526004016118999190613ad7565b60408051808303816000875af11580156118b7573d6000803e3d6000fd5b505050506040513d601f19601f820116820180604052508101906118db9190614001565b9150915060006118eb8e8e612eb0565b5090508073ffffffffffffffffffffffffffffffffffffffff168e73ffffffffffffffffffffffffffffffffffffffff161461192857818361192b565b82825b80975081985050508a871015611976576040517f08c379a000000000000000000000000000000000000000000000000000000000815260040161196d9061408d565b60405180910390fd5b898610156119b9576040517f08c379a00000000000000000000000000000000000000000000000000000000081526004016119b0906140f9565b60405180910390fd5b505050505097509795505050505050565b7f000000000000000000000000000000000000000000000000000000000000000081565b6060611a1b7f00000000000000000000000000000000000000000000000000000000000000008484612591565b905092915050565b60008060008342811015611a6c576040517f08c379a0000000000000000000000000000000000000000000000000000000008152600401611a6390613cde565b60405180910390fd5b611a7a8c8c8c8c8c8c612fdc565b80945081955050506000611aaf7f00000000000000000000000000000000000000000000000000000000000000008e8e61271c565b9050611abd8d3383886127b6565b611ac98c3383876127b6565b8073ffffffffffffffffffffffffffffffffffffffff16636a627842886040518263ffffffff1660e01b8152600401611b029190613ad7565b6020604051808303816000875af1158015611b21573d6000803e3d6000fd5b505050506040513d601f19601f82011682018060405250810190611b459190614119565b92505050985098509895505050505050565b60008060008342811015611ba0576040517f08c379a0000000000000000000000000000000000000000000000000000000008152600401611b9790613cde565b60405180910390fd5b611bce8a7f00000000000000000000000000000000000000000000000000000000000000008b348c8c612fdc565b80945081955050506000611c237f00000000000000000000000000000000000000000000000000000000000000008c7f000000000000000000000000000000000000000000000000000000000000000061271c565b9050611c318b3383886127b6565b7f000000000000000000000000000000000000000000000000000000000000000073ffffffffffffffffffffffffffffffffffffffff1663d0e30db0856040518263ffffffff1660e01b81526004016000604051808303818588803b158015611c9957600080fd5b505af1158015611cad573d6000803e3d6000fd5b50505050507f000000000000000000000000000000000000000000000000000000000000000073ffffffffffffffffffffffffffffffffffffffff1663a9059cbb82866040518363ffffffff1660e01b8152600401611d0d929190613f27565b6020604051808303816000875af1158015611d2c573d6000803e3d6000fd5b505050506040513d601f19601f82011682018060405250810190611d509190613f88565b611d5d57611d5c6134ac565b5b8073ffffffffffffffffffffffffffffffffffffffff16636a627842886040518263ffffffff1660e01b8152600401611d969190613ad7565b6020604051808303816000875af1158015611db5573d6000803e3d6000fd5b505050506040513d601f19601f82011682018060405250810190611dd99190614119565b925083341115611df957611df8338534611df39190613d2d565b61238b565b5b505096509650969350505050565b60608142811015611e4d576040517f08c379a0000000000000000000000000000000000000000000000000000000008152600401611e4490613cde565b60405180910390fd5b7f000000000000000000000000000000000000000000000000000000000000000073ffffffffffffffffffffffffffffffffffffffff1686866000818110611e9857611e97613d61565b5b9050602002016020810190611ead9190613d90565b73ffffffffffffffffffffffffffffffffffffffff1614611f03576040517f08c379a0000000000000000000000000000000000000000000000000000000008152600401611efa90613e09565b60405180910390fd5b611f6f7f000000000000000000000000000000000000000000000000000000000000000088888880806020026020016040519081016040528093929190818152602001838360200280828437600081840152601f19601f82011690508083019250505050505050612b48565b91503482600081518110611f8657611f85613d61565b5b60200260200101511115611fcf576040517f08c379a0000000000000000000000000000000000000000000000000000000008152600401611fc690613f07565b60405180910390fd5b7f000000000000000000000000000000000000000000000000000000000000000073ffffffffffffffffffffffffffffffffffffffff1663d0e30db08360008151811061201f5761201e613d61565b5b60200260200101516040518263ffffffff1660e01b81526004016000604051808303818588803b15801561205257600080fd5b505af1158015612066573d6000803e3d6000fd5b50505050507f000000000000000000000000000000000000000000000000000000000000000073ffffffffffffffffffffffffffffffffffffffff1663a9059cbb6121227f0000000000000000000000000000000000000000000000000000000000000000898960008181106120df576120de613d61565b5b90506020020160208101906120f49190613d90565b8a8a600181811061210857612107613d61565b5b905060200201602081019061211d9190613d90565b61271c565b8460008151811061213657612135613d61565b5b60200260200101516040518363ffffffff1660e01b815260040161215b929190613f27565b6020604051808303816000875af115801561217a573d6000803e3d6000fd5b505050506040513d601f19601f8201168201806040525081019061219e9190613f88565b6121ab576121aa6134ac565b5b6121f782878780806020026020016040519081016040528093929190818152602001838360200280828437600081840152601f19601f82011690508083019250505050505050866128ef565b8160008151811061220b5761220a613d61565b5b602002602001015134111561224b5761224a338360008151811061223257612231613d61565b5b6020026020010151346122459190613d2d565b61238b565b5b5095945050505050565b6000808473ffffffffffffffffffffffffffffffffffffffff1663a9059cbb8585604051602401612287929190613f27565b6040516020818303038152906040529060e01b6020820180517bffffffffffffffffffffffffffffffffffffffffffffffffffffffff83818316178352505050506040516122d591906141c0565b6000604051808303816000865af19150503d8060008114612312576040519150601f19603f3d011682016040523d82523d6000602084013e612317565b606091505b509150915081801561234557506000815114806123445750808060200190518101906123439190613f88565b5b5b612384576040517f08c379a000000000000000000000000000000000000000000000000000000000815260040161237b90614249565b60405180910390fd5b5050505050565b60008273ffffffffffffffffffffffffffffffffffffffff1682600067ffffffffffffffff8111156123c0576123bf6138a6565b5b6040519080825280601f01601f1916602001820160405280156123f25781602001600182028036833780820191505090505b5060405161240091906141c0565b60006040518083038185875af1925050503d806000811461243d576040519150601f19603f3d011682016040523d82523d6000602084013e612442565b606091505b5050905080612486576040517f08c379a000000000000000000000000000000000000000000000000000000000815260040161247d906142db565b60405180910390fd5b505050565b60008084116124cf576040517f08c379a00000000000000000000000000000000000000000000000000000000081526004016124c69061436d565b60405180910390fd5b6000831180156124df5750600082115b61251e576040517f08c379a0000000000000000000000000000000000000000000000000000000008152600401612515906143d9565b60405180910390fd5b60006125356103e58661328a90919063ffffffff16565b9050600061254c848361328a90919063ffffffff16565b90506000612577836125696103e88961328a90919063ffffffff16565b6132f790919063ffffffff16565b905080826125859190614428565b93505050509392505050565b60606002825110156125d8576040517f08c379a00000000000000000000000000000000000000000000000000000000081526004016125cf906144a5565b60405180910390fd5b815167ffffffffffffffff8111156125f3576125f26138a6565b5b6040519080825280602002602001820160405280156126215781602001602082028036833780820191505090505b509050828160008151811061263957612638613d61565b5b60200260200101818152505060005b600183516126569190613d2d565b811015612714576000806126ab8786858151811061267757612676613d61565b5b60200260200101518760018761268d91906144c5565b8151811061269e5761269d613d61565b5b6020026020010151613350565b915091506126d48484815181106126c5576126c4613d61565b5b6020026020010151838361248b565b846001856126e291906144c5565b815181106126f3576126f2613d61565b5b6020026020010181815250505050808061270c9061451b565b915050612648565b509392505050565b600080600061272b8585612eb0565b915091508573ffffffffffffffffffffffffffffffffffffffff1663e6a4390583836040518363ffffffff1660e01b815260040161276a929190614563565b602060405180830381865afa158015612787573d6000803e3d6000fd5b505050506040513d601f19601f820116820180604052508101906127ab91906145a1565b925050509392505050565b6000808573ffffffffffffffffffffffffffffffffffffffff166323b872dd8686866040516024016127ea93929190613fb5565b6040516020818303038152906040529060e01b6020820180517bffffffffffffffffffffffffffffffffffffffffffffffffffffffff838183161783525050505060405161283891906141c0565b6000604051808303816000865af19150503d8060008114612875576040519150601f19603f3d011682016040523d82523d6000602084013e61287a565b606091505b50915091508180156128a857506000815114806128a75750808060200190518101906128a69190613f88565b5b5b6128e7576040517f08c379a00000000000000000000000000000000000000000000000000000000081526004016128de90614640565b60405180910390fd5b505050505050565b60005b600183516129009190613d2d565b811015612b425760008084838151811061291d5761291c613d61565b5b60200260200101518560018561293391906144c5565b8151811061294457612943613d61565b5b602002602001015191509150600061295c8383612eb0565b50905060008760018661296f91906144c5565b815181106129805761297f613d61565b5b602002602001015190506000808373ffffffffffffffffffffffffffffffffffffffff168673ffffffffffffffffffffffffffffffffffffffff16146129c8578260006129cc565b6000835b91509150600060028a516129e09190613d2d565b88106129ec5788612a3e565b612a3d7f0000000000000000000000000000000000000000000000000000000000000000878c60028c612a1f91906144c5565b81518110612a3057612a2f613d61565b5b602002602001015161271c565b5b9050612a6b7f0000000000000000000000000000000000000000000000000000000000000000888861271c565b73ffffffffffffffffffffffffffffffffffffffff1663022c0d9f848484600067ffffffffffffffff811115612aa457612aa36138a6565b5b6040519080825280601f01601f191660200182016040528015612ad65781602001600182028036833780820191505090505b506040518563ffffffff1660e01b8152600401612af694939291906146aa565b600060405180830381600087803b158015612b1057600080fd5b505af1158015612b24573d6000803e3d6000fd5b50505050505050505050508080612b3a9061451b565b9150506128f2565b50505050565b6060600282511015612b8f576040517f08c379a0000000000000000000000000000000000000000000000000000000008152600401612b86906144a5565b60405180910390fd5b815167ffffffffffffffff811115612baa57612ba96138a6565b5b604051908082528060200260200182016040528015612bd85781602001602082028036833780820191505090505b509050828160018351612beb9190613d2d565b81518110612bfc57612bfb613d61565b5b602002602001018181525050600060018351612c189190613d2d565b90505b6000811115612cdb57600080612c728786600186612c399190613d2d565b81518110612c4a57612c49613d61565b5b6020026020010151878681518110612c6557612c64613d61565b5b6020026020010151613350565b91509150612c9b848481518110612c8c57612c8b613d61565b5b60200260200101518383612ce3565b84600185612ca99190613d2d565b81518110612cba57612cb9613d61565b5b60200260200101818152505050508080612cd3906146f6565b915050612c1b565b509392505050565b6000808411612d27576040517f08c379a0000000000000000000000000000000000000000000000000000000008152600401612d1e90614791565b60405180910390fd5b600083118015612d375750600082115b612d76576040517f08c379a0000000000000000000000000000000000000000000000000000000008152600401612d6d906143d9565b60405180910390fd5b6000612d9f6103e8612d91878761328a90919063ffffffff16565b61328a90919063ffffffff16565b90506000612dca6103e5612dbc888761345390919063ffffffff16565b61328a90919063ffffffff16565b9050612deb60018284612ddd9190614428565b6132f790919063ffffffff16565b925050509392505050565b6000808411612e3a576040517f08c379a0000000000000000000000000000000000000000000000000000000008152600401612e31906147fd565b60405180910390fd5b600083118015612e4a5750600082115b612e89576040517f08c379a0000000000000000000000000000000000000000000000000000000008152600401612e80906143d9565b60405180910390fd5b82612e9d838661328a90919063ffffffff16565b612ea79190614428565b90509392505050565b6000808273ffffffffffffffffffffffffffffffffffffffff168473ffffffffffffffffffffffffffffffffffffffff1603612f21576040517f08c379a0000000000000000000000000000000000000000000000000000000008152600401612f1890614869565b60405180910390fd5b8273ffffffffffffffffffffffffffffffffffffffff168473ffffffffffffffffffffffffffffffffffffffff1610612f5b578284612f5e565b83835b8092508193505050600073ffffffffffffffffffffffffffffffffffffffff168273ffffffffffffffffffffffffffffffffffffffff1603612fd5576040517f08c379a0000000000000000000000000000000000000000000000000000000008152600401612fcc906148d5565b60405180910390fd5b9250929050565b600080600073ffffffffffffffffffffffffffffffffffffffff167f000000000000000000000000000000000000000000000000000000000000000073ffffffffffffffffffffffffffffffffffffffff1663e6a439058a8a6040518363ffffffff1660e01b8152600401613052929190614563565b602060405180830381865afa15801561306f573d6000803e3d6000fd5b505050506040513d601f19601f8201168201806040525081019061309391906145a1565b73ffffffffffffffffffffffffffffffffffffffff160361314e577f000000000000000000000000000000000000000000000000000000000000000073ffffffffffffffffffffffffffffffffffffffff1663c9c6539689896040518363ffffffff1660e01b8152600401613109929190614563565b6020604051808303816000875af1158015613128573d6000803e3d6000fd5b505050506040513d601f19601f8201168201806040525081019061314c91906145a1565b505b60008061317c7f00000000000000000000000000000000000000000000000000000000000000008b8b613350565b915091506000821480156131905750600081145b156131a4578787809450819550505061327d565b60006131b1898484612df6565b905087811161320c57858110156131fd576040517f08c379a00000000000000000000000000000000000000000000000000000000081526004016131f490614967565b60405180910390fd5b8881809550819650505061327b565b6000613219898486612df6565b90508981111561322c5761322b6134ac565b5b8781101561326f576040517f08c379a00000000000000000000000000000000000000000000000000000000081526004016132669061408d565b60405180910390fd5b80898096508197505050505b505b5050965096945050505050565b6000808214806132b25750828283856132a39190614987565b9250826132b09190614428565b145b6132f1576040517f08c379a00000000000000000000000000000000000000000000000000000000081526004016132e890614a2d565b60405180910390fd5b92915050565b600082828461330691906144c5565b915081101561334a576040517f08c379a000000000000000000000000000000000000000000000000000000000815260040161334190614a99565b60405180910390fd5b92915050565b600080600061335f8585612eb0565b50905060008061337088888861271c565b73ffffffffffffffffffffffffffffffffffffffff16630902f1ac6040518163ffffffff1660e01b8152600401606060405180830381865afa1580156133ba573d6000803e3d6000fd5b505050506040513d601f19601f820116820180604052508101906133de9190614b3b565b506dffffffffffffffffffffffffffff1691506dffffffffffffffffffffffffffff1691508273ffffffffffffffffffffffffffffffffffffffff168773ffffffffffffffffffffffffffffffffffffffff161461343d578082613440565b81815b8095508196505050505050935093915050565b60008282846134629190613d2d565b91508111156134a6576040517f08c379a000000000000000000000000000000000000000000000000000000000815260040161349d90614bda565b60405180910390fd5b92915050565b7f4e487b7100000000000000000000000000000000000000000000000000000000600052600160045260246000fd5b6000604051905090565b600080fd5b600080fd5b600073ffffffffffffffffffffffffffffffffffffffff82169050919050565b600061351a826134ef565b9050919050565b61352a8161350f565b811461353557600080fd5b50565b60008135905061354781613521565b92915050565b6000819050919050565b6135608161354d565b811461356b57600080fd5b50565b60008135905061357d81613557565b92915050565b60008060008060008060c087890312156135a05761359f6134e5565b5b60006135ae89828a01613538565b96505060206135bf89828a0161356e565b95505060406135d089828a0161356e565b94505060606135e189828a0161356e565b93505060806135f289828a01613538565b92505060a061360389828a0161356e565b9150509295509295509295565b6136198161354d565b82525050565b60006040820190506136346000830185613610565b6136416020830184613610565b9392505050565b600080600060608486031215613661576136606134e5565b5b600061366f8682870161356e565b93505060206136808682870161356e565b92505060406136918682870161356e565b9150509250925092565b60006020820190506136b06000830184613610565b92915050565b600080fd5b600080fd5b600080fd5b60008083601f8401126136db576136da6136b6565b5b8235905067ffffffffffffffff8111156136f8576136f76136bb565b5b602083019150836020820283011115613714576137136136c0565b5b9250929050565b60008060008060008060a08789031215613738576137376134e5565b5b600061374689828a0161356e565b965050602061375789828a0161356e565b955050604087013567ffffffffffffffff811115613778576137776134ea565b5b61378489828a016136c5565b9450945050606061379789828a01613538565b92505060806137a889828a0161356e565b9150509295509295509295565b600081519050919050565b600082825260208201905092915050565b6000819050602082019050919050565b6137ea8161354d565b82525050565b60006137fc83836137e1565b60208301905092915050565b6000602082019050919050565b6000613820826137b5565b61382a81856137c0565b9350613835836137d1565b8060005b8381101561386657815161384d88826137f0565b975061385883613808565b925050600181019050613839565b5085935050505092915050565b6000602082019050818103600083015261388d8184613815565b905092915050565b6000601f19601f8301169050919050565b7f4e487b7100000000000000000000000000000000000000000000000000000000600052604160045260246000fd5b6138de82613895565b810181811067ffffffffffffffff821117156138fd576138fc6138a6565b5b80604052505050565b60006139106134db565b905061391c82826138d5565b919050565b600067ffffffffffffffff82111561393c5761393b6138a6565b5b602082029050602081019050919050565b600061396061395b84613921565b613906565b90508083825260208201905060208402830185811115613983576139826136c0565b5b835b818110156139ac57806139988882613538565b845260208401935050602081019050613985565b5050509392505050565b600082601f8301126139cb576139ca6136b6565b5b81356139db84826020860161394d565b91505092915050565b600080604083850312156139fb576139fa6134e5565b5b6000613a098582860161356e565b925050602083013567ffffffffffffffff811115613a2a57613a296134ea565b5b613a36858286016139b6565b9150509250929050565b600080600080600060808688031215613a5c57613a5b6134e5565b5b6000613a6a8882890161356e565b955050602086013567ffffffffffffffff811115613a8b57613a8a6134ea565b5b613a97888289016136c5565b94509450506040613aaa88828901613538565b9250506060613abb8882890161356e565b9150509295509295909350565b613ad18161350f565b82525050565b6000602082019050613aec6000830184613ac8565b92915050565b600080600080600080600060e0888a031215613b1157613b106134e5565b5b6000613b1f8a828b01613538565b9750506020613b308a828b01613538565b9650506040613b418a828b0161356e565b9550506060613b528a828b0161356e565b9450506080613b638a828b0161356e565b93505060a0613b748a828b01613538565b92505060c0613b858a828b0161356e565b91505092959891949750929550565b600080600080600080600080610100898b031215613bb557613bb46134e5565b5b6000613bc38b828c01613538565b9850506020613bd48b828c01613538565b9750506040613be58b828c0161356e565b9650506060613bf68b828c0161356e565b9550506080613c078b828c0161356e565b94505060a0613c188b828c0161356e565b93505060c0613c298b828c01613538565b92505060e0613c3a8b828c0161356e565b9150509295985092959890939650565b6000606082019050613c5f6000830186613610565b613c6c6020830185613610565b613c796040830184613610565b949350505050565b600082825260208201905092915050565b7f526f757465723a20455850495245440000000000000000000000000000000000600082015250565b6000613cc8600f83613c81565b9150613cd382613c92565b602082019050919050565b60006020820190508181036000830152613cf781613cbb565b9050919050565b7f4e487b7100000000000000000000000000000000000000000000000000000000600052601160045260246000fd5b6000613d388261354d565b9150613d438361354d565b925082821015613d5657613d55613cfe565b5b828203905092915050565b7f4e487b7100000000000000000000000000000000000000000000000000000000600052603260045260246000fd5b600060208284031215613da657613da56134e5565b5b6000613db484828501613538565b91505092915050565b7f526f757465723a20494e56414c49445f50415448000000000000000000000000600082015250565b6000613df3601483613c81565b9150613dfe82613dbd565b602082019050919050565b60006020820190508181036000830152613e2281613de6565b9050919050565b7f526f757465723a20494e53554646494349454e545f4f55545055545f414d4f5560008201527f4e54000000000000000000000000000000000000000000000000000000000000602082015250565b6000613e85602283613c81565b9150613e9082613e29565b604082019050919050565b60006020820190508181036000830152613eb481613e78565b9050919050565b7f526f757465723a204558434553534956455f494e5055545f414d4f554e540000600082015250565b6000613ef1601e83613c81565b9150613efc82613ebb565b602082019050919050565b60006020820190508181036000830152613f2081613ee4565b9050919050565b6000604082019050613f3c6000830185613ac8565b613f496020830184613610565b9392505050565b60008115159050919050565b613f6581613f50565b8114613f7057600080fd5b50565b600081519050613f8281613f5c565b92915050565b600060208284031215613f9e57613f9d6134e5565b5b6000613fac84828501613f73565b91505092915050565b6000606082019050613fca6000830186613ac8565b613fd76020830185613ac8565b613fe46040830184613610565b949350505050565b600081519050613ffb81613557565b92915050565b60008060408385031215614018576140176134e5565b5b600061402685828601613fec565b925050602061403785828601613fec565b9150509250929050565b7f526f757465723a20494e53554646494349454e545f415f414d4f554e54000000600082015250565b6000614077601d83613c81565b915061408282614041565b602082019050919050565b600060208201905081810360008301526140a68161406a565b9050919050565b7f526f757465723a20494e53554646494349454e545f425f414d4f554e54000000600082015250565b60006140e3601d83613c81565b91506140ee826140ad565b602082019050919050565b60006020820190508181036000830152614112816140d6565b9050919050565b60006020828403121561412f5761412e6134e5565b5b600061413d84828501613fec565b91505092915050565b600081519050919050565b600081905092915050565b60005b8381101561417a57808201518184015260208101905061415f565b83811115614189576000848401525b50505050565b600061419a82614146565b6141a48185614151565b93506141b481856020860161415c565b80840191505092915050565b60006141cc828461418f565b915081905092915050565b7f5472616e7366657248656c7065723a3a736166655472616e736665723a20747260008201527f616e73666572206661696c656400000000000000000000000000000000000000602082015250565b6000614233602d83613c81565b915061423e826141d7565b604082019050919050565b6000602082019050818103600083015261426281614226565b9050919050565b7f5472616e7366657248656c7065723a3a736166655472616e736665724554483a60008201527f20455448207472616e73666572206661696c6564000000000000000000000000602082015250565b60006142c5603483613c81565b91506142d082614269565b604082019050919050565b600060208201905081810360008301526142f4816142b8565b9050919050565b7f4c6962726172793a20494e53554646494349454e545f494e5055545f414d4f5560008201527f4e54000000000000000000000000000000000000000000000000000000000000602082015250565b6000614357602283613c81565b9150614362826142fb565b604082019050919050565b600060208201905081810360008301526143868161434a565b9050919050565b7f4c6962726172793a20494e53554646494349454e545f4c495155494449545900600082015250565b60006143c3601f83613c81565b91506143ce8261438d565b602082019050919050565b600060208201905081810360008301526143f2816143b6565b9050919050565b7f4e487b7100000000000000000000000000000000000000000000000000000000600052601260045260246000fd5b60006144338261354d565b915061443e8361354d565b92508261444e5761444d6143f9565b5b828204905092915050565b7f4c6962726172793a20494e56414c49445f504154480000000000000000000000600082015250565b600061448f601583613c81565b915061449a82614459565b602082019050919050565b600060208201905081810360008301526144be81614482565b9050919050565b60006144d08261354d565b91506144db8361354d565b9250827fffffffffffffffffffffffffffffffffffffffffffffffffffffffffffffffff038211156145105761450f613cfe565b5b828201905092915050565b60006145268261354d565b91507fffffffffffffffffffffffffffffffffffffffffffffffffffffffffffffffff820361455857614557613cfe565b5b600182019050919050565b60006040820190506145786000830185613ac8565b6145856020830184613ac8565b9392505050565b60008151905061459b81613521565b92915050565b6000602082840312156145b7576145b66134e5565b5b60006145c58482850161458c565b91505092915050565b7f5472616e7366657248656c7065723a3a7472616e7366657246726f6d3a20747260008201527f616e7366657246726f6d206661696c6564000000000000000000000000000000602082015250565b600061462a603183613c81565b9150614635826145ce565b604082019050919050565b600060208201905081810360008301526146598161461d565b9050919050565b600082825260208201905092915050565b600061467c82614146565b6146868185614660565b935061469681856020860161415c565b61469f81613895565b840191505092915050565b60006080820190506146bf6000830187613610565b6146cc6020830186613610565b6146d96040830185613ac8565b81810360608301526146eb8184614671565b905095945050505050565b60006147018261354d565b91506000820361471457614713613cfe565b5b600182039050919050565b7f4c6962726172793a20494e53554646494349454e545f4f55545055545f414d4f60008201527f554e540000000000000000000000000000000000000000000000000000000000602082015250565b600061477b602383613c81565b91506147868261471f565b604082019050919050565b600060208201905081810360008301526147aa8161476e565b9050919050565b7f4c6962726172793a20494e53554646494349454e545f414d4f554e5400000000600082015250565b60006147e7601c83613c81565b91506147f2826147b1565b602082019050919050565b60006020820190508181036000830152614816816147da565b9050919050565b7f4944454e544943414c5f41444452455353455300000000000000000000000000600082015250565b6000614853601383613c81565b915061485e8261481d565b602082019050919050565b6000602082019050818103600083015261488281614846565b9050919050565b7f5a45524f5f414444524553530000000000000000000000000000000000000000600082015250565b60006148bf600c83613c81565b91506148ca82614889565b602082019050919050565b600060208201905081810360008301526148ee816148b2565b9050919050565b7f556e69737761705632526f757465723a20494e53554646494349454e545f425f60008201527f414d4f554e540000000000000000000000000000000000000000000000000000602082015250565b6000614951602683613c81565b915061495c826148f5565b604082019050919050565b6000602082019050818103600083015261498081614944565b9050919050565b60006149928261354d565b915061499d8361354d565b9250817fffffffffffffffffffffffffffffffffffffffffffffffffffffffffffffffff04831182151516156149d6576149d5613cfe565b5b828202905092915050565b7f64732d6d6174682d6d756c2d6f766572666c6f77000000000000000000000000600082015250565b6000614a17601483613c81565b9150614a22826149e1565b602082019050919050565b60006020820190508181036000830152614a4681614a0a565b9050919050565b7f64732d6d6174682d6164642d6f766572666c6f77000000000000000000000000600082015250565b6000614a83601483613c81565b9150614a8e82614a4d565b602082019050919050565b60006020820190508181036000830152614ab281614a76565b9050919050565b60006dffffffffffffffffffffffffffff82169050919050565b614adc81614ab9565b8114614ae757600080fd5b50565b600081519050614af981614ad3565b92915050565b600063ffffffff82169050919050565b614b1881614aff565b8114614b2357600080fd5b50565b600081519050614b3581614b0f565b92915050565b600080600060608486031215614b5457614b536134e5565b5b6000614b6286828701614aea565b9350506020614b7386828701614aea565b9250506040614b8486828701614b26565b9150509250925092565b7f64732d6d6174682d7375622d756e646572666c6f770000000000000000000000600082015250565b6000614bc4601583613c81565b9150614bcf82614b8e565b602082019050919050565b60006020820190508181036000830152614bf381614bb7565b905091905056fea2646970667358221220731e6e134e81faa0d7fcddb83ef1c10f7a3c460a850aac5d88ccc9958943bee064736f6c634300080d0033",
			"opcodes": "PUSH1 0xC0 PUSH1 0x40 MSTORE CALLVALUE DUP1 ISZERO PUSH3 0x11 JUMPI PUSH1 0x0 DUP1 REVERT JUMPDEST POP PUSH1 0x40 MLOAD PUSH3 0x4EBF CODESIZE SUB DUP1 PUSH3 0x4EBF DUP4 CODECOPY DUP2 DUP2 ADD PUSH1 0x40 MSTORE DUP2 ADD SWAP1 PUSH3 0x37 SWAP2 SWAP1 PUSH3 0x111 JUMP JUMPDEST DUP2 PUSH20 0xFFFFFFFFFFFFFFFFFFFFFFFFFFFFFFFFFFFFFFFF AND PUSH1 0x80 DUP2 PUSH20 0xFFFFFFFFFFFFFFFFFFFFFFFFFFFFFFFFFFFFFFFF AND DUP2 MSTORE POP POP DUP1 PUSH20 0xFFFFFFFFFFFFFFFFFFFFFFFFFFFFFFFFFFFFFFFF AND PUSH1 0xA0 DUP2 PUSH20 0xFFFFFFFFFFFFFFFFFFFFFFFFFFFFFFFFFFFFFFFF AND DUP2 MSTORE POP POP POP POP PUSH3 0x158 JUMP JUMPDEST PUSH1 0x0 DUP1 REVERT JUMPDEST PUSH1 0x0 PUSH20 0xFFFFFFFFFFFFFFFFFFFFFFFFFFFFFFFFFFFFFFFF DUP3 AND SWAP1 POP SWAP2 SWAP1 POP JUMP JUMPDEST PUSH1 0x0 PUSH3 0xD9 DUP3 PUSH3 0xAC JUMP JUMPDEST SWAP1 POP SWAP2 SWAP1 POP JUMP JUMPDEST PUSH3 0xEB DUP2 PUSH3 0xCC JUMP JUMPDEST DUP2 EQ PUSH3 0xF7 JUMPI PUSH1 0x0 DUP1 REVERT JUMPDEST POP JUMP JUMPDEST PUSH1 0x0 DUP2 MLOAD SWAP1 POP PUSH3 0x10B DUP2 PUSH3 0xE0 JUMP JUMPDEST SWAP3 SWAP2 POP POP JUMP JUMPDEST PUSH1 0x0 DUP1 PUSH1 0x40 DUP4 DUP6 SUB SLT ISZERO PUSH3 0x12B JUMPI PUSH3 0x12A PUSH3 0xA7 JUMP JUMPDEST JUMPDEST PUSH1 0x0 PUSH3 0x13B DUP6 DUP3 DUP7 ADD PUSH3 0xFA JUMP JUMPDEST SWAP3 POP POP PUSH1 0x20 PUSH3 0x14E DUP6 DUP3 DUP7 ADD PUSH3 0xFA JUMP JUMPDEST SWAP2 POP POP SWAP3 POP SWAP3 SWAP1 POP JUMP JUMPDEST PUSH1 0x80 MLOAD PUSH1 0xA0 MLOAD PUSH2 0x4C30 PUSH3 0x28F PUSH1 0x0 CODECOPY PUSH1 0x0 DUP2 DUP2 PUSH2 0x114 ADD MSTORE DUP2 DUP2 PUSH2 0x5B5 ADD MSTORE DUP2 DUP2 PUSH2 0x5F3 ADD MSTORE DUP2 DUP2 PUSH2 0x6F5 ADD MSTORE DUP2 DUP2 PUSH2 0x9A6 ADD MSTORE DUP2 DUP2 PUSH2 0xD4D ADD MSTORE DUP2 DUP2 PUSH2 0xFF2 ADD MSTORE DUP2 DUP2 PUSH2 0x1126 ADD MSTORE DUP2 DUP2 PUSH2 0x12B4 ADD MSTORE DUP2 DUP2 PUSH2 0x1350 ADD MSTORE DUP2 DUP2 PUSH2 0x172E ADD MSTORE DUP2 DUP2 PUSH2 0x1BA6 ADD MSTORE DUP2 DUP2 PUSH2 0x1BFF ADD MSTORE DUP2 DUP2 PUSH2 0x1C33 ADD MSTORE DUP2 DUP2 PUSH2 0x1CB4 ADD MSTORE DUP2 DUP2 PUSH2 0x1E4F ADD MSTORE DUP2 DUP2 PUSH2 0x1FD1 ADD MSTORE PUSH2 0x206D ADD MSTORE PUSH1 0x0 DUP2 DUP2 PUSH2 0x7BC ADD MSTORE DUP2 DUP2 PUSH2 0x8C1 ADD MSTORE DUP2 DUP2 PUSH2 0xA99 ADD MSTORE DUP2 DUP2 PUSH2 0xB12 ADD MSTORE DUP2 DUP2 PUSH2 0xC17 ADD MSTORE DUP2 DUP2 PUSH2 0xE14 ADD MSTORE DUP2 DUP2 PUSH2 0xF0D ADD MSTORE DUP2 DUP2 PUSH2 0x11DF ADD MSTORE DUP2 DUP2 PUSH2 0x138F ADD MSTORE DUP2 DUP2 PUSH2 0x1545 ADD MSTORE DUP2 DUP2 PUSH2 0x163E ADD MSTORE DUP2 DUP2 PUSH2 0x17B4 ADD MSTORE DUP2 DUP2 PUSH2 0x19CC ADD MSTORE DUP2 DUP2 PUSH2 0x19F5 ADD MSTORE DUP2 DUP2 PUSH2 0x1A89 ADD MSTORE DUP2 DUP2 PUSH2 0x1BDD ADD MSTORE DUP2 DUP2 PUSH2 0x1F08 ADD MSTORE DUP2 DUP2 PUSH2 0x20AC ADD MSTORE DUP2 DUP2 PUSH2 0x29F1 ADD MSTORE DUP2 DUP2 PUSH2 0x2A45 ADD MSTORE DUP2 DUP2 PUSH2 0x2FF9 ADD MSTORE DUP2 DUP2 PUSH2 0x30B0 ADD MSTORE PUSH2 0x3156 ADD MSTORE PUSH2 0x4C30 PUSH1 0x0 RETURN INVALID PUSH1 0x80 PUSH1 0x40 MSTORE PUSH1 0x4 CALLDATASIZE LT PUSH2 0x10D JUMPI PUSH1 0x0 CALLDATALOAD PUSH1 0xE0 SHR DUP1 PUSH4 0x8803DBEE GT PUSH2 0x95 JUMPI DUP1 PUSH4 0xC45A0155 GT PUSH2 0x64 JUMPI DUP1 PUSH4 0xC45A0155 EQ PUSH2 0x45F JUMPI DUP1 PUSH4 0xD06CA61F EQ PUSH2 0x48A JUMPI DUP1 PUSH4 0xE8E33700 EQ PUSH2 0x4C7 JUMPI DUP1 PUSH4 0xF305D719 EQ PUSH2 0x506 JUMPI DUP1 PUSH4 0xFB3BDB41 EQ PUSH2 0x538 JUMPI PUSH2 0x170 JUMP JUMPDEST DUP1 PUSH4 0x8803DBEE EQ PUSH2 0x37C JUMPI DUP1 PUSH4 0xAD5C4648 EQ PUSH2 0x3B9 JUMPI DUP1 PUSH4 0xAD615DEC EQ PUSH2 0x3E4 JUMPI DUP1 PUSH4 0xBAA2ABDE EQ PUSH2 0x421 JUMPI PUSH2 0x170 JUMP JUMPDEST DUP1 PUSH4 0x1F00CA74 GT PUSH2 0xDC JUMPI DUP1 PUSH4 0x1F00CA74 EQ PUSH2 0x258 JUMPI DUP1 PUSH4 0x38ED1739 EQ PUSH2 0x295 JUMPI DUP1 PUSH4 0x4A25D94A EQ PUSH2 0x2D2 JUMPI DUP1 PUSH4 0x7FF36AB5 EQ PUSH2 0x30F JUMPI DUP1 PUSH4 0x85F8C259 EQ PUSH2 0x33F JUMPI PUSH2 0x170 JUMP JUMPDEST DUP1 PUSH4 0x2751CEC EQ PUSH2 0x175 JUMPI DUP1 PUSH4 0x54D50D4 EQ PUSH2 0x1B3 JUMPI DUP1 PUSH4 0x15D3DF97 EQ PUSH2 0x1F0 JUMPI DUP1 PUSH4 0x18CBAFE5 EQ PUSH2 0x21B JUMPI PUSH2 0x170 JUMP JUMPDEST CALLDATASIZE PUSH2 0x170 JUMPI PUSH32 0x0 PUSH20 0xFFFFFFFFFFFFFFFFFFFFFFFFFFFFFFFFFFFFFFFF AND CALLER PUSH20 0xFFFFFFFFFFFFFFFFFFFFFFFFFFFFFFFFFFFFFFFF AND EQ PUSH2 0x16E JUMPI PUSH2 0x16D PUSH2 0x34AC JUMP JUMPDEST JUMPDEST STOP JUMPDEST PUSH1 0x0 DUP1 REVERT JUMPDEST CALLVALUE DUP1 ISZERO PUSH2 0x181 JUMPI PUSH1 0x0 DUP1 REVERT JUMPDEST POP PUSH2 0x19C PUSH1 0x4 DUP1 CALLDATASIZE SUB DUP2 ADD SWAP1 PUSH2 0x197 SWAP2 SWAP1 PUSH2 0x3583 JUMP JUMPDEST PUSH2 0x568 JUMP JUMPDEST PUSH1 0x40 MLOAD PUSH2 0x1AA SWAP3 SWAP2 SWAP1 PUSH2 0x361F JUMP JUMPDEST PUSH1 0x40 MLOAD DUP1 SWAP2 SUB SWAP1 RETURN JUMPDEST CALLVALUE DUP1 ISZERO PUSH2 0x1BF JUMPI PUSH1 0x0 DUP1 REVERT JUMPDEST POP PUSH2 0x1DA PUSH1 0x4 DUP1 CALLDATASIZE SUB DUP2 ADD SWAP1 PUSH2 0x1D5 SWAP2 SWAP1 PUSH2 0x3648 JUMP JUMPDEST PUSH2 0x692 JUMP JUMPDEST PUSH1 0x40 MLOAD PUSH2 0x1E7 SWAP2 SWAP1 PUSH2 0x369B JUMP JUMPDEST PUSH1 0x40 MLOAD DUP1 SWAP2 SUB SWAP1 RETURN JUMPDEST CALLVALUE DUP1 ISZERO PUSH2 0x1FC JUMPI PUSH1 0x0 DUP1 REVERT JUMPDEST POP PUSH2 0x205 PUSH2 0x6A8 JUMP JUMPDEST PUSH1 0x40 MLOAD PUSH2 0x212 SWAP2 SWAP1 PUSH2 0x369B JUMP JUMPDEST PUSH1 0x40 MLOAD DUP1 SWAP2 SUB SWAP1 RETURN JUMPDEST CALLVALUE DUP1 ISZERO PUSH2 0x227 JUMPI PUSH1 0x0 DUP1 REVERT JUMPDEST POP PUSH2 0x242 PUSH1 0x4 DUP1 CALLDATASIZE SUB DUP2 ADD SWAP1 PUSH2 0x23D SWAP2 SWAP1 PUSH2 0x371B JUMP JUMPDEST PUSH2 0x6AD JUMP JUMPDEST PUSH1 0x40 MLOAD PUSH2 0x24F SWAP2 SWAP1 PUSH2 0x3873 JUMP JUMPDEST PUSH1 0x40 MLOAD DUP1 SWAP2 SUB SWAP1 RETURN JUMPDEST CALLVALUE DUP1 ISZERO PUSH2 0x264 JUMPI PUSH1 0x0 DUP1 REVERT JUMPDEST POP PUSH2 0x27F PUSH1 0x4 DUP1 CALLDATASIZE SUB DUP2 ADD SWAP1 PUSH2 0x27A SWAP2 SWAP1 PUSH2 0x39E4 JUMP JUMPDEST PUSH2 0xA92 JUMP JUMPDEST PUSH1 0x40 MLOAD PUSH2 0x28C SWAP2 SWAP1 PUSH2 0x3873 JUMP JUMPDEST PUSH1 0x40 MLOAD DUP1 SWAP2 SUB SWAP1 RETURN JUMPDEST CALLVALUE DUP1 ISZERO PUSH2 0x2A1 JUMPI PUSH1 0x0 DUP1 REVERT JUMPDEST POP PUSH2 0x2BC PUSH1 0x4 DUP1 CALLDATASIZE SUB DUP2 ADD SWAP1 PUSH2 0x2B7 SWAP2 SWAP1 PUSH2 0x371B JUMP JUMPDEST PUSH2 0xAC7 JUMP JUMPDEST PUSH1 0x40 MLOAD PUSH2 0x2C9 SWAP2 SWAP1 PUSH2 0x3873 JUMP JUMPDEST PUSH1 0x40 MLOAD DUP1 SWAP2 SUB SWAP1 RETURN JUMPDEST CALLVALUE DUP1 ISZERO PUSH2 0x2DE JUMPI PUSH1 0x0 DUP1 REVERT JUMPDEST POP PUSH2 0x2F9 PUSH1 0x4 DUP1 CALLDATASIZE SUB DUP2 ADD SWAP1 PUSH2 0x2F4 SWAP2 SWAP1 PUSH2 0x371B JUMP JUMPDEST PUSH2 0xD05 JUMP JUMPDEST PUSH1 0x40 MLOAD PUSH2 0x306 SWAP2 SWAP1 PUSH2 0x3873 JUMP JUMPDEST PUSH1 0x40 MLOAD DUP1 SWAP2 SUB SWAP1 RETURN JUMPDEST PUSH2 0x329 PUSH1 0x4 DUP1 CALLDATASIZE SUB DUP2 ADD SWAP1 PUSH2 0x324 SWAP2 SWAP1 PUSH2 0x3A40 JUMP JUMPDEST PUSH2 0x10DE JUMP JUMPDEST PUSH1 0x40 MLOAD PUSH2 0x336 SWAP2 SWAP1 PUSH2 0x3873 JUMP JUMPDEST PUSH1 0x40 MLOAD DUP1 SWAP2 SUB SWAP1 RETURN JUMPDEST CALLVALUE DUP1 ISZERO PUSH2 0x34B JUMPI PUSH1 0x0 DUP1 REVERT JUMPDEST POP PUSH2 0x366 PUSH1 0x4 DUP1 CALLDATASIZE SUB DUP2 ADD SWAP1 PUSH2 0x361 SWAP2 SWAP1 PUSH2 0x3648 JUMP JUMPDEST PUSH2 0x14E4 JUMP JUMPDEST PUSH1 0x40 MLOAD PUSH2 0x373 SWAP2 SWAP1 PUSH2 0x369B JUMP JUMPDEST PUSH1 0x40 MLOAD DUP1 SWAP2 SUB SWAP1 RETURN JUMPDEST CALLVALUE DUP1 ISZERO PUSH2 0x388 JUMPI PUSH1 0x0 DUP1 REVERT JUMPDEST POP PUSH2 0x3A3 PUSH1 0x4 DUP1 CALLDATASIZE SUB DUP2 ADD SWAP1 PUSH2 0x39E SWAP2 SWAP1 PUSH2 0x371B JUMP JUMPDEST PUSH2 0x14FA JUMP JUMPDEST PUSH1 0x40 MLOAD PUSH2 0x3B0 SWAP2 SWAP1 PUSH2 0x3873 JUMP JUMPDEST PUSH1 0x40 MLOAD DUP1 SWAP2 SUB SWAP1 RETURN JUMPDEST CALLVALUE DUP1 ISZERO PUSH2 0x3C5 JUMPI PUSH1 0x0 DUP1 REVERT JUMPDEST POP PUSH2 0x3CE PUSH2 0x172C JUMP JUMPDEST PUSH1 0x40 MLOAD PUSH2 0x3DB SWAP2 SWAP1 PUSH2 0x3AD7 JUMP JUMPDEST PUSH1 0x40 MLOAD DUP1 SWAP2 SUB SWAP1 RETURN JUMPDEST CALLVALUE DUP1 ISZERO PUSH2 0x3F0 JUMPI PUSH1 0x0 DUP1 REVERT JUMPDEST POP PUSH2 0x40B PUSH1 0x4 DUP1 CALLDATASIZE SUB DUP2 ADD SWAP1 PUSH2 0x406 SWAP2 SWAP1 PUSH2 0x3648 JUMP JUMPDEST PUSH2 0x1750 JUMP JUMPDEST PUSH1 0x40 MLOAD PUSH2 0x418 SWAP2 SWAP1 PUSH2 0x369B JUMP JUMPDEST PUSH1 0x40 MLOAD DUP1 SWAP2 SUB SWAP1 RETURN JUMPDEST CALLVALUE DUP1 ISZERO PUSH2 0x42D JUMPI PUSH1 0x0 DUP1 REVERT JUMPDEST POP PUSH2 0x448 PUSH1 0x4 DUP1 CALLDATASIZE SUB DUP2 ADD SWAP1 PUSH2 0x443 SWAP2 SWAP1 PUSH2 0x3AF2 JUMP JUMPDEST PUSH2 0x1766 JUMP JUMPDEST PUSH1 0x40 MLOAD PUSH2 0x456 SWAP3 SWAP2 SWAP1 PUSH2 0x361F JUMP JUMPDEST PUSH1 0x40 MLOAD DUP1 SWAP2 SUB SWAP1 RETURN JUMPDEST CALLVALUE DUP1 ISZERO PUSH2 0x46B JUMPI PUSH1 0x0 DUP1 REVERT JUMPDEST POP PUSH2 0x474 PUSH2 0x19CA JUMP JUMPDEST PUSH1 0x40 MLOAD PUSH2 0x481 SWAP2 SWAP1 PUSH2 0x3AD7 JUMP JUMPDEST PUSH1 0x40 MLOAD DUP1 SWAP2 SUB SWAP1 RETURN JUMPDEST CALLVALUE DUP1 ISZERO PUSH2 0x496 JUMPI PUSH1 0x0 DUP1 REVERT JUMPDEST POP PUSH2 0x4B1 PUSH1 0x4 DUP1 CALLDATASIZE SUB DUP2 ADD SWAP1 PUSH2 0x4AC SWAP2 SWAP1 PUSH2 0x39E4 JUMP JUMPDEST PUSH2 0x19EE JUMP JUMPDEST PUSH1 0x40 MLOAD PUSH2 0x4BE SWAP2 SWAP1 PUSH2 0x3873 JUMP JUMPDEST PUSH1 0x40 MLOAD DUP1 SWAP2 SUB SWAP1 RETURN JUMPDEST CALLVALUE DUP1 ISZERO PUSH2 0x4D3 JUMPI PUSH1 0x0 DUP1 REVERT JUMPDEST POP PUSH2 0x4EE PUSH1 0x4 DUP1 CALLDATASIZE SUB DUP2 ADD SWAP1 PUSH2 0x4E9 SWAP2 SWAP1 PUSH2 0x3B94 JUMP JUMPDEST PUSH2 0x1A23 JUMP JUMPDEST PUSH1 0x40 MLOAD PUSH2 0x4FD SWAP4 SWAP3 SWAP2 SWAP1 PUSH2 0x3C4A JUMP JUMPDEST PUSH1 0x40 MLOAD DUP1 SWAP2 SUB SWAP1 RETURN JUMPDEST PUSH2 0x520 PUSH1 0x4 DUP1 CALLDATASIZE SUB DUP2 ADD SWAP1 PUSH2 0x51B SWAP2 SWAP1 PUSH2 0x3583 JUMP JUMPDEST PUSH2 0x1B57 JUMP JUMPDEST PUSH1 0x40 MLOAD PUSH2 0x52F SWAP4 SWAP3 SWAP2 SWAP1 PUSH2 0x3C4A JUMP JUMPDEST PUSH1 0x40 MLOAD DUP1 SWAP2 SUB SWAP1 RETURN JUMPDEST PUSH2 0x552 PUSH1 0x4 DUP1 CALLDATASIZE SUB DUP2 ADD SWAP1 PUSH2 0x54D SWAP2 SWAP1 PUSH2 0x3A40 JUMP JUMPDEST PUSH2 0x1E07 JUMP JUMPDEST PUSH1 0x40 MLOAD PUSH2 0x55F SWAP2 SWAP1 PUSH2 0x3873 JUMP JUMPDEST PUSH1 0x40 MLOAD DUP1 SWAP2 SUB SWAP1 RETURN JUMPDEST PUSH1 0x0 DUP1 DUP3 TIMESTAMP DUP2 LT ISZERO PUSH2 0x5AF JUMPI PUSH1 0x40 MLOAD PUSH32 0x8C379A000000000000000000000000000000000000000000000000000000000 DUP2 MSTORE PUSH1 0x4 ADD PUSH2 0x5A6 SWAP1 PUSH2 0x3CDE JUMP JUMPDEST PUSH1 0x40 MLOAD DUP1 SWAP2 SUB SWAP1 REVERT JUMPDEST PUSH2 0x5DE DUP10 PUSH32 0x0 DUP11 DUP11 DUP11 ADDRESS DUP11 PUSH2 0x1766 JUMP JUMPDEST DUP1 SWAP4 POP DUP2 SWAP5 POP POP POP PUSH2 0x5F1 DUP10 DUP7 DUP6 PUSH2 0x2255 JUMP JUMPDEST PUSH32 0x0 PUSH20 0xFFFFFFFFFFFFFFFFFFFFFFFFFFFFFFFFFFFFFFFF AND PUSH4 0x2E1A7D4D DUP4 PUSH1 0x40 MLOAD DUP3 PUSH4 0xFFFFFFFF AND PUSH1 0xE0 SHL DUP2 MSTORE PUSH1 0x4 ADD PUSH2 0x64A SWAP2 SWAP1 PUSH2 0x369B JUMP JUMPDEST PUSH1 0x0 PUSH1 0x40 MLOAD DUP1 DUP4 SUB DUP2 PUSH1 0x0 DUP8 DUP1 EXTCODESIZE ISZERO DUP1 ISZERO PUSH2 0x664 JUMPI PUSH1 0x0 DUP1 REVERT JUMPDEST POP GAS CALL ISZERO DUP1 ISZERO PUSH2 0x678 JUMPI RETURNDATASIZE PUSH1 0x0 DUP1 RETURNDATACOPY RETURNDATASIZE PUSH1 0x0 REVERT JUMPDEST POP POP POP POP PUSH2 0x686 DUP6 DUP4 PUSH2 0x238B JUMP JUMPDEST POP SWAP7 POP SWAP7 SWAP5 POP POP POP POP POP JUMP JUMPDEST PUSH1 0x0 PUSH2 0x69F DUP5 DUP5 DUP5 PUSH2 0x248B JUMP JUMPDEST SWAP1 POP SWAP4 SWAP3 POP POP POP JUMP JUMPDEST PUSH1 0x0 SWAP1 JUMP JUMPDEST PUSH1 0x60 DUP2 TIMESTAMP DUP2 LT ISZERO PUSH2 0x6F3 JUMPI PUSH1 0x40 MLOAD PUSH32 0x8C379A000000000000000000000000000000000000000000000000000000000 DUP2 MSTORE PUSH1 0x4 ADD PUSH2 0x6EA SWAP1 PUSH2 0x3CDE JUMP JUMPDEST PUSH1 0x40 MLOAD DUP1 SWAP2 SUB SWAP1 REVERT JUMPDEST PUSH32 0x0 PUSH20 0xFFFFFFFFFFFFFFFFFFFFFFFFFFFFFFFFFFFFFFFF AND DUP7 DUP7 PUSH1 0x1 DUP10 DUP10 SWAP1 POP PUSH2 0x73C SWAP2 SWAP1 PUSH2 0x3D2D JUMP JUMPDEST DUP2 DUP2 LT PUSH2 0x74C JUMPI PUSH2 0x74B PUSH2 0x3D61 JUMP JUMPDEST JUMPDEST SWAP1 POP PUSH1 0x20 MUL ADD PUSH1 0x20 DUP2 ADD SWAP1 PUSH2 0x761 SWAP2 SWAP1 PUSH2 0x3D90 JUMP JUMPDEST PUSH20 0xFFFFFFFFFFFFFFFFFFFFFFFFFFFFFFFFFFFFFFFF AND EQ PUSH2 0x7B7 JUMPI PUSH1 0x40 MLOAD PUSH32 0x8C379A000000000000000000000000000000000000000000000000000000000 DUP2 MSTORE PUSH1 0x4 ADD PUSH2 0x7AE SWAP1 PUSH2 0x3E09 JUMP JUMPDEST PUSH1 0x40 MLOAD DUP1 SWAP2 SUB SWAP1 REVERT JUMPDEST PUSH2 0x823 PUSH32 0x0 DUP10 DUP9 DUP9 DUP1 DUP1 PUSH1 0x20 MUL PUSH1 0x20 ADD PUSH1 0x40 MLOAD SWAP1 DUP2 ADD PUSH1 0x40 MSTORE DUP1 SWAP4 SWAP3 SWAP2 SWAP1 DUP2 DUP2 MSTORE PUSH1 0x20 ADD DUP4 DUP4 PUSH1 0x20 MUL DUP1 DUP3 DUP5 CALLDATACOPY PUSH1 0x0 DUP2 DUP5 ADD MSTORE PUSH1 0x1F NOT PUSH1 0x1F DUP3 ADD AND SWAP1 POP DUP1 DUP4 ADD SWAP3 POP POP POP POP POP POP POP PUSH2 0x2591 JUMP JUMPDEST SWAP2 POP DUP7 DUP3 PUSH1 0x1 DUP5 MLOAD PUSH2 0x835 SWAP2 SWAP1 PUSH2 0x3D2D JUMP JUMPDEST DUP2 MLOAD DUP2 LT PUSH2 0x846 JUMPI PUSH2 0x845 PUSH2 0x3D61 JUMP JUMPDEST JUMPDEST PUSH1 0x20 MUL PUSH1 0x20 ADD ADD MLOAD LT ISZERO PUSH2 0x88F JUMPI PUSH1 0x40 MLOAD PUSH32 0x8C379A000000000000000000000000000000000000000000000000000000000 DUP2 MSTORE PUSH1 0x4 ADD PUSH2 0x886 SWAP1 PUSH2 0x3E9B JUMP JUMPDEST PUSH1 0x40 MLOAD DUP1 SWAP2 SUB SWAP1 REVERT JUMPDEST PUSH2 0x958 DUP7 DUP7 PUSH1 0x0 DUP2 DUP2 LT PUSH2 0x8A6 JUMPI PUSH2 0x8A5 PUSH2 0x3D61 JUMP JUMPDEST JUMPDEST SWAP1 POP PUSH1 0x20 MUL ADD PUSH1 0x20 DUP2 ADD SWAP1 PUSH2 0x8BB SWAP2 SWAP1 PUSH2 0x3D90 JUMP JUMPDEST CALLER PUSH2 0x937 PUSH32 0x0 DUP11 DUP11 PUSH1 0x0 DUP2 DUP2 LT PUSH2 0x8F4 JUMPI PUSH2 0x8F3 PUSH2 0x3D61 JUMP JUMPDEST JUMPDEST SWAP1 POP PUSH1 0x20 MUL ADD PUSH1 0x20 DUP2 ADD SWAP1 PUSH2 0x909 SWAP2 SWAP1 PUSH2 0x3D90 JUMP JUMPDEST DUP12 DUP12 PUSH1 0x1 DUP2 DUP2 LT PUSH2 0x91D JUMPI PUSH2 0x91C PUSH2 0x3D61 JUMP JUMPDEST JUMPDEST SWAP1 POP PUSH1 0x20 MUL ADD PUSH1 0x20 DUP2 ADD SWAP1 PUSH2 0x932 SWAP2 SWAP1 PUSH2 0x3D90 JUMP JUMPDEST PUSH2 0x271C JUMP JUMPDEST DUP6 PUSH1 0x0 DUP2 MLOAD DUP2 LT PUSH2 0x94B JUMPI PUSH2 0x94A PUSH2 0x3D61 JUMP JUMPDEST JUMPDEST PUSH1 0x20 MUL PUSH1 0x20 ADD ADD MLOAD PUSH2 0x27B6 JUMP JUMPDEST PUSH2 0x9A4 DUP3 DUP8 DUP8 DUP1 DUP1 PUSH1 0x20 MUL PUSH1 0x20 ADD PUSH1 0x40 MLOAD SWAP1 DUP2 ADD PUSH1 0x40 MSTORE DUP1 SWAP4 SWAP3 SWAP2 SWAP1 DUP2 DUP2 MSTORE PUSH1 0x20 ADD DUP4 DUP4 PUSH1 0x20 MUL DUP1 DUP3 DUP5 CALLDATACOPY PUSH1 0x0 DUP2 DUP5 ADD MSTORE PUSH1 0x1F NOT PUSH1 0x1F DUP3 ADD AND SWAP1 POP DUP1 DUP4 ADD SWAP3 POP POP POP POP POP POP POP ADDRESS PUSH2 0x28EF JUMP JUMPDEST PUSH32 0x0 PUSH20 0xFFFFFFFFFFFFFFFFFFFFFFFFFFFFFFFFFFFFFFFF AND PUSH4 0x2E1A7D4D DUP4 PUSH1 0x1 DUP6 MLOAD PUSH2 0x9EF SWAP2 SWAP1 PUSH2 0x3D2D JUMP JUMPDEST DUP2 MLOAD DUP2 LT PUSH2 0xA00 JUMPI PUSH2 0x9FF PUSH2 0x3D61 JUMP JUMPDEST JUMPDEST PUSH1 0x20 MUL PUSH1 0x20 ADD ADD MLOAD PUSH1 0x40 MLOAD DUP3 PUSH4 0xFFFFFFFF AND PUSH1 0xE0 SHL DUP2 MSTORE PUSH1 0x4 ADD PUSH2 0xA24 SWAP2 SWAP1 PUSH2 0x369B JUMP JUMPDEST PUSH1 0x0 PUSH1 0x40 MLOAD DUP1 DUP4 SUB DUP2 PUSH1 0x0 DUP8 DUP1 EXTCODESIZE ISZERO DUP1 ISZERO PUSH2 0xA3E JUMPI PUSH1 0x0 DUP1 REVERT JUMPDEST POP GAS CALL ISZERO DUP1 ISZERO PUSH2 0xA52 JUMPI RETURNDATASIZE PUSH1 0x0 DUP1 RETURNDATACOPY RETURNDATASIZE PUSH1 0x0 REVERT JUMPDEST POP POP POP POP PUSH2 0xA87 DUP5 DUP4 PUSH1 0x1 DUP6 MLOAD PUSH2 0xA69 SWAP2 SWAP1 PUSH2 0x3D2D JUMP JUMPDEST DUP2 MLOAD DUP2 LT PUSH2 0xA7A JUMPI PUSH2 0xA79 PUSH2 0x3D61 JUMP JUMPDEST JUMPDEST PUSH1 0x20 MUL PUSH1 0x20 ADD ADD MLOAD PUSH2 0x238B JUMP JUMPDEST POP SWAP7 SWAP6 POP POP POP POP POP POP JUMP JUMPDEST PUSH1 0x60 PUSH2 0xABF PUSH32 0x0 DUP5 DUP5 PUSH2 0x2B48 JUMP JUMPDEST SWAP1 POP SWAP3 SWAP2 POP POP JUMP JUMPDEST PUSH1 0x60 DUP2 TIMESTAMP DUP2 LT ISZERO PUSH2 0xB0D JUMPI PUSH1 0x40 MLOAD PUSH32 0x8C379A000000000000000000000000000000000000000000000000000000000 DUP2 MSTORE PUSH1 0x4 ADD PUSH2 0xB04 SWAP1 PUSH2 0x3CDE JUMP JUMPDEST PUSH1 0x40 MLOAD DUP1 SWAP2 SUB SWAP1 REVERT JUMPDEST PUSH2 0xB79 PUSH32 0x0 DUP10 DUP9 DUP9 DUP1 DUP1 PUSH1 0x20 MUL PUSH1 0x20 ADD PUSH1 0x40 MLOAD SWAP1 DUP2 ADD PUSH1 0x40 MSTORE DUP1 SWAP4 SWAP3 SWAP2 SWAP1 DUP2 DUP2 MSTORE PUSH1 0x20 ADD DUP4 DUP4 PUSH1 0x20 MUL DUP1 DUP3 DUP5 CALLDATACOPY PUSH1 0x0 DUP2 DUP5 ADD MSTORE PUSH1 0x1F NOT PUSH1 0x1F DUP3 ADD AND SWAP1 POP DUP1 DUP4 ADD SWAP3 POP POP POP POP POP POP POP PUSH2 0x2591 JUMP JUMPDEST SWAP2 POP DUP7 DUP3 PUSH1 0x1 DUP5 MLOAD PUSH2 0xB8B SWAP2 SWAP1 PUSH2 0x3D2D JUMP JUMPDEST DUP2 MLOAD DUP2 LT PUSH2 0xB9C JUMPI PUSH2 0xB9B PUSH2 0x3D61 JUMP JUMPDEST JUMPDEST PUSH1 0x20 MUL PUSH1 0x20 ADD ADD MLOAD LT ISZERO PUSH2 0xBE5 JUMPI PUSH1 0x40 MLOAD PUSH32 0x8C379A000000000000000000000000000000000000000000000000000000000 DUP2 MSTORE PUSH1 0x4 ADD PUSH2 0xBDC SWAP1 PUSH2 0x3E9B JUMP JUMPDEST PUSH1 0x40 MLOAD DUP1 SWAP2 SUB SWAP1 REVERT JUMPDEST PUSH2 0xCAE DUP7 DUP7 PUSH1 0x0 DUP2 DUP2 LT PUSH2 0xBFC JUMPI PUSH2 0xBFB PUSH2 0x3D61 JUMP JUMPDEST JUMPDEST SWAP1 POP PUSH1 0x20 MUL ADD PUSH1 0x20 DUP2 ADD SWAP1 PUSH2 0xC11 SWAP2 SWAP1 PUSH2 0x3D90 JUMP JUMPDEST CALLER PUSH2 0xC8D PUSH32 0x0 DUP11 DUP11 PUSH1 0x0 DUP2 DUP2 LT PUSH2 0xC4A JUMPI PUSH2 0xC49 PUSH2 0x3D61 JUMP JUMPDEST JUMPDEST SWAP1 POP PUSH1 0x20 MUL ADD PUSH1 0x20 DUP2 ADD SWAP1 PUSH2 0xC5F SWAP2 SWAP1 PUSH2 0x3D90 JUMP JUMPDEST DUP12 DUP12 PUSH1 0x1 DUP2 DUP2 LT PUSH2 0xC73 JUMPI PUSH2 0xC72 PUSH2 0x3D61 JUMP JUMPDEST JUMPDEST SWAP1 POP PUSH1 0x20 MUL ADD PUSH1 0x20 DUP2 ADD SWAP1 PUSH2 0xC88 SWAP2 SWAP1 PUSH2 0x3D90 JUMP JUMPDEST PUSH2 0x271C JUMP JUMPDEST DUP6 PUSH1 0x0 DUP2 MLOAD DUP2 LT PUSH2 0xCA1 JUMPI PUSH2 0xCA0 PUSH2 0x3D61 JUMP JUMPDEST JUMPDEST PUSH1 0x20 MUL PUSH1 0x20 ADD ADD MLOAD PUSH2 0x27B6 JUMP JUMPDEST PUSH2 0xCFA DUP3 DUP8 DUP8 DUP1 DUP1 PUSH1 0x20 MUL PUSH1 0x20 ADD PUSH1 0x40 MLOAD SWAP1 DUP2 ADD PUSH1 0x40 MSTORE DUP1 SWAP4 SWAP3 SWAP2 SWAP1 DUP2 DUP2 MSTORE PUSH1 0x20 ADD DUP4 DUP4 PUSH1 0x20 MUL DUP1 DUP3 DUP5 CALLDATACOPY PUSH1 0x0 DUP2 DUP5 ADD MSTORE PUSH1 0x1F NOT PUSH1 0x1F DUP3 ADD AND SWAP1 POP DUP1 DUP4 ADD SWAP3 POP POP POP POP POP POP POP DUP7 PUSH2 0x28EF JUMP JUMPDEST POP SWAP7 SWAP6 POP POP POP POP POP POP JUMP JUMPDEST PUSH1 0x60 DUP2 TIMESTAMP DUP2 LT ISZERO PUSH2 0xD4B JUMPI PUSH1 0x40 MLOAD PUSH32 0x8C379A000000000000000000000000000000000000000000000000000000000 DUP2 MSTORE PUSH1 0x4 ADD PUSH2 0xD42 SWAP1 PUSH2 0x3CDE JUMP JUMPDEST PUSH1 0x40 MLOAD DUP1 SWAP2 SUB SWAP1 REVERT JUMPDEST PUSH32 0x0 PUSH20 0xFFFFFFFFFFFFFFFFFFFFFFFFFFFFFFFFFFFFFFFF AND DUP7 DUP7 PUSH1 0x1 DUP10 DUP10 SWAP1 POP PUSH2 0xD94 SWAP2 SWAP1 PUSH2 0x3D2D JUMP JUMPDEST DUP2 DUP2 LT PUSH2 0xDA4 JUMPI PUSH2 0xDA3 PUSH2 0x3D61 JUMP JUMPDEST JUMPDEST SWAP1 POP PUSH1 0x20 MUL ADD PUSH1 0x20 DUP2 ADD SWAP1 PUSH2 0xDB9 SWAP2 SWAP1 PUSH2 0x3D90 JUMP JUMPDEST PUSH20 0xFFFFFFFFFFFFFFFFFFFFFFFFFFFFFFFFFFFFFFFF AND EQ PUSH2 0xE0F JUMPI PUSH1 0x40 MLOAD PUSH32 0x8C379A000000000000000000000000000000000000000000000000000000000 DUP2 MSTORE PUSH1 0x4 ADD PUSH2 0xE06 SWAP1 PUSH2 0x3E09 JUMP JUMPDEST PUSH1 0x40 MLOAD DUP1 SWAP2 SUB SWAP1 REVERT JUMPDEST PUSH2 0xE7B PUSH32 0x0 DUP10 DUP9 DUP9 DUP1 DUP1 PUSH1 0x20 MUL PUSH1 0x20 ADD PUSH1 0x40 MLOAD SWAP1 DUP2 ADD PUSH1 0x40 MSTORE DUP1 SWAP4 SWAP3 SWAP2 SWAP1 DUP2 DUP2 MSTORE PUSH1 0x20 ADD DUP4 DUP4 PUSH1 0x20 MUL DUP1 DUP3 DUP5 CALLDATACOPY PUSH1 0x0 DUP2 DUP5 ADD MSTORE PUSH1 0x1F NOT PUSH1 0x1F DUP3 ADD AND SWAP1 POP DUP1 DUP4 ADD SWAP3 POP POP POP POP POP POP POP PUSH2 0x2B48 JUMP JUMPDEST SWAP2 POP DUP7 DUP3 PUSH1 0x0 DUP2 MLOAD DUP2 LT PUSH2 0xE92 JUMPI PUSH2 0xE91 PUSH2 0x3D61 JUMP JUMPDEST JUMPDEST PUSH1 0x20 MUL PUSH1 0x20 ADD ADD MLOAD GT ISZERO PUSH2 0xEDB JUMPI PUSH1 0x40 MLOAD PUSH32 0x8C379A000000000000000000000000000000000000000000000000000000000 DUP2 MSTORE PUSH1 0x4 ADD PUSH2 0xED2 SWAP1 PUSH2 0x3F07 JUMP JUMPDEST PUSH1 0x40 MLOAD DUP1 SWAP2 SUB SWAP1 REVERT JUMPDEST PUSH2 0xFA4 DUP7 DUP7 PUSH1 0x0 DUP2 DUP2 LT PUSH2 0xEF2 JUMPI PUSH2 0xEF1 PUSH2 0x3D61 JUMP JUMPDEST JUMPDEST SWAP1 POP PUSH1 0x20 MUL ADD PUSH1 0x20 DUP2 ADD SWAP1 PUSH2 0xF07 SWAP2 SWAP1 PUSH2 0x3D90 JUMP JUMPDEST CALLER PUSH2 0xF83 PUSH32 0x0 DUP11 DUP11 PUSH1 0x0 DUP2 DUP2 LT PUSH2 0xF40 JUMPI PUSH2 0xF3F PUSH2 0x3D61 JUMP JUMPDEST JUMPDEST SWAP1 POP PUSH1 0x20 MUL ADD PUSH1 0x20 DUP2 ADD SWAP1 PUSH2 0xF55 SWAP2 SWAP1 PUSH2 0x3D90 JUMP JUMPDEST DUP12 DUP12 PUSH1 0x1 DUP2 DUP2 LT PUSH2 0xF69 JUMPI PUSH2 0xF68 PUSH2 0x3D61 JUMP JUMPDEST JUMPDEST SWAP1 POP PUSH1 0x20 MUL ADD PUSH1 0x20 DUP2 ADD SWAP1 PUSH2 0xF7E SWAP2 SWAP1 PUSH2 0x3D90 JUMP JUMPDEST PUSH2 0x271C JUMP JUMPDEST DUP6 PUSH1 0x0 DUP2 MLOAD DUP2 LT PUSH2 0xF97 JUMPI PUSH2 0xF96 PUSH2 0x3D61 JUMP JUMPDEST JUMPDEST PUSH1 0x20 MUL PUSH1 0x20 ADD ADD MLOAD PUSH2 0x27B6 JUMP JUMPDEST PUSH2 0xFF0 DUP3 DUP8 DUP8 DUP1 DUP1 PUSH1 0x20 MUL PUSH1 0x20 ADD PUSH1 0x40 MLOAD SWAP1 DUP2 ADD PUSH1 0x40 MSTORE DUP1 SWAP4 SWAP3 SWAP2 SWAP1 DUP2 DUP2 MSTORE PUSH1 0x20 ADD DUP4 DUP4 PUSH1 0x20 MUL DUP1 DUP3 DUP5 CALLDATACOPY PUSH1 0x0 DUP2 DUP5 ADD MSTORE PUSH1 0x1F NOT PUSH1 0x1F DUP3 ADD AND SWAP1 POP DUP1 DUP4 ADD SWAP3 POP POP POP POP POP POP POP ADDRESS PUSH2 0x28EF JUMP JUMPDEST PUSH32 0x0 PUSH20 0xFFFFFFFFFFFFFFFFFFFFFFFFFFFFFFFFFFFFFFFF AND PUSH4 0x2E1A7D4D DUP4 PUSH1 0x1 DUP6 MLOAD PUSH2 0x103B SWAP2 SWAP1 PUSH2 0x3D2D JUMP JUMPDEST DUP2 MLOAD DUP2 LT PUSH2 0x104C JUMPI PUSH2 0x104B PUSH2 0x3D61 JUMP JUMPDEST JUMPDEST PUSH1 0x20 MUL PUSH1 0x20 ADD ADD MLOAD PUSH1 0x40 MLOAD DUP3 PUSH4 0xFFFFFFFF AND PUSH1 0xE0 SHL DUP2 MSTORE PUSH1 0x4 ADD PUSH2 0x1070 SWAP2 SWAP1 PUSH2 0x369B JUMP JUMPDEST PUSH1 0x0 PUSH1 0x40 MLOAD DUP1 DUP4 SUB DUP2 PUSH1 0x0 DUP8 DUP1 EXTCODESIZE ISZERO DUP1 ISZERO PUSH2 0x108A JUMPI PUSH1 0x0 DUP1 REVERT JUMPDEST POP GAS CALL ISZERO DUP1 ISZERO PUSH2 0x109E JUMPI RETURNDATASIZE PUSH1 0x0 DUP1 RETURNDATACOPY RETURNDATASIZE PUSH1 0x0 REVERT JUMPDEST POP POP POP POP PUSH2 0x10D3 DUP5 DUP4 PUSH1 0x1 DUP6 MLOAD PUSH2 0x10B5 SWAP2 SWAP1 PUSH2 0x3D2D JUMP JUMPDEST DUP2 MLOAD DUP2 LT PUSH2 0x10C6 JUMPI PUSH2 0x10C5 PUSH2 0x3D61 JUMP JUMPDEST JUMPDEST PUSH1 0x20 MUL PUSH1 0x20 ADD ADD MLOAD PUSH2 0x238B JUMP JUMPDEST POP SWAP7 SWAP6 POP POP POP POP POP POP JUMP JUMPDEST PUSH1 0x60 DUP2 TIMESTAMP DUP2 LT ISZERO PUSH2 0x1124 JUMPI PUSH1 0x40 MLOAD PUSH32 0x8C379A000000000000000000000000000000000000000000000000000000000 DUP2 MSTORE PUSH1 0x4 ADD PUSH2 0x111B SWAP1 PUSH2 0x3CDE JUMP JUMPDEST PUSH1 0x40 MLOAD DUP1 SWAP2 SUB SWAP1 REVERT JUMPDEST PUSH32 0x0 PUSH20 0xFFFFFFFFFFFFFFFFFFFFFFFFFFFFFFFFFFFFFFFF AND DUP7 DUP7 PUSH1 0x0 DUP2 DUP2 LT PUSH2 0x116F JUMPI PUSH2 0x116E PUSH2 0x3D61 JUMP JUMPDEST JUMPDEST SWAP1 POP PUSH1 0x20 MUL ADD PUSH1 0x20 DUP2 ADD SWAP1 PUSH2 0x1184 SWAP2 SWAP1 PUSH2 0x3D90 JUMP JUMPDEST PUSH20 0xFFFFFFFFFFFFFFFFFFFFFFFFFFFFFFFFFFFFFFFF AND EQ PUSH2 0x11DA JUMPI PUSH1 0x40 MLOAD PUSH32 0x8C379A000000000000000000000000000000000000000000000000000000000 DUP2 MSTORE PUSH1 0x4 ADD PUSH2 0x11D1 SWAP1 PUSH2 0x3E09 JUMP JUMPDEST PUSH1 0x40 MLOAD DUP1 SWAP2 SUB SWAP1 REVERT JUMPDEST PUSH2 0x1246 PUSH32 0x0 CALLVALUE DUP9 DUP9 DUP1 DUP1 PUSH1 0x20 MUL PUSH1 0x20 ADD PUSH1 0x40 MLOAD SWAP1 DUP2 ADD PUSH1 0x40 MSTORE DUP1 SWAP4 SWAP3 SWAP2 SWAP1 DUP2 DUP2 MSTORE PUSH1 0x20 ADD DUP4 DUP4 PUSH1 0x20 MUL DUP1 DUP3 DUP5 CALLDATACOPY PUSH1 0x0 DUP2 DUP5 ADD MSTORE PUSH1 0x1F NOT PUSH1 0x1F DUP3 ADD AND SWAP1 POP DUP1 DUP4 ADD SWAP3 POP POP POP POP POP POP POP PUSH2 0x2591 JUMP JUMPDEST SWAP2 POP DUP7 DUP3 PUSH1 0x1 DUP5 MLOAD PUSH2 0x1258 SWAP2 SWAP1 PUSH2 0x3D2D JUMP JUMPDEST DUP2 MLOAD DUP2 LT PUSH2 0x1269 JUMPI PUSH2 0x1268 PUSH2 0x3D61 JUMP JUMPDEST JUMPDEST PUSH1 0x20 MUL PUSH1 0x20 ADD ADD MLOAD LT ISZERO PUSH2 0x12B2 JUMPI PUSH1 0x40 MLOAD PUSH32 0x8C379A000000000000000000000000000000000000000000000000000000000 DUP2 MSTORE PUSH1 0x4 ADD PUSH2 0x12A9 SWAP1 PUSH2 0x3E9B JUMP JUMPDEST PUSH1 0x40 MLOAD DUP1 SWAP2 SUB SWAP1 REVERT JUMPDEST PUSH32 0x0 PUSH20 0xFFFFFFFFFFFFFFFFFFFFFFFFFFFFFFFFFFFFFFFF AND PUSH4 0xD0E30DB0 DUP4 PUSH1 0x0 DUP2 MLOAD DUP2 LT PUSH2 0x1302 JUMPI PUSH2 0x1301 PUSH2 0x3D61 JUMP JUMPDEST JUMPDEST PUSH1 0x20 MUL PUSH1 0x20 ADD ADD MLOAD PUSH1 0x40 MLOAD DUP3 PUSH4 0xFFFFFFFF AND PUSH1 0xE0 SHL DUP2 MSTORE PUSH1 0x4 ADD PUSH1 0x0 PUSH1 0x40 MLOAD DUP1 DUP4 SUB DUP2 DUP6 DUP9 DUP1 EXTCODESIZE ISZERO DUP1 ISZERO PUSH2 0x1335 JUMPI PUSH1 0x0 DUP1 REVERT JUMPDEST POP GAS CALL ISZERO DUP1 ISZERO PUSH2 0x1349 JUMPI RETURNDATASIZE PUSH1 0x0 DUP1 RETURNDATACOPY RETURNDATASIZE PUSH1 0x0 REVERT JUMPDEST POP POP POP POP POP PUSH32 0x0 PUSH20 0xFFFFFFFFFFFFFFFFFFFFFFFFFFFFFFFFFFFFFFFF AND PUSH4 0xA9059CBB PUSH2 0x1405 PUSH32 0x0 DUP10 DUP10 PUSH1 0x0 DUP2 DUP2 LT PUSH2 0x13C2 JUMPI PUSH2 0x13C1 PUSH2 0x3D61 JUMP JUMPDEST JUMPDEST SWAP1 POP PUSH1 0x20 MUL ADD PUSH1 0x20 DUP2 ADD SWAP1 PUSH2 0x13D7 SWAP2 SWAP1 PUSH2 0x3D90 JUMP JUMPDEST DUP11 DUP11 PUSH1 0x1 DUP2 DUP2 LT PUSH2 0x13EB JUMPI PUSH2 0x13EA PUSH2 0x3D61 JUMP JUMPDEST JUMPDEST SWAP1 POP PUSH1 0x20 MUL ADD PUSH1 0x20 DUP2 ADD SWAP1 PUSH2 0x1400 SWAP2 SWAP1 PUSH2 0x3D90 JUMP JUMPDEST PUSH2 0x271C JUMP JUMPDEST DUP5 PUSH1 0x0 DUP2 MLOAD DUP2 LT PUSH2 0x1419 JUMPI PUSH2 0x1418 PUSH2 0x3D61 JUMP JUMPDEST JUMPDEST PUSH1 0x20 MUL PUSH1 0x20 ADD ADD MLOAD PUSH1 0x40 MLOAD DUP4 PUSH4 0xFFFFFFFF AND PUSH1 0xE0 SHL DUP2 MSTORE PUSH1 0x4 ADD PUSH2 0x143E SWAP3 SWAP2 SWAP1 PUSH2 0x3F27 JUMP JUMPDEST PUSH1 0x20 PUSH1 0x40 MLOAD DUP1 DUP4 SUB DUP2 PUSH1 0x0 DUP8 GAS CALL ISZERO DUP1 ISZERO PUSH2 0x145D JUMPI RETURNDATASIZE PUSH1 0x0 DUP1 RETURNDATACOPY RETURNDATASIZE PUSH1 0x0 REVERT JUMPDEST POP POP POP POP PUSH1 0x40 MLOAD RETURNDATASIZE PUSH1 0x1F NOT PUSH1 0x1F DUP3 ADD AND DUP3 ADD DUP1 PUSH1 0x40 MSTORE POP DUP2 ADD SWAP1 PUSH2 0x1481 SWAP2 SWAP1 PUSH2 0x3F88 JUMP JUMPDEST PUSH2 0x148E JUMPI PUSH2 0x148D PUSH2 0x34AC JUMP JUMPDEST JUMPDEST PUSH2 0x14DA DUP3 DUP8 DUP8 DUP1 DUP1 PUSH1 0x20 MUL PUSH1 0x20 ADD PUSH1 0x40 MLOAD SWAP1 DUP2 ADD PUSH1 0x40 MSTORE DUP1 SWAP4 SWAP3 SWAP2 SWAP1 DUP2 DUP2 MSTORE PUSH1 0x20 ADD DUP4 DUP4 PUSH1 0x20 MUL DUP1 DUP3 DUP5 CALLDATACOPY PUSH1 0x0 DUP2 DUP5 ADD MSTORE PUSH1 0x1F NOT PUSH1 0x1F DUP3 ADD AND SWAP1 POP DUP1 DUP4 ADD SWAP3 POP POP POP POP POP POP POP DUP7 PUSH2 0x28EF JUMP JUMPDEST POP SWAP6 SWAP5 POP POP POP POP POP JUMP JUMPDEST PUSH1 0x0 PUSH2 0x14F1 DUP5 DUP5 DUP5 PUSH2 0x2CE3 JUMP JUMPDEST SWAP1 POP SWAP4 SWAP3 POP POP POP JUMP JUMPDEST PUSH1 0x60 DUP2 TIMESTAMP DUP2 LT ISZERO PUSH2 0x1540 JUMPI PUSH1 0x40 MLOAD PUSH32 0x8C379A000000000000000000000000000000000000000000000000000000000 DUP2 MSTORE PUSH1 0x4 ADD PUSH2 0x1537 SWAP1 PUSH2 0x3CDE JUMP JUMPDEST PUSH1 0x40 MLOAD DUP1 SWAP2 SUB SWAP1 REVERT JUMPDEST PUSH2 0x15AC PUSH32 0x0 DUP10 DUP9 DUP9 DUP1 DUP1 PUSH1 0x20 MUL PUSH1 0x20 ADD PUSH1 0x40 MLOAD SWAP1 DUP2 ADD PUSH1 0x40 MSTORE DUP1 SWAP4 SWAP3 SWAP2 SWAP1 DUP2 DUP2 MSTORE PUSH1 0x20 ADD DUP4 DUP4 PUSH1 0x20 MUL DUP1 DUP3 DUP5 CALLDATACOPY PUSH1 0x0 DUP2 DUP5 ADD MSTORE PUSH1 0x1F NOT PUSH1 0x1F DUP3 ADD AND SWAP1 POP DUP1 DUP4 ADD SWAP3 POP POP POP POP POP POP POP PUSH2 0x2B48 JUMP JUMPDEST SWAP2 POP DUP7 DUP3 PUSH1 0x0 DUP2 MLOAD DUP2 LT PUSH2 0x15C3 JUMPI PUSH2 0x15C2 PUSH2 0x3D61 JUMP JUMPDEST JUMPDEST PUSH1 0x20 MUL PUSH1 0x20 ADD ADD MLOAD GT ISZERO PUSH2 0x160C JUMPI PUSH1 0x40 MLOAD PUSH32 0x8C379A000000000000000000000000000000000000000000000000000000000 DUP2 MSTORE PUSH1 0x4 ADD PUSH2 0x1603 SWAP1 PUSH2 0x3F07 JUMP JUMPDEST PUSH1 0x40 MLOAD DUP1 SWAP2 SUB SWAP1 REVERT JUMPDEST PUSH2 0x16D5 DUP7 DUP7 PUSH1 0x0 DUP2 DUP2 LT PUSH2 0x1623 JUMPI PUSH2 0x1622 PUSH2 0x3D61 JUMP JUMPDEST JUMPDEST SWAP1 POP PUSH1 0x20 MUL ADD PUSH1 0x20 DUP2 ADD SWAP1 PUSH2 0x1638 SWAP2 SWAP1 PUSH2 0x3D90 JUMP JUMPDEST CALLER PUSH2 0x16B4 PUSH32 0x0 DUP11 DUP11 PUSH1 0x0 DUP2 DUP2 LT PUSH2 0x1671 JUMPI PUSH2 0x1670 PUSH2 0x3D61 JUMP JUMPDEST JUMPDEST SWAP1 POP PUSH1 0x20 MUL ADD PUSH1 0x20 DUP2 ADD SWAP1 PUSH2 0x1686 SWAP2 SWAP1 PUSH2 0x3D90 JUMP JUMPDEST DUP12 DUP12 PUSH1 0x1 DUP2 DUP2 LT PUSH2 0x169A JUMPI PUSH2 0x1699 PUSH2 0x3D61 JUMP JUMPDEST JUMPDEST SWAP1 POP PUSH1 0x20 MUL ADD PUSH1 0x20 DUP2 ADD SWAP1 PUSH2 0x16AF SWAP2 SWAP1 PUSH2 0x3D90 JUMP JUMPDEST PUSH2 0x271C JUMP JUMPDEST DUP6 PUSH1 0x0 DUP2 MLOAD DUP2 LT PUSH2 0x16C8 JUMPI PUSH2 0x16C7 PUSH2 0x3D61 JUMP JUMPDEST JUMPDEST PUSH1 0x20 MUL PUSH1 0x20 ADD ADD MLOAD PUSH2 0x27B6 JUMP JUMPDEST PUSH2 0x1721 DUP3 DUP8 DUP8 DUP1 DUP1 PUSH1 0x20 MUL PUSH1 0x20 ADD PUSH1 0x40 MLOAD SWAP1 DUP2 ADD PUSH1 0x40 MSTORE DUP1 SWAP4 SWAP3 SWAP2 SWAP1 DUP2 DUP2 MSTORE PUSH1 0x20 ADD DUP4 DUP4 PUSH1 0x20 MUL DUP1 DUP3 DUP5 CALLDATACOPY PUSH1 0x0 DUP2 DUP5 ADD MSTORE PUSH1 0x1F NOT PUSH1 0x1F DUP3 ADD AND SWAP1 POP DUP1 DUP4 ADD SWAP3 POP POP POP POP POP POP POP DUP7 PUSH2 0x28EF JUMP JUMPDEST POP SWAP7 SWAP6 POP POP POP POP POP POP JUMP JUMPDEST PUSH32 0x0 DUP2 JUMP JUMPDEST PUSH1 0x0 PUSH2 0x175D DUP5 DUP5 DUP5 PUSH2 0x2DF6 JUMP JUMPDEST SWAP1 POP SWAP4 SWAP3 POP POP POP JUMP JUMPDEST PUSH1 0x0 DUP1 DUP3 TIMESTAMP DUP2 LT ISZERO PUSH2 0x17AD JUMPI PUSH1 0x40 MLOAD PUSH32 0x8C379A000000000000000000000000000000000000000000000000000000000 DUP2 MSTORE PUSH1 0x4 ADD PUSH2 0x17A4 SWAP1 PUSH2 0x3CDE JUMP JUMPDEST PUSH1 0x40 MLOAD DUP1 SWAP2 SUB SWAP1 REVERT JUMPDEST PUSH1 0x0 PUSH2 0x17DA PUSH32 0x0 DUP13 DUP13 PUSH2 0x271C JUMP JUMPDEST SWAP1 POP DUP1 PUSH20 0xFFFFFFFFFFFFFFFFFFFFFFFFFFFFFFFFFFFFFFFF AND PUSH4 0x23B872DD CALLER DUP4 DUP13 PUSH1 0x40 MLOAD DUP5 PUSH4 0xFFFFFFFF AND PUSH1 0xE0 SHL DUP2 MSTORE PUSH1 0x4 ADD PUSH2 0x1819 SWAP4 SWAP3 SWAP2 SWAP1 PUSH2 0x3FB5 JUMP JUMPDEST PUSH1 0x20 PUSH1 0x40 MLOAD DUP1 DUP4 SUB DUP2 PUSH1 0x0 DUP8 GAS CALL ISZERO DUP1 ISZERO PUSH2 0x1838 JUMPI RETURNDATASIZE PUSH1 0x0 DUP1 RETURNDATACOPY RETURNDATASIZE PUSH1 0x0 REVERT JUMPDEST POP POP POP POP PUSH1 0x40 MLOAD RETURNDATASIZE PUSH1 0x1F NOT PUSH1 0x1F DUP3 ADD AND DUP3 ADD DUP1 PUSH1 0x40 MSTORE POP DUP2 ADD SWAP1 PUSH2 0x185C SWAP2 SWAP1 PUSH2 0x3F88 JUMP JUMPDEST POP PUSH1 0x0 DUP1 DUP3 PUSH20 0xFFFFFFFFFFFFFFFFFFFFFFFFFFFFFFFFFFFFFFFF AND PUSH4 0x89AFCB44 DUP10 PUSH1 0x40 MLOAD DUP3 PUSH4 0xFFFFFFFF AND PUSH1 0xE0 SHL DUP2 MSTORE PUSH1 0x4 ADD PUSH2 0x1899 SWAP2 SWAP1 PUSH2 0x3AD7 JUMP JUMPDEST PUSH1 0x40 DUP1 MLOAD DUP1 DUP4 SUB DUP2 PUSH1 0x0 DUP8 GAS CALL ISZERO DUP1 ISZERO PUSH2 0x18B7 JUMPI RETURNDATASIZE PUSH1 0x0 DUP1 RETURNDATACOPY RETURNDATASIZE PUSH1 0x0 REVERT JUMPDEST POP POP POP POP PUSH1 0x40 MLOAD RETURNDATASIZE PUSH1 0x1F NOT PUSH1 0x1F DUP3 ADD AND DUP3 ADD DUP1 PUSH1 0x40 MSTORE POP DUP2 ADD SWAP1 PUSH2 0x18DB SWAP2 SWAP1 PUSH2 0x4001 JUMP JUMPDEST SWAP2 POP SWAP2 POP PUSH1 0x0 PUSH2 0x18EB DUP15 DUP15 PUSH2 0x2EB0 JUMP JUMPDEST POP SWAP1 POP DUP1 PUSH20 0xFFFFFFFFFFFFFFFFFFFFFFFFFFFFFFFFFFFFFFFF AND DUP15 PUSH20 0xFFFFFFFFFFFFFFFFFFFFFFFFFFFFFFFFFFFFFFFF AND EQ PUSH2 0x1928 JUMPI DUP2 DUP4 PUSH2 0x192B JUMP JUMPDEST DUP3 DUP3 JUMPDEST DUP1 SWAP8 POP DUP2 SWAP9 POP POP POP DUP11 DUP8 LT ISZERO PUSH2 0x1976 JUMPI PUSH1 0x40 MLOAD PUSH32 0x8C379A000000000000000000000000000000000000000000000000000000000 DUP2 MSTORE PUSH1 0x4 ADD PUSH2 0x196D SWAP1 PUSH2 0x408D JUMP JUMPDEST PUSH1 0x40 MLOAD DUP1 SWAP2 SUB SWAP1 REVERT JUMPDEST DUP10 DUP7 LT ISZERO PUSH2 0x19B9 JUMPI PUSH1 0x40 MLOAD PUSH32 0x8C379A000000000000000000000000000000000000000000000000000000000 DUP2 MSTORE PUSH1 0x4 ADD PUSH2 0x19B0 SWAP1 PUSH2 0x40F9 JUMP JUMPDEST PUSH1 0x40 MLOAD DUP1 SWAP2 SUB SWAP1 REVERT JUMPDEST POP POP POP POP POP SWAP8 POP SWAP8 SWAP6 POP POP POP POP POP POP JUMP JUMPDEST PUSH32 0x0 DUP2 JUMP JUMPDEST PUSH1 0x60 PUSH2 0x1A1B PUSH32 0x0 DUP5 DUP5 PUSH2 0x2591 JUMP JUMPDEST SWAP1 POP SWAP3 SWAP2 POP POP JUMP JUMPDEST PUSH1 0x0 DUP1 PUSH1 0x0 DUP4 TIMESTAMP DUP2 LT ISZERO PUSH2 0x1A6C JUMPI PUSH1 0x40 MLOAD PUSH32 0x8C379A000000000000000000000000000000000000000000000000000000000 DUP2 MSTORE PUSH1 0x4 ADD PUSH2 0x1A63 SWAP1 PUSH2 0x3CDE JUMP JUMPDEST PUSH1 0x40 MLOAD DUP1 SWAP2 SUB SWAP1 REVERT JUMPDEST PUSH2 0x1A7A DUP13 DUP13 DUP13 DUP13 DUP13 DUP13 PUSH2 0x2FDC JUMP JUMPDEST DUP1 SWAP5 POP DUP2 SWAP6 POP POP POP PUSH1 0x0 PUSH2 0x1AAF PUSH32 0x0 DUP15 DUP15 PUSH2 0x271C JUMP JUMPDEST SWAP1 POP PUSH2 0x1ABD DUP14 CALLER DUP4 DUP9 PUSH2 0x27B6 JUMP JUMPDEST PUSH2 0x1AC9 DUP13 CALLER DUP4 DUP8 PUSH2 0x27B6 JUMP JUMPDEST DUP1 PUSH20 0xFFFFFFFFFFFFFFFFFFFFFFFFFFFFFFFFFFFFFFFF AND PUSH4 0x6A627842 DUP9 PUSH1 0x40 MLOAD DUP3 PUSH4 0xFFFFFFFF AND PUSH1 0xE0 SHL DUP2 MSTORE PUSH1 0x4 ADD PUSH2 0x1B02 SWAP2 SWAP1 PUSH2 0x3AD7 JUMP JUMPDEST PUSH1 0x20 PUSH1 0x40 MLOAD DUP1 DUP4 SUB DUP2 PUSH1 0x0 DUP8 GAS CALL ISZERO DUP1 ISZERO PUSH2 0x1B21 JUMPI RETURNDATASIZE PUSH1 0x0 DUP1 RETURNDATACOPY RETURNDATASIZE PUSH1 0x0 REVERT JUMPDEST POP POP POP POP PUSH1 0x40 MLOAD RETURNDATASIZE PUSH1 0x1F NOT PUSH1 0x1F DUP3 ADD AND DUP3 ADD DUP1 PUSH1 0x40 MSTORE POP DUP2 ADD SWAP1 PUSH2 0x1B45 SWAP2 SWAP1 PUSH2 0x4119 JUMP JUMPDEST SWAP3 POP POP POP SWAP9 POP SWAP9 POP SWAP9 SWAP6 POP POP POP POP POP POP JUMP JUMPDEST PUSH1 0x0 DUP1 PUSH1 0x0 DUP4 TIMESTAMP DUP2 LT ISZERO PUSH2 0x1BA0 JUMPI PUSH1 0x40 MLOAD PUSH32 0x8C379A000000000000000000000000000000000000000000000000000000000 DUP2 MSTORE PUSH1 0x4 ADD PUSH2 0x1B97 SWAP1 PUSH2 0x3CDE JUMP JUMPDEST PUSH1 0x40 MLOAD DUP1 SWAP2 SUB SWAP1 REVERT JUMPDEST PUSH2 0x1BCE DUP11 PUSH32 0x0 DUP12 CALLVALUE DUP13 DUP13 PUSH2 0x2FDC JUMP JUMPDEST DUP1 SWAP5 POP DUP2 SWAP6 POP POP POP PUSH1 0x0 PUSH2 0x1C23 PUSH32 0x0 DUP13 PUSH32 0x0 PUSH2 0x271C JUMP JUMPDEST SWAP1 POP PUSH2 0x1C31 DUP12 CALLER DUP4 DUP9 PUSH2 0x27B6 JUMP JUMPDEST PUSH32 0x0 PUSH20 0xFFFFFFFFFFFFFFFFFFFFFFFFFFFFFFFFFFFFFFFF AND PUSH4 0xD0E30DB0 DUP6 PUSH1 0x40 MLOAD DUP3 PUSH4 0xFFFFFFFF AND PUSH1 0xE0 SHL DUP2 MSTORE PUSH1 0x4 ADD PUSH1 0x0 PUSH1 0x40 MLOAD DUP1 DUP4 SUB DUP2 DUP6 DUP9 DUP1 EXTCODESIZE ISZERO DUP1 ISZERO PUSH2 0x1C99 JUMPI PUSH1 0x0 DUP1 REVERT JUMPDEST POP GAS CALL ISZERO DUP1 ISZERO PUSH2 0x1CAD JUMPI RETURNDATASIZE PUSH1 0x0 DUP1 RETURNDATACOPY RETURNDATASIZE PUSH1 0x0 REVERT JUMPDEST POP POP POP POP POP PUSH32 0x0 PUSH20 0xFFFFFFFFFFFFFFFFFFFFFFFFFFFFFFFFFFFFFFFF AND PUSH4 0xA9059CBB DUP3 DUP7 PUSH1 0x40 MLOAD DUP4 PUSH4 0xFFFFFFFF AND PUSH1 0xE0 SHL DUP2 MSTORE PUSH1 0x4 ADD PUSH2 0x1D0D SWAP3 SWAP2 SWAP1 PUSH2 0x3F27 JUMP JUMPDEST PUSH1 0x20 PUSH1 0x40 MLOAD DUP1 DUP4 SUB DUP2 PUSH1 0x0 DUP8 GAS CALL ISZERO DUP1 ISZERO PUSH2 0x1D2C JUMPI RETURNDATASIZE PUSH1 0x0 DUP1 RETURNDATACOPY RETURNDATASIZE PUSH1 0x0 REVERT JUMPDEST POP POP POP POP PUSH1 0x40 MLOAD RETURNDATASIZE PUSH1 0x1F NOT PUSH1 0x1F DUP3 ADD AND DUP3 ADD DUP1 PUSH1 0x40 MSTORE POP DUP2 ADD SWAP1 PUSH2 0x1D50 SWAP2 SWAP1 PUSH2 0x3F88 JUMP JUMPDEST PUSH2 0x1D5D JUMPI PUSH2 0x1D5C PUSH2 0x34AC JUMP JUMPDEST JUMPDEST DUP1 PUSH20 0xFFFFFFFFFFFFFFFFFFFFFFFFFFFFFFFFFFFFFFFF AND PUSH4 0x6A627842 DUP9 PUSH1 0x40 MLOAD DUP3 PUSH4 0xFFFFFFFF AND PUSH1 0xE0 SHL DUP2 MSTORE PUSH1 0x4 ADD PUSH2 0x1D96 SWAP2 SWAP1 PUSH2 0x3AD7 JUMP JUMPDEST PUSH1 0x20 PUSH1 0x40 MLOAD DUP1 DUP4 SUB DUP2 PUSH1 0x0 DUP8 GAS CALL ISZERO DUP1 ISZERO PUSH2 0x1DB5 JUMPI RETURNDATASIZE PUSH1 0x0 DUP1 RETURNDATACOPY RETURNDATASIZE PUSH1 0x0 REVERT JUMPDEST POP POP POP POP PUSH1 0x40 MLOAD RETURNDATASIZE PUSH1 0x1F NOT PUSH1 0x1F DUP3 ADD AND DUP3 ADD DUP1 PUSH1 0x40 MSTORE POP DUP2 ADD SWAP1 PUSH2 0x1DD9 SWAP2 SWAP1 PUSH2 0x4119 JUMP JUMPDEST SWAP3 POP DUP4 CALLVALUE GT ISZERO PUSH2 0x1DF9 JUMPI PUSH2 0x1DF8 CALLER DUP6 CALLVALUE PUSH2 0x1DF3 SWAP2 SWAP1 PUSH2 0x3D2D JUMP JUMPDEST PUSH2 0x238B JUMP JUMPDEST JUMPDEST POP POP SWAP7 POP SWAP7 POP SWAP7 SWAP4 POP POP POP POP JUMP JUMPDEST PUSH1 0x60 DUP2 TIMESTAMP DUP2 LT ISZERO PUSH2 0x1E4D JUMPI PUSH1 0x40 MLOAD PUSH32 0x8C379A000000000000000000000000000000000000000000000000000000000 DUP2 MSTORE PUSH1 0x4 ADD PUSH2 0x1E44 SWAP1 PUSH2 0x3CDE JUMP JUMPDEST PUSH1 0x40 MLOAD DUP1 SWAP2 SUB SWAP1 REVERT JUMPDEST PUSH32 0x0 PUSH20 0xFFFFFFFFFFFFFFFFFFFFFFFFFFFFFFFFFFFFFFFF AND DUP7 DUP7 PUSH1 0x0 DUP2 DUP2 LT PUSH2 0x1E98 JUMPI PUSH2 0x1E97 PUSH2 0x3D61 JUMP JUMPDEST JUMPDEST SWAP1 POP PUSH1 0x20 MUL ADD PUSH1 0x20 DUP2 ADD SWAP1 PUSH2 0x1EAD SWAP2 SWAP1 PUSH2 0x3D90 JUMP JUMPDEST PUSH20 0xFFFFFFFFFFFFFFFFFFFFFFFFFFFFFFFFFFFFFFFF AND EQ PUSH2 0x1F03 JUMPI PUSH1 0x40 MLOAD PUSH32 0x8C379A000000000000000000000000000000000000000000000000000000000 DUP2 MSTORE PUSH1 0x4 ADD PUSH2 0x1EFA SWAP1 PUSH2 0x3E09 JUMP JUMPDEST PUSH1 0x40 MLOAD DUP1 SWAP2 SUB SWAP1 REVERT JUMPDEST PUSH2 0x1F6F PUSH32 0x0 DUP9 DUP9 DUP9 DUP1 DUP1 PUSH1 0x20 MUL PUSH1 0x20 ADD PUSH1 0x40 MLOAD SWAP1 DUP2 ADD PUSH1 0x40 MSTORE DUP1 SWAP4 SWAP3 SWAP2 SWAP1 DUP2 DUP2 MSTORE PUSH1 0x20 ADD DUP4 DUP4 PUSH1 0x20 MUL DUP1 DUP3 DUP5 CALLDATACOPY PUSH1 0x0 DUP2 DUP5 ADD MSTORE PUSH1 0x1F NOT PUSH1 0x1F DUP3 ADD AND SWAP1 POP DUP1 DUP4 ADD SWAP3 POP POP POP POP POP POP POP PUSH2 0x2B48 JUMP JUMPDEST SWAP2 POP CALLVALUE DUP3 PUSH1 0x0 DUP2 MLOAD DUP2 LT PUSH2 0x1F86 JUMPI PUSH2 0x1F85 PUSH2 0x3D61 JUMP JUMPDEST JUMPDEST PUSH1 0x20 MUL PUSH1 0x20 ADD ADD MLOAD GT ISZERO PUSH2 0x1FCF JUMPI PUSH1 0x40 MLOAD PUSH32 0x8C379A000000000000000000000000000000000000000000000000000000000 DUP2 MSTORE PUSH1 0x4 ADD PUSH2 0x1FC6 SWAP1 PUSH2 0x3F07 JUMP JUMPDEST PUSH1 0x40 MLOAD DUP1 SWAP2 SUB SWAP1 REVERT JUMPDEST PUSH32 0x0 PUSH20 0xFFFFFFFFFFFFFFFFFFFFFFFFFFFFFFFFFFFFFFFF AND PUSH4 0xD0E30DB0 DUP4 PUSH1 0x0 DUP2 MLOAD DUP2 LT PUSH2 0x201F JUMPI PUSH2 0x201E PUSH2 0x3D61 JUMP JUMPDEST JUMPDEST PUSH1 0x20 MUL PUSH1 0x20 ADD ADD MLOAD PUSH1 0x40 MLOAD DUP3 PUSH4 0xFFFFFFFF AND PUSH1 0xE0 SHL DUP2 MSTORE PUSH1 0x4 ADD PUSH1 0x0 PUSH1 0x40 MLOAD DUP1 DUP4 SUB DUP2 DUP6 DUP9 DUP1 EXTCODESIZE ISZERO DUP1 ISZERO PUSH2 0x2052 JUMPI PUSH1 0x0 DUP1 REVERT JUMPDEST POP GAS CALL ISZERO DUP1 ISZERO PUSH2 0x2066 JUMPI RETURNDATASIZE PUSH1 0x0 DUP1 RETURNDATACOPY RETURNDATASIZE PUSH1 0x0 REVERT JUMPDEST POP POP POP POP POP PUSH32 0x0 PUSH20 0xFFFFFFFFFFFFFFFFFFFFFFFFFFFFFFFFFFFFFFFF AND PUSH4 0xA9059CBB PUSH2 0x2122 PUSH32 0x0 DUP10 DUP10 PUSH1 0x0 DUP2 DUP2 LT PUSH2 0x20DF JUMPI PUSH2 0x20DE PUSH2 0x3D61 JUMP JUMPDEST JUMPDEST SWAP1 POP PUSH1 0x20 MUL ADD PUSH1 0x20 DUP2 ADD SWAP1 PUSH2 0x20F4 SWAP2 SWAP1 PUSH2 0x3D90 JUMP JUMPDEST DUP11 DUP11 PUSH1 0x1 DUP2 DUP2 LT PUSH2 0x2108 JUMPI PUSH2 0x2107 PUSH2 0x3D61 JUMP JUMPDEST JUMPDEST SWAP1 POP PUSH1 0x20 MUL ADD PUSH1 0x20 DUP2 ADD SWAP1 PUSH2 0x211D SWAP2 SWAP1 PUSH2 0x3D90 JUMP JUMPDEST PUSH2 0x271C JUMP JUMPDEST DUP5 PUSH1 0x0 DUP2 MLOAD DUP2 LT PUSH2 0x2136 JUMPI PUSH2 0x2135 PUSH2 0x3D61 JUMP JUMPDEST JUMPDEST PUSH1 0x20 MUL PUSH1 0x20 ADD ADD MLOAD PUSH1 0x40 MLOAD DUP4 PUSH4 0xFFFFFFFF AND PUSH1 0xE0 SHL DUP2 MSTORE PUSH1 0x4 ADD PUSH2 0x215B SWAP3 SWAP2 SWAP1 PUSH2 0x3F27 JUMP JUMPDEST PUSH1 0x20 PUSH1 0x40 MLOAD DUP1 DUP4 SUB DUP2 PUSH1 0x0 DUP8 GAS CALL ISZERO DUP1 ISZERO PUSH2 0x217A JUMPI RETURNDATASIZE PUSH1 0x0 DUP1 RETURNDATACOPY RETURNDATASIZE PUSH1 0x0 REVERT JUMPDEST POP POP POP POP PUSH1 0x40 MLOAD RETURNDATASIZE PUSH1 0x1F NOT PUSH1 0x1F DUP3 ADD AND DUP3 ADD DUP1 PUSH1 0x40 MSTORE POP DUP2 ADD SWAP1 PUSH2 0x219E SWAP2 SWAP1 PUSH2 0x3F88 JUMP JUMPDEST PUSH2 0x21AB JUMPI PUSH2 0x21AA PUSH2 0x34AC JUMP JUMPDEST JUMPDEST PUSH2 0x21F7 DUP3 DUP8 DUP8 DUP1 DUP1 PUSH1 0x20 MUL PUSH1 0x20 ADD PUSH1 0x40 MLOAD SWAP1 DUP2 ADD PUSH1 0x40 MSTORE DUP1 SWAP4 SWAP3 SWAP2 SWAP1 DUP2 DUP2 MSTORE PUSH1 0x20 ADD DUP4 DUP4 PUSH1 0x20 MUL DUP1 DUP3 DUP5 CALLDATACOPY PUSH1 0x0 DUP2 DUP5 ADD MSTORE PUSH1 0x1F NOT PUSH1 0x1F DUP3 ADD AND SWAP1 POP DUP1 DUP4 ADD SWAP3 POP POP POP POP POP POP POP DUP7 PUSH2 0x28EF JUMP JUMPDEST DUP2 PUSH1 0x0 DUP2 MLOAD DUP2 LT PUSH2 0x220B JUMPI PUSH2 0x220A PUSH2 0x3D61 JUMP JUMPDEST JUMPDEST PUSH1 0x20 MUL PUSH1 0x20 ADD ADD MLOAD CALLVALUE GT ISZERO PUSH2 0x224B JUMPI PUSH2 0x224A CALLER DUP4 PUSH1 0x0 DUP2 MLOAD DUP2 LT PUSH2 0x2232 JUMPI PUSH2 0x2231 PUSH2 0x3D61 JUMP JUMPDEST JUMPDEST PUSH1 0x20 MUL PUSH1 0x20 ADD ADD MLOAD CALLVALUE PUSH2 0x2245 SWAP2 SWAP1 PUSH2 0x3D2D JUMP JUMPDEST PUSH2 0x238B JUMP JUMPDEST JUMPDEST POP SWAP6 SWAP5 POP POP POP POP POP JUMP JUMPDEST PUSH1 0x0 DUP1 DUP5 PUSH20 0xFFFFFFFFFFFFFFFFFFFFFFFFFFFFFFFFFFFFFFFF AND PUSH4 0xA9059CBB DUP6 DUP6 PUSH1 0x40 MLOAD PUSH1 0x24 ADD PUSH2 0x2287 SWAP3 SWAP2 SWAP1 PUSH2 0x3F27 JUMP JUMPDEST PUSH1 0x40 MLOAD PUSH1 0x20 DUP2 DUP4 SUB SUB DUP2 MSTORE SWAP1 PUSH1 0x40 MSTORE SWAP1 PUSH1 0xE0 SHL PUSH1 0x20 DUP3 ADD DUP1 MLOAD PUSH28 0xFFFFFFFFFFFFFFFFFFFFFFFFFFFFFFFFFFFFFFFFFFFFFFFFFFFFFFFF DUP4 DUP2 DUP4 AND OR DUP4 MSTORE POP POP POP POP PUSH1 0x40 MLOAD PUSH2 0x22D5 SWAP2 SWAP1 PUSH2 0x41C0 JUMP JUMPDEST PUSH1 0x0 PUSH1 0x40 MLOAD DUP1 DUP4 SUB DUP2 PUSH1 0x0 DUP7 GAS CALL SWAP2 POP POP RETURNDATASIZE DUP1 PUSH1 0x0 DUP2 EQ PUSH2 0x2312 JUMPI PUSH1 0x40 MLOAD SWAP2 POP PUSH1 0x1F NOT PUSH1 0x3F RETURNDATASIZE ADD AND DUP3 ADD PUSH1 0x40 MSTORE RETURNDATASIZE DUP3 MSTORE RETURNDATASIZE PUSH1 0x0 PUSH1 0x20 DUP5 ADD RETURNDATACOPY PUSH2 0x2317 JUMP JUMPDEST PUSH1 0x60 SWAP2 POP JUMPDEST POP SWAP2 POP SWAP2 POP DUP2 DUP1 ISZERO PUSH2 0x2345 JUMPI POP PUSH1 0x0 DUP2 MLOAD EQ DUP1 PUSH2 0x2344 JUMPI POP DUP1 DUP1 PUSH1 0x20 ADD SWAP1 MLOAD DUP2 ADD SWAP1 PUSH2 0x2343 SWAP2 SWAP1 PUSH2 0x3F88 JUMP JUMPDEST JUMPDEST JUMPDEST PUSH2 0x2384 JUMPI PUSH1 0x40 MLOAD PUSH32 0x8C379A000000000000000000000000000000000000000000000000000000000 DUP2 MSTORE PUSH1 0x4 ADD PUSH2 0x237B SWAP1 PUSH2 0x4249 JUMP JUMPDEST PUSH1 0x40 MLOAD DUP1 SWAP2 SUB SWAP1 REVERT JUMPDEST POP POP POP POP POP JUMP JUMPDEST PUSH1 0x0 DUP3 PUSH20 0xFFFFFFFFFFFFFFFFFFFFFFFFFFFFFFFFFFFFFFFF AND DUP3 PUSH1 0x0 PUSH8 0xFFFFFFFFFFFFFFFF DUP2 GT ISZERO PUSH2 0x23C0 JUMPI PUSH2 0x23BF PUSH2 0x38A6 JUMP JUMPDEST JUMPDEST PUSH1 0x40 MLOAD SWAP1 DUP1 DUP3 MSTORE DUP1 PUSH1 0x1F ADD PUSH1 0x1F NOT AND PUSH1 0x20 ADD DUP3 ADD PUSH1 0x40 MSTORE DUP1 ISZERO PUSH2 0x23F2 JUMPI DUP2 PUSH1 0x20 ADD PUSH1 0x1 DUP3 MUL DUP1 CALLDATASIZE DUP4 CALLDATACOPY DUP1 DUP3 ADD SWAP2 POP POP SWAP1 POP JUMPDEST POP PUSH1 0x40 MLOAD PUSH2 0x2400 SWAP2 SWAP1 PUSH2 0x41C0 JUMP JUMPDEST PUSH1 0x0 PUSH1 0x40 MLOAD DUP1 DUP4 SUB DUP2 DUP6 DUP8 GAS CALL SWAP3 POP POP POP RETURNDATASIZE DUP1 PUSH1 0x0 DUP2 EQ PUSH2 0x243D JUMPI PUSH1 0x40 MLOAD SWAP2 POP PUSH1 0x1F NOT PUSH1 0x3F RETURNDATASIZE ADD AND DUP3 ADD PUSH1 0x40 MSTORE RETURNDATASIZE DUP3 MSTORE RETURNDATASIZE PUSH1 0x0 PUSH1 0x20 DUP5 ADD RETURNDATACOPY PUSH2 0x2442 JUMP JUMPDEST PUSH1 0x60 SWAP2 POP JUMPDEST POP POP SWAP1 POP DUP1 PUSH2 0x2486 JUMPI PUSH1 0x40 MLOAD PUSH32 0x8C379A000000000000000000000000000000000000000000000000000000000 DUP2 MSTORE PUSH1 0x4 ADD PUSH2 0x247D SWAP1 PUSH2 0x42DB JUMP JUMPDEST PUSH1 0x40 MLOAD DUP1 SWAP2 SUB SWAP1 REVERT JUMPDEST POP POP POP JUMP JUMPDEST PUSH1 0x0 DUP1 DUP5 GT PUSH2 0x24CF JUMPI PUSH1 0x40 MLOAD PUSH32 0x8C379A000000000000000000000000000000000000000000000000000000000 DUP2 MSTORE PUSH1 0x4 ADD PUSH2 0x24C6 SWAP1 PUSH2 0x436D JUMP JUMPDEST PUSH1 0x40 MLOAD DUP1 SWAP2 SUB SWAP1 REVERT JUMPDEST PUSH1 0x0 DUP4 GT DUP1 ISZERO PUSH2 0x24DF JUMPI POP PUSH1 0x0 DUP3 GT JUMPDEST PUSH2 0x251E JUMPI PUSH1 0x40 MLOAD PUSH32 0x8C379A000000000000000000000000000000000000000000000000000000000 DUP2 MSTORE PUSH1 0x4 ADD PUSH2 0x2515 SWAP1 PUSH2 0x43D9 JUMP JUMPDEST PUSH1 0x40 MLOAD DUP1 SWAP2 SUB SWAP1 REVERT JUMPDEST PUSH1 0x0 PUSH2 0x2535 PUSH2 0x3E5 DUP7 PUSH2 0x328A SWAP1 SWAP2 SWAP1 PUSH4 0xFFFFFFFF AND JUMP JUMPDEST SWAP1 POP PUSH1 0x0 PUSH2 0x254C DUP5 DUP4 PUSH2 0x328A SWAP1 SWAP2 SWAP1 PUSH4 0xFFFFFFFF AND JUMP JUMPDEST SWAP1 POP PUSH1 0x0 PUSH2 0x2577 DUP4 PUSH2 0x2569 PUSH2 0x3E8 DUP10 PUSH2 0x328A SWAP1 SWAP2 SWAP1 PUSH4 0xFFFFFFFF AND JUMP JUMPDEST PUSH2 0x32F7 SWAP1 SWAP2 SWAP1 PUSH4 0xFFFFFFFF AND JUMP JUMPDEST SWAP1 POP DUP1 DUP3 PUSH2 0x2585 SWAP2 SWAP1 PUSH2 0x4428 JUMP JUMPDEST SWAP4 POP POP POP POP SWAP4 SWAP3 POP POP POP JUMP JUMPDEST PUSH1 0x60 PUSH1 0x2 DUP3 MLOAD LT ISZERO PUSH2 0x25D8 JUMPI PUSH1 0x40 MLOAD PUSH32 0x8C379A000000000000000000000000000000000000000000000000000000000 DUP2 MSTORE PUSH1 0x4 ADD PUSH2 0x25CF SWAP1 PUSH2 0x44A5 JUMP JUMPDEST PUSH1 0x40 MLOAD DUP1 SWAP2 SUB SWAP1 REVERT JUMPDEST DUP2 MLOAD PUSH8 0xFFFFFFFFFFFFFFFF DUP2 GT ISZERO PUSH2 0x25F3 JUMPI PUSH2 0x25F2 PUSH2 0x38A6 JUMP JUMPDEST JUMPDEST PUSH1 0x40 MLOAD SWAP1 DUP1 DUP3 MSTORE DUP1 PUSH1 0x20 MUL PUSH1 0x20 ADD DUP3 ADD PUSH1 0x40 MSTORE DUP1 ISZERO PUSH2 0x2621 JUMPI DUP2 PUSH1 0x20 ADD PUSH1 0x20 DUP3 MUL DUP1 CALLDATASIZE DUP4 CALLDATACOPY DUP1 DUP3 ADD SWAP2 POP POP SWAP1 POP JUMPDEST POP SWAP1 POP DUP3 DUP2 PUSH1 0x0 DUP2 MLOAD DUP2 LT PUSH2 0x2639 JUMPI PUSH2 0x2638 PUSH2 0x3D61 JUMP JUMPDEST JUMPDEST PUSH1 0x20 MUL PUSH1 0x20 ADD ADD DUP2 DUP2 MSTORE POP POP PUSH1 0x0 JUMPDEST PUSH1 0x1 DUP4 MLOAD PUSH2 0x2656 SWAP2 SWAP1 PUSH2 0x3D2D JUMP JUMPDEST DUP2 LT ISZERO PUSH2 0x2714 JUMPI PUSH1 0x0 DUP1 PUSH2 0x26AB DUP8 DUP7 DUP6 DUP2 MLOAD DUP2 LT PUSH2 0x2677 JUMPI PUSH2 0x2676 PUSH2 0x3D61 JUMP JUMPDEST JUMPDEST PUSH1 0x20 MUL PUSH1 0x20 ADD ADD MLOAD DUP8 PUSH1 0x1 DUP8 PUSH2 0x268D SWAP2 SWAP1 PUSH2 0x44C5 JUMP JUMPDEST DUP2 MLOAD DUP2 LT PUSH2 0x269E JUMPI PUSH2 0x269D PUSH2 0x3D61 JUMP JUMPDEST JUMPDEST PUSH1 0x20 MUL PUSH1 0x20 ADD ADD MLOAD PUSH2 0x3350 JUMP JUMPDEST SWAP2 POP SWAP2 POP PUSH2 0x26D4 DUP5 DUP5 DUP2 MLOAD DUP2 LT PUSH2 0x26C5 JUMPI PUSH2 0x26C4 PUSH2 0x3D61 JUMP JUMPDEST JUMPDEST PUSH1 0x20 MUL PUSH1 0x20 ADD ADD MLOAD DUP4 DUP4 PUSH2 0x248B JUMP JUMPDEST DUP5 PUSH1 0x1 DUP6 PUSH2 0x26E2 SWAP2 SWAP1 PUSH2 0x44C5 JUMP JUMPDEST DUP2 MLOAD DUP2 LT PUSH2 0x26F3 JUMPI PUSH2 0x26F2 PUSH2 0x3D61 JUMP JUMPDEST JUMPDEST PUSH1 0x20 MUL PUSH1 0x20 ADD ADD DUP2 DUP2 MSTORE POP POP POP POP DUP1 DUP1 PUSH2 0x270C SWAP1 PUSH2 0x451B JUMP JUMPDEST SWAP2 POP POP PUSH2 0x2648 JUMP JUMPDEST POP SWAP4 SWAP3 POP POP POP JUMP JUMPDEST PUSH1 0x0 DUP1 PUSH1 0x0 PUSH2 0x272B DUP6 DUP6 PUSH2 0x2EB0 JUMP JUMPDEST SWAP2 POP SWAP2 POP DUP6 PUSH20 0xFFFFFFFFFFFFFFFFFFFFFFFFFFFFFFFFFFFFFFFF AND PUSH4 0xE6A43905 DUP4 DUP4 PUSH1 0x40 MLOAD DUP4 PUSH4 0xFFFFFFFF AND PUSH1 0xE0 SHL DUP2 MSTORE PUSH1 0x4 ADD PUSH2 0x276A SWAP3 SWAP2 SWAP1 PUSH2 0x4563 JUMP JUMPDEST PUSH1 0x20 PUSH1 0x40 MLOAD DUP1 DUP4 SUB DUP2 DUP7 GAS STATICCALL ISZERO DUP1 ISZERO PUSH2 0x2787 JUMPI RETURNDATASIZE PUSH1 0x0 DUP1 RETURNDATACOPY RETURNDATASIZE PUSH1 0x0 REVERT JUMPDEST POP POP POP POP PUSH1 0x40 MLOAD RETURNDATASIZE PUSH1 0x1F NOT PUSH1 0x1F DUP3 ADD AND DUP3 ADD DUP1 PUSH1 0x40 MSTORE POP DUP2 ADD SWAP1 PUSH2 0x27AB SWAP2 SWAP1 PUSH2 0x45A1 JUMP JUMPDEST SWAP3 POP POP POP SWAP4 SWAP3 POP POP POP JUMP JUMPDEST PUSH1 0x0 DUP1 DUP6 PUSH20 0xFFFFFFFFFFFFFFFFFFFFFFFFFFFFFFFFFFFFFFFF AND PUSH4 0x23B872DD DUP7 DUP7 DUP7 PUSH1 0x40 MLOAD PUSH1 0x24 ADD PUSH2 0x27EA SWAP4 SWAP3 SWAP2 SWAP1 PUSH2 0x3FB5 JUMP JUMPDEST PUSH1 0x40 MLOAD PUSH1 0x20 DUP2 DUP4 SUB SUB DUP2 MSTORE SWAP1 PUSH1 0x40 MSTORE SWAP1 PUSH1 0xE0 SHL PUSH1 0x20 DUP3 ADD DUP1 MLOAD PUSH28 0xFFFFFFFFFFFFFFFFFFFFFFFFFFFFFFFFFFFFFFFFFFFFFFFFFFFFFFFF DUP4 DUP2 DUP4 AND OR DUP4 MSTORE POP POP POP POP PUSH1 0x40 MLOAD PUSH2 0x2838 SWAP2 SWAP1 PUSH2 0x41C0 JUMP JUMPDEST PUSH1 0x0 PUSH1 0x40 MLOAD DUP1 DUP4 SUB DUP2 PUSH1 0x0 DUP7 GAS CALL SWAP2 POP POP RETURNDATASIZE DUP1 PUSH1 0x0 DUP2 EQ PUSH2 0x2875 JUMPI PUSH1 0x40 MLOAD SWAP2 POP PUSH1 0x1F NOT PUSH1 0x3F RETURNDATASIZE ADD AND DUP3 ADD PUSH1 0x40 MSTORE RETURNDATASIZE DUP3 MSTORE RETURNDATASIZE PUSH1 0x0 PUSH1 0x20 DUP5 ADD RETURNDATACOPY PUSH2 0x287A JUMP JUMPDEST PUSH1 0x60 SWAP2 POP JUMPDEST POP SWAP2 POP SWAP2 POP DUP2 DUP1 ISZERO PUSH2 0x28A8 JUMPI POP PUSH1 0x0 DUP2 MLOAD EQ DUP1 PUSH2 0x28A7 JUMPI POP DUP1 DUP1 PUSH1 0x20 ADD SWAP1 MLOAD DUP2 ADD SWAP1 PUSH2 0x28A6 SWAP2 SWAP1 PUSH2 0x3F88 JUMP JUMPDEST JUMPDEST JUMPDEST PUSH2 0x28E7 JUMPI PUSH1 0x40 MLOAD PUSH32 0x8C379A000000000000000000000000000000000000000000000000000000000 DUP2 MSTORE PUSH1 0x4 ADD PUSH2 0x28DE SWAP1 PUSH2 0x4640 JUMP JUMPDEST PUSH1 0x40 MLOAD DUP1 SWAP2 SUB SWAP1 REVERT JUMPDEST POP POP POP POP POP POP JUMP JUMPDEST PUSH1 0x0 JUMPDEST PUSH1 0x1 DUP4 MLOAD PUSH2 0x2900 SWAP2 SWAP1 PUSH2 0x3D2D JUMP JUMPDEST DUP2 LT ISZERO PUSH2 0x2B42 JUMPI PUSH1 0x0 DUP1 DUP5 DUP4 DUP2 MLOAD DUP2 LT PUSH2 0x291D JUMPI PUSH2 0x291C PUSH2 0x3D61 JUMP JUMPDEST JUMPDEST PUSH1 0x20 MUL PUSH1 0x20 ADD ADD MLOAD DUP6 PUSH1 0x1 DUP6 PUSH2 0x2933 SWAP2 SWAP1 PUSH2 0x44C5 JUMP JUMPDEST DUP2 MLOAD DUP2 LT PUSH2 0x2944 JUMPI PUSH2 0x2943 PUSH2 0x3D61 JUMP JUMPDEST JUMPDEST PUSH1 0x20 MUL PUSH1 0x20 ADD ADD MLOAD SWAP2 POP SWAP2 POP PUSH1 0x0 PUSH2 0x295C DUP4 DUP4 PUSH2 0x2EB0 JUMP JUMPDEST POP SWAP1 POP PUSH1 0x0 DUP8 PUSH1 0x1 DUP7 PUSH2 0x296F SWAP2 SWAP1 PUSH2 0x44C5 JUMP JUMPDEST DUP2 MLOAD DUP2 LT PUSH2 0x2980 JUMPI PUSH2 0x297F PUSH2 0x3D61 JUMP JUMPDEST JUMPDEST PUSH1 0x20 MUL PUSH1 0x20 ADD ADD MLOAD SWAP1 POP PUSH1 0x0 DUP1 DUP4 PUSH20 0xFFFFFFFFFFFFFFFFFFFFFFFFFFFFFFFFFFFFFFFF AND DUP7 PUSH20 0xFFFFFFFFFFFFFFFFFFFFFFFFFFFFFFFFFFFFFFFF AND EQ PUSH2 0x29C8 JUMPI DUP3 PUSH1 0x0 PUSH2 0x29CC JUMP JUMPDEST PUSH1 0x0 DUP4 JUMPDEST SWAP2 POP SWAP2 POP PUSH1 0x0 PUSH1 0x2 DUP11 MLOAD PUSH2 0x29E0 SWAP2 SWAP1 PUSH2 0x3D2D JUMP JUMPDEST DUP9 LT PUSH2 0x29EC JUMPI DUP9 PUSH2 0x2A3E JUMP JUMPDEST PUSH2 0x2A3D PUSH32 0x0 DUP8 DUP13 PUSH1 0x2 DUP13 PUSH2 0x2A1F SWAP2 SWAP1 PUSH2 0x44C5 JUMP JUMPDEST DUP2 MLOAD DUP2 LT PUSH2 0x2A30 JUMPI PUSH2 0x2A2F PUSH2 0x3D61 JUMP JUMPDEST JUMPDEST PUSH1 0x20 MUL PUSH1 0x20 ADD ADD MLOAD PUSH2 0x271C JUMP JUMPDEST JUMPDEST SWAP1 POP PUSH2 0x2A6B PUSH32 0x0 DUP9 DUP9 PUSH2 0x271C JUMP JUMPDEST PUSH20 0xFFFFFFFFFFFFFFFFFFFFFFFFFFFFFFFFFFFFFFFF AND PUSH4 0x22C0D9F DUP5 DUP5 DUP5 PUSH1 0x0 PUSH8 0xFFFFFFFFFFFFFFFF DUP2 GT ISZERO PUSH2 0x2AA4 JUMPI PUSH2 0x2AA3 PUSH2 0x38A6 JUMP JUMPDEST JUMPDEST PUSH1 0x40 MLOAD SWAP1 DUP1 DUP3 MSTORE DUP1 PUSH1 0x1F ADD PUSH1 0x1F NOT AND PUSH1 0x20 ADD DUP3 ADD PUSH1 0x40 MSTORE DUP1 ISZERO PUSH2 0x2AD6 JUMPI DUP2 PUSH1 0x20 ADD PUSH1 0x1 DUP3 MUL DUP1 CALLDATASIZE DUP4 CALLDATACOPY DUP1 DUP3 ADD SWAP2 POP POP SWAP1 POP JUMPDEST POP PUSH1 0x40 MLOAD DUP6 PUSH4 0xFFFFFFFF AND PUSH1 0xE0 SHL DUP2 MSTORE PUSH1 0x4 ADD PUSH2 0x2AF6 SWAP5 SWAP4 SWAP3 SWAP2 SWAP1 PUSH2 0x46AA JUMP JUMPDEST PUSH1 0x0 PUSH1 0x40 MLOAD DUP1 DUP4 SUB DUP2 PUSH1 0x0 DUP8 DUP1 EXTCODESIZE ISZERO DUP1 ISZERO PUSH2 0x2B10 JUMPI PUSH1 0x0 DUP1 REVERT JUMPDEST POP GAS CALL ISZERO DUP1 ISZERO PUSH2 0x2B24 JUMPI RETURNDATASIZE PUSH1 0x0 DUP1 RETURNDATACOPY RETURNDATASIZE PUSH1 0x0 REVERT JUMPDEST POP POP POP POP POP POP POP POP POP POP POP DUP1 DUP1 PUSH2 0x2B3A SWAP1 PUSH2 0x451B JUMP JUMPDEST SWAP2 POP POP PUSH2 0x28F2 JUMP JUMPDEST POP POP POP POP JUMP JUMPDEST PUSH1 0x60 PUSH1 0x2 DUP3 MLOAD LT ISZERO PUSH2 0x2B8F JUMPI PUSH1 0x40 MLOAD PUSH32 0x8C379A000000000000000000000000000000000000000000000000000000000 DUP2 MSTORE PUSH1 0x4 ADD PUSH2 0x2B86 SWAP1 PUSH2 0x44A5 JUMP JUMPDEST PUSH1 0x40 MLOAD DUP1 SWAP2 SUB SWAP1 REVERT JUMPDEST DUP2 MLOAD PUSH8 0xFFFFFFFFFFFFFFFF DUP2 GT ISZERO PUSH2 0x2BAA JUMPI PUSH2 0x2BA9 PUSH2 0x38A6 JUMP JUMPDEST JUMPDEST PUSH1 0x40 MLOAD SWAP1 DUP1 DUP3 MSTORE DUP1 PUSH1 0x20 MUL PUSH1 0x20 ADD DUP3 ADD PUSH1 0x40 MSTORE DUP1 ISZERO PUSH2 0x2BD8 JUMPI DUP2 PUSH1 0x20 ADD PUSH1 0x20 DUP3 MUL DUP1 CALLDATASIZE DUP4 CALLDATACOPY DUP1 DUP3 ADD SWAP2 POP POP SWAP1 POP JUMPDEST POP SWAP1 POP DUP3 DUP2 PUSH1 0x1 DUP4 MLOAD PUSH2 0x2BEB SWAP2 SWAP1 PUSH2 0x3D2D JUMP JUMPDEST DUP2 MLOAD DUP2 LT PUSH2 0x2BFC JUMPI PUSH2 0x2BFB PUSH2 0x3D61 JUMP JUMPDEST JUMPDEST PUSH1 0x20 MUL PUSH1 0x20 ADD ADD DUP2 DUP2 MSTORE POP POP PUSH1 0x0 PUSH1 0x1 DUP4 MLOAD PUSH2 0x2C18 SWAP2 SWAP1 PUSH2 0x3D2D JUMP JUMPDEST SWAP1 POP JUMPDEST PUSH1 0x0 DUP2 GT ISZERO PUSH2 0x2CDB JUMPI PUSH1 0x0 DUP1 PUSH2 0x2C72 DUP8 DUP7 PUSH1 0x1 DUP7 PUSH2 0x2C39 SWAP2 SWAP1 PUSH2 0x3D2D JUMP JUMPDEST DUP2 MLOAD DUP2 LT PUSH2 0x2C4A JUMPI PUSH2 0x2C49 PUSH2 0x3D61 JUMP JUMPDEST JUMPDEST PUSH1 0x20 MUL PUSH1 0x20 ADD ADD MLOAD DUP8 DUP7 DUP2 MLOAD DUP2 LT PUSH2 0x2C65 JUMPI PUSH2 0x2C64 PUSH2 0x3D61 JUMP JUMPDEST JUMPDEST PUSH1 0x20 MUL PUSH1 0x20 ADD ADD MLOAD PUSH2 0x3350 JUMP JUMPDEST SWAP2 POP SWAP2 POP PUSH2 0x2C9B DUP5 DUP5 DUP2 MLOAD DUP2 LT PUSH2 0x2C8C JUMPI PUSH2 0x2C8B PUSH2 0x3D61 JUMP JUMPDEST JUMPDEST PUSH1 0x20 MUL PUSH1 0x20 ADD ADD MLOAD DUP4 DUP4 PUSH2 0x2CE3 JUMP JUMPDEST DUP5 PUSH1 0x1 DUP6 PUSH2 0x2CA9 SWAP2 SWAP1 PUSH2 0x3D2D JUMP JUMPDEST DUP2 MLOAD DUP2 LT PUSH2 0x2CBA JUMPI PUSH2 0x2CB9 PUSH2 0x3D61 JUMP JUMPDEST JUMPDEST PUSH1 0x20 MUL PUSH1 0x20 ADD ADD DUP2 DUP2 MSTORE POP POP POP POP DUP1 DUP1 PUSH2 0x2CD3 SWAP1 PUSH2 0x46F6 JUMP JUMPDEST SWAP2 POP POP PUSH2 0x2C1B JUMP JUMPDEST POP SWAP4 SWAP3 POP POP POP JUMP JUMPDEST PUSH1 0x0 DUP1 DUP5 GT PUSH2 0x2D27 JUMPI PUSH1 0x40 MLOAD PUSH32 0x8C379A000000000000000000000000000000000000000000000000000000000 DUP2 MSTORE PUSH1 0x4 ADD PUSH2 0x2D1E SWAP1 PUSH2 0x4791 JUMP JUMPDEST PUSH1 0x40 MLOAD DUP1 SWAP2 SUB SWAP1 REVERT JUMPDEST PUSH1 0x0 DUP4 GT DUP1 ISZERO PUSH2 0x2D37 JUMPI POP PUSH1 0x0 DUP3 GT JUMPDEST PUSH2 0x2D76 JUMPI PUSH1 0x40 MLOAD PUSH32 0x8C379A000000000000000000000000000000000000000000000000000000000 DUP2 MSTORE PUSH1 0x4 ADD PUSH2 0x2D6D SWAP1 PUSH2 0x43D9 JUMP JUMPDEST PUSH1 0x40 MLOAD DUP1 SWAP2 SUB SWAP1 REVERT JUMPDEST PUSH1 0x0 PUSH2 0x2D9F PUSH2 0x3E8 PUSH2 0x2D91 DUP8 DUP8 PUSH2 0x328A SWAP1 SWAP2 SWAP1 PUSH4 0xFFFFFFFF AND JUMP JUMPDEST PUSH2 0x328A SWAP1 SWAP2 SWAP1 PUSH4 0xFFFFFFFF AND JUMP JUMPDEST SWAP1 POP PUSH1 0x0 PUSH2 0x2DCA PUSH2 0x3E5 PUSH2 0x2DBC DUP9 DUP8 PUSH2 0x3453 SWAP1 SWAP2 SWAP1 PUSH4 0xFFFFFFFF AND JUMP JUMPDEST PUSH2 0x328A SWAP1 SWAP2 SWAP1 PUSH4 0xFFFFFFFF AND JUMP JUMPDEST SWAP1 POP PUSH2 0x2DEB PUSH1 0x1 DUP3 DUP5 PUSH2 0x2DDD SWAP2 SWAP1 PUSH2 0x4428 JUMP JUMPDEST PUSH2 0x32F7 SWAP1 SWAP2 SWAP1 PUSH4 0xFFFFFFFF AND JUMP JUMPDEST SWAP3 POP POP POP SWAP4 SWAP3 POP POP POP JUMP JUMPDEST PUSH1 0x0 DUP1 DUP5 GT PUSH2 0x2E3A JUMPI PUSH1 0x40 MLOAD PUSH32 0x8C379A000000000000000000000000000000000000000000000000000000000 DUP2 MSTORE PUSH1 0x4 ADD PUSH2 0x2E31 SWAP1 PUSH2 0x47FD JUMP JUMPDEST PUSH1 0x40 MLOAD DUP1 SWAP2 SUB SWAP1 REVERT JUMPDEST PUSH1 0x0 DUP4 GT DUP1 ISZERO PUSH2 0x2E4A JUMPI POP PUSH1 0x0 DUP3 GT JUMPDEST PUSH2 0x2E89 JUMPI PUSH1 0x40 MLOAD PUSH32 0x8C379A000000000000000000000000000000000000000000000000000000000 DUP2 MSTORE PUSH1 0x4 ADD PUSH2 0x2E80 SWAP1 PUSH2 0x43D9 JUMP JUMPDEST PUSH1 0x40 MLOAD DUP1 SWAP2 SUB SWAP1 REVERT JUMPDEST DUP3 PUSH2 0x2E9D DUP4 DUP7 PUSH2 0x328A SWAP1 SWAP2 SWAP1 PUSH4 0xFFFFFFFF AND JUMP JUMPDEST PUSH2 0x2EA7 SWAP2 SWAP1 PUSH2 0x4428 JUMP JUMPDEST SWAP1 POP SWAP4 SWAP3 POP POP POP JUMP JUMPDEST PUSH1 0x0 DUP1 DUP3 PUSH20 0xFFFFFFFFFFFFFFFFFFFFFFFFFFFFFFFFFFFFFFFF AND DUP5 PUSH20 0xFFFFFFFFFFFFFFFFFFFFFFFFFFFFFFFFFFFFFFFF AND SUB PUSH2 0x2F21 JUMPI PUSH1 0x40 MLOAD PUSH32 0x8C379A000000000000000000000000000000000000000000000000000000000 DUP2 MSTORE PUSH1 0x4 ADD PUSH2 0x2F18 SWAP1 PUSH2 0x4869 JUMP JUMPDEST PUSH1 0x40 MLOAD DUP1 SWAP2 SUB SWAP1 REVERT JUMPDEST DUP3 PUSH20 0xFFFFFFFFFFFFFFFFFFFFFFFFFFFFFFFFFFFFFFFF AND DUP5 PUSH20 0xFFFFFFFFFFFFFFFFFFFFFFFFFFFFFFFFFFFFFFFF AND LT PUSH2 0x2F5B JUMPI DUP3 DUP5 PUSH2 0x2F5E JUMP JUMPDEST DUP4 DUP4 JUMPDEST DUP1 SWAP3 POP DUP2 SWAP4 POP POP POP PUSH1 0x0 PUSH20 0xFFFFFFFFFFFFFFFFFFFFFFFFFFFFFFFFFFFFFFFF AND DUP3 PUSH20 0xFFFFFFFFFFFFFFFFFFFFFFFFFFFFFFFFFFFFFFFF AND SUB PUSH2 0x2FD5 JUMPI PUSH1 0x40 MLOAD PUSH32 0x8C379A000000000000000000000000000000000000000000000000000000000 DUP2 MSTORE PUSH1 0x4 ADD PUSH2 0x2FCC SWAP1 PUSH2 0x48D5 JUMP JUMPDEST PUSH1 0x40 MLOAD DUP1 SWAP2 SUB SWAP1 REVERT JUMPDEST SWAP3 POP SWAP3 SWAP1 POP JUMP JUMPDEST PUSH1 0x0 DUP1 PUSH1 0x0 PUSH20 0xFFFFFFFFFFFFFFFFFFFFFFFFFFFFFFFFFFFFFFFF AND PUSH32 0x0 PUSH20 0xFFFFFFFFFFFFFFFFFFFFFFFFFFFFFFFFFFFFFFFF AND PUSH4 0xE6A43905 DUP11 DUP11 PUSH1 0x40 MLOAD DUP4 PUSH4 0xFFFFFFFF AND PUSH1 0xE0 SHL DUP2 MSTORE PUSH1 0x4 ADD PUSH2 0x3052 SWAP3 SWAP2 SWAP1 PUSH2 0x4563 JUMP JUMPDEST PUSH1 0x20 PUSH1 0x40 MLOAD DUP1 DUP4 SUB DUP2 DUP7 GAS STATICCALL ISZERO DUP1 ISZERO PUSH2 0x306F JUMPI RETURNDATASIZE PUSH1 0x0 DUP1 RETURNDATACOPY RETURNDATASIZE PUSH1 0x0 REVERT JUMPDEST POP POP POP POP PUSH1 0x40 MLOAD RETURNDATASIZE PUSH1 0x1F NOT PUSH1 0x1F DUP3 ADD AND DUP3 ADD DUP1 PUSH1 0x40 MSTORE POP DUP2 ADD SWAP1 PUSH2 0x3093 SWAP2 SWAP1 PUSH2 0x45A1 JUMP JUMPDEST PUSH20 0xFFFFFFFFFFFFFFFFFFFFFFFFFFFFFFFFFFFFFFFF AND SUB PUSH2 0x314E JUMPI PUSH32 0x0 PUSH20 0xFFFFFFFFFFFFFFFFFFFFFFFFFFFFFFFFFFFFFFFF AND PUSH4 0xC9C65396 DUP10 DUP10 PUSH1 0x40 MLOAD DUP4 PUSH4 0xFFFFFFFF AND PUSH1 0xE0 SHL DUP2 MSTORE PUSH1 0x4 ADD PUSH2 0x3109 SWAP3 SWAP2 SWAP1 PUSH2 0x4563 JUMP JUMPDEST PUSH1 0x20 PUSH1 0x40 MLOAD DUP1 DUP4 SUB DUP2 PUSH1 0x0 DUP8 GAS CALL ISZERO DUP1 ISZERO PUSH2 0x3128 JUMPI RETURNDATASIZE PUSH1 0x0 DUP1 RETURNDATACOPY RETURNDATASIZE PUSH1 0x0 REVERT JUMPDEST POP POP POP POP PUSH1 0x40 MLOAD RETURNDATASIZE PUSH1 0x1F NOT PUSH1 0x1F DUP3 ADD AND DUP3 ADD DUP1 PUSH1 0x40 MSTORE POP DUP2 ADD SWAP1 PUSH2 0x314C SWAP2 SWAP1 PUSH2 0x45A1 JUMP JUMPDEST POP JUMPDEST PUSH1 0x0 DUP1 PUSH2 0x317C PUSH32 0x0 DUP12 DUP12 PUSH2 0x3350 JUMP JUMPDEST SWAP2 POP SWAP2 POP PUSH1 0x0 DUP3 EQ DUP1 ISZERO PUSH2 0x3190 JUMPI POP PUSH1 0x0 DUP2 EQ JUMPDEST ISZERO PUSH2 0x31A4 JUMPI DUP8 DUP8 DUP1 SWAP5 POP DUP2 SWAP6 POP POP POP PUSH2 0x327D JUMP JUMPDEST PUSH1 0x0 PUSH2 0x31B1 DUP10 DUP5 DUP5 PUSH2 0x2DF6 JUMP JUMPDEST SWAP1 POP DUP8 DUP2 GT PUSH2 0x320C JUMPI DUP6 DUP2 LT ISZERO PUSH2 0x31FD JUMPI PUSH1 0x40 MLOAD PUSH32 0x8C379A000000000000000000000000000000000000000000000000000000000 DUP2 MSTORE PUSH1 0x4 ADD PUSH2 0x31F4 SWAP1 PUSH2 0x4967 JUMP JUMPDEST PUSH1 0x40 MLOAD DUP1 SWAP2 SUB SWAP1 REVERT JUMPDEST DUP9 DUP2 DUP1 SWAP6 POP DUP2 SWAP7 POP POP POP PUSH2 0x327B JUMP JUMPDEST PUSH1 0x0 PUSH2 0x3219 DUP10 DUP5 DUP7 PUSH2 0x2DF6 JUMP JUMPDEST SWAP1 POP DUP10 DUP2 GT ISZERO PUSH2 0x322C JUMPI PUSH2 0x322B PUSH2 0x34AC JUMP JUMPDEST JUMPDEST DUP8 DUP2 LT ISZERO PUSH2 0x326F JUMPI PUSH1 0x40 MLOAD PUSH32 0x8C379A000000000000000000000000000000000000000000000000000000000 DUP2 MSTORE PUSH1 0x4 ADD PUSH2 0x3266 SWAP1 PUSH2 0x408D JUMP JUMPDEST PUSH1 0x40 MLOAD DUP1 SWAP2 SUB SWAP1 REVERT JUMPDEST DUP1 DUP10 DUP1 SWAP7 POP DUP2 SWAP8 POP POP POP POP JUMPDEST POP JUMPDEST POP POP SWAP7 POP SWAP7 SWAP5 POP POP POP POP POP JUMP JUMPDEST PUSH1 0x0 DUP1 DUP3 EQ DUP1 PUSH2 0x32B2 JUMPI POP DUP3 DUP3 DUP4 DUP6 PUSH2 0x32A3 SWAP2 SWAP1 PUSH2 0x4987 JUMP JUMPDEST SWAP3 POP DUP3 PUSH2 0x32B0 SWAP2 SWAP1 PUSH2 0x4428 JUMP JUMPDEST EQ JUMPDEST PUSH2 0x32F1 JUMPI PUSH1 0x40 MLOAD PUSH32 0x8C379A000000000000000000000000000000000000000000000000000000000 DUP2 MSTORE PUSH1 0x4 ADD PUSH2 0x32E8 SWAP1 PUSH2 0x4A2D JUMP JUMPDEST PUSH1 0x40 MLOAD DUP1 SWAP2 SUB SWAP1 REVERT JUMPDEST SWAP3 SWAP2 POP POP JUMP JUMPDEST PUSH1 0x0 DUP3 DUP3 DUP5 PUSH2 0x3306 SWAP2 SWAP1 PUSH2 0x44C5 JUMP JUMPDEST SWAP2 POP DUP2 LT ISZERO PUSH2 0x334A JUMPI PUSH1 0x40 MLOAD PUSH32 0x8C379A000000000000000000000000000000000000000000000000000000000 DUP2 MSTORE PUSH1 0x4 ADD PUSH2 0x3341 SWAP1 PUSH2 0x4A99 JUMP JUMPDEST PUSH1 0x40 MLOAD DUP1 SWAP2 SUB SWAP1 REVERT JUMPDEST SWAP3 SWAP2 POP POP JUMP JUMPDEST PUSH1 0x0 DUP1 PUSH1 0x0 PUSH2 0x335F DUP6 DUP6 PUSH2 0x2EB0 JUMP JUMPDEST POP SWAP1 POP PUSH1 0x0 DUP1 PUSH2 0x3370 DUP9 DUP9 DUP9 PUSH2 0x271C JUMP JUMPDEST PUSH20 0xFFFFFFFFFFFFFFFFFFFFFFFFFFFFFFFFFFFFFFFF AND PUSH4 0x902F1AC PUSH1 0x40 MLOAD DUP2 PUSH4 0xFFFFFFFF AND PUSH1 0xE0 SHL DUP2 MSTORE PUSH1 0x4 ADD PUSH1 0x60 PUSH1 0x40 MLOAD DUP1 DUP4 SUB DUP2 DUP7 GAS STATICCALL ISZERO DUP1 ISZERO PUSH2 0x33BA JUMPI RETURNDATASIZE PUSH1 0x0 DUP1 RETURNDATACOPY RETURNDATASIZE PUSH1 0x0 REVERT JUMPDEST POP POP POP POP PUSH1 0x40 MLOAD RETURNDATASIZE PUSH1 0x1F NOT PUSH1 0x1F DUP3 ADD AND DUP3 ADD DUP1 PUSH1 0x40 MSTORE POP DUP2 ADD SWAP1 PUSH2 0x33DE SWAP2 SWAP1 PUSH2 0x4B3B JUMP JUMPDEST POP PUSH14 0xFFFFFFFFFFFFFFFFFFFFFFFFFFFF AND SWAP2 POP PUSH14 0xFFFFFFFFFFFFFFFFFFFFFFFFFFFF AND SWAP2 POP DUP3 PUSH20 0xFFFFFFFFFFFFFFFFFFFFFFFFFFFFFFFFFFFFFFFF AND DUP8 PUSH20 0xFFFFFFFFFFFFFFFFFFFFFFFFFFFFFFFFFFFFFFFF AND EQ PUSH2 0x343D JUMPI DUP1 DUP3 PUSH2 0x3440 JUMP JUMPDEST DUP2 DUP2 JUMPDEST DUP1 SWAP6 POP DUP2 SWAP7 POP POP POP POP POP POP SWAP4 POP SWAP4 SWAP2 POP POP JUMP JUMPDEST PUSH1 0x0 DUP3 DUP3 DUP5 PUSH2 0x3462 SWAP2 SWAP1 PUSH2 0x3D2D JUMP JUMPDEST SWAP2 POP DUP2 GT ISZERO PUSH2 0x34A6 JUMPI PUSH1 0x40 MLOAD PUSH32 0x8C379A000000000000000000000000000000000000000000000000000000000 DUP2 MSTORE PUSH1 0x4 ADD PUSH2 0x349D SWAP1 PUSH2 0x4BDA JUMP JUMPDEST PUSH1 0x40 MLOAD DUP1 SWAP2 SUB SWAP1 REVERT JUMPDEST SWAP3 SWAP2 POP POP JUMP JUMPDEST PUSH32 0x4E487B7100000000000000000000000000000000000000000000000000000000 PUSH1 0x0 MSTORE PUSH1 0x1 PUSH1 0x4 MSTORE PUSH1 0x24 PUSH1 0x0 REVERT JUMPDEST PUSH1 0x0 PUSH1 0x40 MLOAD SWAP1 POP SWAP1 JUMP JUMPDEST PUSH1 0x0 DUP1 REVERT JUMPDEST PUSH1 0x0 DUP1 REVERT JUMPDEST PUSH1 0x0 PUSH20 0xFFFFFFFFFFFFFFFFFFFFFFFFFFFFFFFFFFFFFFFF DUP3 AND SWAP1 POP SWAP2 SWAP1 POP JUMP JUMPDEST PUSH1 0x0 PUSH2 0x351A DUP3 PUSH2 0x34EF JUMP JUMPDEST SWAP1 POP SWAP2 SWAP1 POP JUMP JUMPDEST PUSH2 0x352A DUP2 PUSH2 0x350F JUMP JUMPDEST DUP2 EQ PUSH2 0x3535 JUMPI PUSH1 0x0 DUP1 REVERT JUMPDEST POP JUMP JUMPDEST PUSH1 0x0 DUP2 CALLDATALOAD SWAP1 POP PUSH2 0x3547 DUP2 PUSH2 0x3521 JUMP JUMPDEST SWAP3 SWAP2 POP POP JUMP JUMPDEST PUSH1 0x0 DUP2 SWAP1 POP SWAP2 SWAP1 POP JUMP JUMPDEST PUSH2 0x3560 DUP2 PUSH2 0x354D JUMP JUMPDEST DUP2 EQ PUSH2 0x356B JUMPI PUSH1 0x0 DUP1 REVERT JUMPDEST POP JUMP JUMPDEST PUSH1 0x0 DUP2 CALLDATALOAD SWAP1 POP PUSH2 0x357D DUP2 PUSH2 0x3557 JUMP JUMPDEST SWAP3 SWAP2 POP POP JUMP JUMPDEST PUSH1 0x0 DUP1 PUSH1 0x0 DUP1 PUSH1 0x0 DUP1 PUSH1 0xC0 DUP8 DUP10 SUB SLT ISZERO PUSH2 0x35A0 JUMPI PUSH2 0x359F PUSH2 0x34E5 JUMP JUMPDEST JUMPDEST PUSH1 0x0 PUSH2 0x35AE DUP10 DUP3 DUP11 ADD PUSH2 0x3538 JUMP JUMPDEST SWAP7 POP POP PUSH1 0x20 PUSH2 0x35BF DUP10 DUP3 DUP11 ADD PUSH2 0x356E JUMP JUMPDEST SWAP6 POP POP PUSH1 0x40 PUSH2 0x35D0 DUP10 DUP3 DUP11 ADD PUSH2 0x356E JUMP JUMPDEST SWAP5 POP POP PUSH1 0x60 PUSH2 0x35E1 DUP10 DUP3 DUP11 ADD PUSH2 0x356E JUMP JUMPDEST SWAP4 POP POP PUSH1 0x80 PUSH2 0x35F2 DUP10 DUP3 DUP11 ADD PUSH2 0x3538 JUMP JUMPDEST SWAP3 POP POP PUSH1 0xA0 PUSH2 0x3603 DUP10 DUP3 DUP11 ADD PUSH2 0x356E JUMP JUMPDEST SWAP2 POP POP SWAP3 SWAP6 POP SWAP3 SWAP6 POP SWAP3 SWAP6 JUMP JUMPDEST PUSH2 0x3619 DUP2 PUSH2 0x354D JUMP JUMPDEST DUP3 MSTORE POP POP JUMP JUMPDEST PUSH1 0x0 PUSH1 0x40 DUP3 ADD SWAP1 POP PUSH2 0x3634 PUSH1 0x0 DUP4 ADD DUP6 PUSH2 0x3610 JUMP JUMPDEST PUSH2 0x3641 PUSH1 0x20 DUP4 ADD DUP5 PUSH2 0x3610 JUMP JUMPDEST SWAP4 SWAP3 POP POP POP JUMP JUMPDEST PUSH1 0x0 DUP1 PUSH1 0x0 PUSH1 0x60 DUP5 DUP7 SUB SLT ISZERO PUSH2 0x3661 JUMPI PUSH2 0x3660 PUSH2 0x34E5 JUMP JUMPDEST JUMPDEST PUSH1 0x0 PUSH2 0x366F DUP7 DUP3 DUP8 ADD PUSH2 0x356E JUMP JUMPDEST SWAP4 POP POP PUSH1 0x20 PUSH2 0x3680 DUP7 DUP3 DUP8 ADD PUSH2 0x356E JUMP JUMPDEST SWAP3 POP POP PUSH1 0x40 PUSH2 0x3691 DUP7 DUP3 DUP8 ADD PUSH2 0x356E JUMP JUMPDEST SWAP2 POP POP SWAP3 POP SWAP3 POP SWAP3 JUMP JUMPDEST PUSH1 0x0 PUSH1 0x20 DUP3 ADD SWAP1 POP PUSH2 0x36B0 PUSH1 0x0 DUP4 ADD DUP5 PUSH2 0x3610 JUMP JUMPDEST SWAP3 SWAP2 POP POP JUMP JUMPDEST PUSH1 0x0 DUP1 REVERT JUMPDEST PUSH1 0x0 DUP1 REVERT JUMPDEST PUSH1 0x0 DUP1 REVERT JUMPDEST PUSH1 0x0 DUP1 DUP4 PUSH1 0x1F DUP5 ADD SLT PUSH2 0x36DB JUMPI PUSH2 0x36DA PUSH2 0x36B6 JUMP JUMPDEST JUMPDEST DUP3 CALLDATALOAD SWAP1 POP PUSH8 0xFFFFFFFFFFFFFFFF DUP2 GT ISZERO PUSH2 0x36F8 JUMPI PUSH2 0x36F7 PUSH2 0x36BB JUMP JUMPDEST JUMPDEST PUSH1 0x20 DUP4 ADD SWAP2 POP DUP4 PUSH1 0x20 DUP3 MUL DUP4 ADD GT ISZERO PUSH2 0x3714 JUMPI PUSH2 0x3713 PUSH2 0x36C0 JUMP JUMPDEST JUMPDEST SWAP3 POP SWAP3 SWAP1 POP JUMP JUMPDEST PUSH1 0x0 DUP1 PUSH1 0x0 DUP1 PUSH1 0x0 DUP1 PUSH1 0xA0 DUP8 DUP10 SUB SLT ISZERO PUSH2 0x3738 JUMPI PUSH2 0x3737 PUSH2 0x34E5 JUMP JUMPDEST JUMPDEST PUSH1 0x0 PUSH2 0x3746 DUP10 DUP3 DUP11 ADD PUSH2 0x356E JUMP JUMPDEST SWAP7 POP POP PUSH1 0x20 PUSH2 0x3757 DUP10 DUP3 DUP11 ADD PUSH2 0x356E JUMP JUMPDEST SWAP6 POP POP PUSH1 0x40 DUP8 ADD CALLDATALOAD PUSH8 0xFFFFFFFFFFFFFFFF DUP2 GT ISZERO PUSH2 0x3778 JUMPI PUSH2 0x3777 PUSH2 0x34EA JUMP JUMPDEST JUMPDEST PUSH2 0x3784 DUP10 DUP3 DUP11 ADD PUSH2 0x36C5 JUMP JUMPDEST SWAP5 POP SWAP5 POP POP PUSH1 0x60 PUSH2 0x3797 DUP10 DUP3 DUP11 ADD PUSH2 0x3538 JUMP JUMPDEST SWAP3 POP POP PUSH1 0x80 PUSH2 0x37A8 DUP10 DUP3 DUP11 ADD PUSH2 0x356E JUMP JUMPDEST SWAP2 POP POP SWAP3 SWAP6 POP SWAP3 SWAP6 POP SWAP3 SWAP6 JUMP JUMPDEST PUSH1 0x0 DUP2 MLOAD SWAP1 POP SWAP2 SWAP1 POP JUMP JUMPDEST PUSH1 0x0 DUP3 DUP3 MSTORE PUSH1 0x20 DUP3 ADD SWAP1 POP SWAP3 SWAP2 POP POP JUMP JUMPDEST PUSH1 0x0 DUP2 SWAP1 POP PUSH1 0x20 DUP3 ADD SWAP1 POP SWAP2 SWAP1 POP JUMP JUMPDEST PUSH2 0x37EA DUP2 PUSH2 0x354D JUMP JUMPDEST DUP3 MSTORE POP POP JUMP JUMPDEST PUSH1 0x0 PUSH2 0x37FC DUP4 DUP4 PUSH2 0x37E1 JUMP JUMPDEST PUSH1 0x20 DUP4 ADD SWAP1 POP SWAP3 SWAP2 POP POP JUMP JUMPDEST PUSH1 0x0 PUSH1 0x20 DUP3 ADD SWAP1 POP SWAP2 SWAP1 POP JUMP JUMPDEST PUSH1 0x0 PUSH2 0x3820 DUP3 PUSH2 0x37B5 JUMP JUMPDEST PUSH2 0x382A DUP2 DUP6 PUSH2 0x37C0 JUMP JUMPDEST SWAP4 POP PUSH2 0x3835 DUP4 PUSH2 0x37D1 JUMP JUMPDEST DUP1 PUSH1 0x0 JUMPDEST DUP4 DUP2 LT ISZERO PUSH2 0x3866 JUMPI DUP2 MLOAD PUSH2 0x384D DUP9 DUP3 PUSH2 0x37F0 JUMP JUMPDEST SWAP8 POP PUSH2 0x3858 DUP4 PUSH2 0x3808 JUMP JUMPDEST SWAP3 POP POP PUSH1 0x1 DUP2 ADD SWAP1 POP PUSH2 0x3839 JUMP JUMPDEST POP DUP6 SWAP4 POP POP POP POP SWAP3 SWAP2 POP POP JUMP JUMPDEST PUSH1 0x0 PUSH1 0x20 DUP3 ADD SWAP1 POP DUP2 DUP2 SUB PUSH1 0x0 DUP4 ADD MSTORE PUSH2 0x388D DUP2 DUP5 PUSH2 0x3815 JUMP JUMPDEST SWAP1 POP SWAP3 SWAP2 POP POP JUMP JUMPDEST PUSH1 0x0 PUSH1 0x1F NOT PUSH1 0x1F DUP4 ADD AND SWAP1 POP SWAP2 SWAP1 POP JUMP JUMPDEST PUSH32 0x4E487B7100000000000000000000000000000000000000000000000000000000 PUSH1 0x0 MSTORE PUSH1 0x41 PUSH1 0x4 MSTORE PUSH1 0x24 PUSH1 0x0 REVERT JUMPDEST PUSH2 0x38DE DUP3 PUSH2 0x3895 JUMP JUMPDEST DUP2 ADD DUP2 DUP2 LT PUSH8 0xFFFFFFFFFFFFFFFF DUP3 GT OR ISZERO PUSH2 0x38FD JUMPI PUSH2 0x38FC PUSH2 0x38A6 JUMP JUMPDEST JUMPDEST DUP1 PUSH1 0x40 MSTORE POP POP POP JUMP JUMPDEST PUSH1 0x0 PUSH2 0x3910 PUSH2 0x34DB JUMP JUMPDEST SWAP1 POP PUSH2 0x391C DUP3 DUP3 PUSH2 0x38D5 JUMP JUMPDEST SWAP2 SWAP1 POP JUMP JUMPDEST PUSH1 0x0 PUSH8 0xFFFFFFFFFFFFFFFF DUP3 GT ISZERO PUSH2 0x393C JUMPI PUSH2 0x393B PUSH2 0x38A6 JUMP JUMPDEST JUMPDEST PUSH1 0x20 DUP3 MUL SWAP1 POP PUSH1 0x20 DUP2 ADD SWAP1 POP SWAP2 SWAP1 POP JUMP JUMPDEST PUSH1 0x0 PUSH2 0x3960 PUSH2 0x395B DUP5 PUSH2 0x3921 JUMP JUMPDEST PUSH2 0x3906 JUMP JUMPDEST SWAP1 POP DUP1 DUP4 DUP3 MSTORE PUSH1 0x20 DUP3 ADD SWAP1 POP PUSH1 0x20 DUP5 MUL DUP4 ADD DUP6 DUP2 GT ISZERO PUSH2 0x3983 JUMPI PUSH2 0x3982 PUSH2 0x36C0 JUMP JUMPDEST JUMPDEST DUP4 JUMPDEST DUP2 DUP2 LT ISZERO PUSH2 0x39AC JUMPI DUP1 PUSH2 0x3998 DUP9 DUP3 PUSH2 0x3538 JUMP JUMPDEST DUP5 MSTORE PUSH1 0x20 DUP5 ADD SWAP4 POP POP PUSH1 0x20 DUP2 ADD SWAP1 POP PUSH2 0x3985 JUMP JUMPDEST POP POP POP SWAP4 SWAP3 POP POP POP JUMP JUMPDEST PUSH1 0x0 DUP3 PUSH1 0x1F DUP4 ADD SLT PUSH2 0x39CB JUMPI PUSH2 0x39CA PUSH2 0x36B6 JUMP JUMPDEST JUMPDEST DUP2 CALLDATALOAD PUSH2 0x39DB DUP5 DUP3 PUSH1 0x20 DUP7 ADD PUSH2 0x394D JUMP JUMPDEST SWAP2 POP POP SWAP3 SWAP2 POP POP JUMP JUMPDEST PUSH1 0x0 DUP1 PUSH1 0x40 DUP4 DUP6 SUB SLT ISZERO PUSH2 0x39FB JUMPI PUSH2 0x39FA PUSH2 0x34E5 JUMP JUMPDEST JUMPDEST PUSH1 0x0 PUSH2 0x3A09 DUP6 DUP3 DUP7 ADD PUSH2 0x356E JUMP JUMPDEST SWAP3 POP POP PUSH1 0x20 DUP4 ADD CALLDATALOAD PUSH8 0xFFFFFFFFFFFFFFFF DUP2 GT ISZERO PUSH2 0x3A2A JUMPI PUSH2 0x3A29 PUSH2 0x34EA JUMP JUMPDEST JUMPDEST PUSH2 0x3A36 DUP6 DUP3 DUP7 ADD PUSH2 0x39B6 JUMP JUMPDEST SWAP2 POP POP SWAP3 POP SWAP3 SWAP1 POP JUMP JUMPDEST PUSH1 0x0 DUP1 PUSH1 0x0 DUP1 PUSH1 0x0 PUSH1 0x80 DUP7 DUP9 SUB SLT ISZERO PUSH2 0x3A5C JUMPI PUSH2 0x3A5B PUSH2 0x34E5 JUMP JUMPDEST JUMPDEST PUSH1 0x0 PUSH2 0x3A6A DUP9 DUP3 DUP10 ADD PUSH2 0x356E JUMP JUMPDEST SWAP6 POP POP PUSH1 0x20 DUP7 ADD CALLDATALOAD PUSH8 0xFFFFFFFFFFFFFFFF DUP2 GT ISZERO PUSH2 0x3A8B JUMPI PUSH2 0x3A8A PUSH2 0x34EA JUMP JUMPDEST JUMPDEST PUSH2 0x3A97 DUP9 DUP3 DUP10 ADD PUSH2 0x36C5 JUMP JUMPDEST SWAP5 POP SWAP5 POP POP PUSH1 0x40 PUSH2 0x3AAA DUP9 DUP3 DUP10 ADD PUSH2 0x3538 JUMP JUMPDEST SWAP3 POP POP PUSH1 0x60 PUSH2 0x3ABB DUP9 DUP3 DUP10 ADD PUSH2 0x356E JUMP JUMPDEST SWAP2 POP POP SWAP3 SWAP6 POP SWAP3 SWAP6 SWAP1 SWAP4 POP JUMP JUMPDEST PUSH2 0x3AD1 DUP2 PUSH2 0x350F JUMP JUMPDEST DUP3 MSTORE POP POP JUMP JUMPDEST PUSH1 0x0 PUSH1 0x20 DUP3 ADD SWAP1 POP PUSH2 0x3AEC PUSH1 0x0 DUP4 ADD DUP5 PUSH2 0x3AC8 JUMP JUMPDEST SWAP3 SWAP2 POP POP JUMP JUMPDEST PUSH1 0x0 DUP1 PUSH1 0x0 DUP1 PUSH1 0x0 DUP1 PUSH1 0x0 PUSH1 0xE0 DUP9 DUP11 SUB SLT ISZERO PUSH2 0x3B11 JUMPI PUSH2 0x3B10 PUSH2 0x34E5 JUMP JUMPDEST JUMPDEST PUSH1 0x0 PUSH2 0x3B1F DUP11 DUP3 DUP12 ADD PUSH2 0x3538 JUMP JUMPDEST SWAP8 POP POP PUSH1 0x20 PUSH2 0x3B30 DUP11 DUP3 DUP12 ADD PUSH2 0x3538 JUMP JUMPDEST SWAP7 POP POP PUSH1 0x40 PUSH2 0x3B41 DUP11 DUP3 DUP12 ADD PUSH2 0x356E JUMP JUMPDEST SWAP6 POP POP PUSH1 0x60 PUSH2 0x3B52 DUP11 DUP3 DUP12 ADD PUSH2 0x356E JUMP JUMPDEST SWAP5 POP POP PUSH1 0x80 PUSH2 0x3B63 DUP11 DUP3 DUP12 ADD PUSH2 0x356E JUMP JUMPDEST SWAP4 POP POP PUSH1 0xA0 PUSH2 0x3B74 DUP11 DUP3 DUP12 ADD PUSH2 0x3538 JUMP JUMPDEST SWAP3 POP POP PUSH1 0xC0 PUSH2 0x3B85 DUP11 DUP3 DUP12 ADD PUSH2 0x356E JUMP JUMPDEST SWAP2 POP POP SWAP3 SWAP6 SWAP9 SWAP2 SWAP5 SWAP8 POP SWAP3 SWAP6 POP JUMP JUMPDEST PUSH1 0x0 DUP1 PUSH1 0x0 DUP1 PUSH1 0x0 DUP1 PUSH1 0x0 DUP1 PUSH2 0x100 DUP10 DUP12 SUB SLT ISZERO PUSH2 0x3BB5 JUMPI PUSH2 0x3BB4 PUSH2 0x34E5 JUMP JUMPDEST JUMPDEST PUSH1 0x0 PUSH2 0x3BC3 DUP12 DUP3 DUP13 ADD PUSH2 0x3538 JUMP JUMPDEST SWAP9 POP POP PUSH1 0x20 PUSH2 0x3BD4 DUP12 DUP3 DUP13 ADD PUSH2 0x3538 JUMP JUMPDEST SWAP8 POP POP PUSH1 0x40 PUSH2 0x3BE5 DUP12 DUP3 DUP13 ADD PUSH2 0x356E JUMP JUMPDEST SWAP7 POP POP PUSH1 0x60 PUSH2 0x3BF6 DUP12 DUP3 DUP13 ADD PUSH2 0x356E JUMP JUMPDEST SWAP6 POP POP PUSH1 0x80 PUSH2 0x3C07 DUP12 DUP3 DUP13 ADD PUSH2 0x356E JUMP JUMPDEST SWAP5 POP POP PUSH1 0xA0 PUSH2 0x3C18 DUP12 DUP3 DUP13 ADD PUSH2 0x356E JUMP JUMPDEST SWAP4 POP POP PUSH1 0xC0 PUSH2 0x3C29 DUP12 DUP3 DUP13 ADD PUSH2 0x3538 JUMP JUMPDEST SWAP3 POP POP PUSH1 0xE0 PUSH2 0x3C3A DUP12 DUP3 DUP13 ADD PUSH2 0x356E JUMP JUMPDEST SWAP2 POP POP SWAP3 SWAP6 SWAP9 POP SWAP3 SWAP6 SWAP9 SWAP1 SWAP4 SWAP7 POP JUMP JUMPDEST PUSH1 0x0 PUSH1 0x60 DUP3 ADD SWAP1 POP PUSH2 0x3C5F PUSH1 0x0 DUP4 ADD DUP7 PUSH2 0x3610 JUMP JUMPDEST PUSH2 0x3C6C PUSH1 0x20 DUP4 ADD DUP6 PUSH2 0x3610 JUMP JUMPDEST PUSH2 0x3C79 PUSH1 0x40 DUP4 ADD DUP5 PUSH2 0x3610 JUMP JUMPDEST SWAP5 SWAP4 POP POP POP POP JUMP JUMPDEST PUSH1 0x0 DUP3 DUP3 MSTORE PUSH1 0x20 DUP3 ADD SWAP1 POP SWAP3 SWAP2 POP POP JUMP JUMPDEST PUSH32 0x526F757465723A20455850495245440000000000000000000000000000000000 PUSH1 0x0 DUP3 ADD MSTORE POP JUMP JUMPDEST PUSH1 0x0 PUSH2 0x3CC8 PUSH1 0xF DUP4 PUSH2 0x3C81 JUMP JUMPDEST SWAP2 POP PUSH2 0x3CD3 DUP3 PUSH2 0x3C92 JUMP JUMPDEST PUSH1 0x20 DUP3 ADD SWAP1 POP SWAP2 SWAP1 POP JUMP JUMPDEST PUSH1 0x0 PUSH1 0x20 DUP3 ADD SWAP1 POP DUP2 DUP2 SUB PUSH1 0x0 DUP4 ADD MSTORE PUSH2 0x3CF7 DUP2 PUSH2 0x3CBB JUMP JUMPDEST SWAP1 POP SWAP2 SWAP1 POP JUMP JUMPDEST PUSH32 0x4E487B7100000000000000000000000000000000000000000000000000000000 PUSH1 0x0 MSTORE PUSH1 0x11 PUSH1 0x4 MSTORE PUSH1 0x24 PUSH1 0x0 REVERT JUMPDEST PUSH1 0x0 PUSH2 0x3D38 DUP3 PUSH2 0x354D JUMP JUMPDEST SWAP2 POP PUSH2 0x3D43 DUP4 PUSH2 0x354D JUMP JUMPDEST SWAP3 POP DUP3 DUP3 LT ISZERO PUSH2 0x3D56 JUMPI PUSH2 0x3D55 PUSH2 0x3CFE JUMP JUMPDEST JUMPDEST DUP3 DUP3 SUB SWAP1 POP SWAP3 SWAP2 POP POP JUMP JUMPDEST PUSH32 0x4E487B7100000000000000000000000000000000000000000000000000000000 PUSH1 0x0 MSTORE PUSH1 0x32 PUSH1 0x4 MSTORE PUSH1 0x24 PUSH1 0x0 REVERT JUMPDEST PUSH1 0x0 PUSH1 0x20 DUP3 DUP5 SUB SLT ISZERO PUSH2 0x3DA6 JUMPI PUSH2 0x3DA5 PUSH2 0x34E5 JUMP JUMPDEST JUMPDEST PUSH1 0x0 PUSH2 0x3DB4 DUP5 DUP3 DUP6 ADD PUSH2 0x3538 JUMP JUMPDEST SWAP2 POP POP SWAP3 SWAP2 POP POP JUMP JUMPDEST PUSH32 0x526F757465723A20494E56414C49445F50415448000000000000000000000000 PUSH1 0x0 DUP3 ADD MSTORE POP JUMP JUMPDEST PUSH1 0x0 PUSH2 0x3DF3 PUSH1 0x14 DUP4 PUSH2 0x3C81 JUMP JUMPDEST SWAP2 POP PUSH2 0x3DFE DUP3 PUSH2 0x3DBD JUMP JUMPDEST PUSH1 0x20 DUP3 ADD SWAP1 POP SWAP2 SWAP1 POP JUMP JUMPDEST PUSH1 0x0 PUSH1 0x20 DUP3 ADD SWAP1 POP DUP2 DUP2 SUB PUSH1 0x0 DUP4 ADD MSTORE PUSH2 0x3E22 DUP2 PUSH2 0x3DE6 JUMP JUMPDEST SWAP1 POP SWAP2 SWAP1 POP JUMP JUMPDEST PUSH32 0x526F757465723A20494E53554646494349454E545F4F55545055545F414D4F55 PUSH1 0x0 DUP3 ADD MSTORE PUSH32 0x4E54000000000000000000000000000000000000000000000000000000000000 PUSH1 0x20 DUP3 ADD MSTORE POP JUMP JUMPDEST PUSH1 0x0 PUSH2 0x3E85 PUSH1 0x22 DUP4 PUSH2 0x3C81 JUMP JUMPDEST SWAP2 POP PUSH2 0x3E90 DUP3 PUSH2 0x3E29 JUMP JUMPDEST PUSH1 0x40 DUP3 ADD SWAP1 POP SWAP2 SWAP1 POP JUMP JUMPDEST PUSH1 0x0 PUSH1 0x20 DUP3 ADD SWAP1 POP DUP2 DUP2 SUB PUSH1 0x0 DUP4 ADD MSTORE PUSH2 0x3EB4 DUP2 PUSH2 0x3E78 JUMP JUMPDEST SWAP1 POP SWAP2 SWAP1 POP JUMP JUMPDEST PUSH32 0x526F757465723A204558434553534956455F494E5055545F414D4F554E540000 PUSH1 0x0 DUP3 ADD MSTORE POP JUMP JUMPDEST PUSH1 0x0 PUSH2 0x3EF1 PUSH1 0x1E DUP4 PUSH2 0x3C81 JUMP JUMPDEST SWAP2 POP PUSH2 0x3EFC DUP3 PUSH2 0x3EBB JUMP JUMPDEST PUSH1 0x20 DUP3 ADD SWAP1 POP SWAP2 SWAP1 POP JUMP JUMPDEST PUSH1 0x0 PUSH1 0x20 DUP3 ADD SWAP1 POP DUP2 DUP2 SUB PUSH1 0x0 DUP4 ADD MSTORE PUSH2 0x3F20 DUP2 PUSH2 0x3EE4 JUMP JUMPDEST SWAP1 POP SWAP2 SWAP1 POP JUMP JUMPDEST PUSH1 0x0 PUSH1 0x40 DUP3 ADD SWAP1 POP PUSH2 0x3F3C PUSH1 0x0 DUP4 ADD DUP6 PUSH2 0x3AC8 JUMP JUMPDEST PUSH2 0x3F49 PUSH1 0x20 DUP4 ADD DUP5 PUSH2 0x3610 JUMP JUMPDEST SWAP4 SWAP3 POP POP POP JUMP JUMPDEST PUSH1 0x0 DUP2 ISZERO ISZERO SWAP1 POP SWAP2 SWAP1 POP JUMP JUMPDEST PUSH2 0x3F65 DUP2 PUSH2 0x3F50 JUMP JUMPDEST DUP2 EQ PUSH2 0x3F70 JUMPI PUSH1 0x0 DUP1 REVERT JUMPDEST POP JUMP JUMPDEST PUSH1 0x0 DUP2 MLOAD SWAP1 POP PUSH2 0x3F82 DUP2 PUSH2 0x3F5C JUMP JUMPDEST SWAP3 SWAP2 POP POP JUMP JUMPDEST PUSH1 0x0 PUSH1 0x20 DUP3 DUP5 SUB SLT ISZERO PUSH2 0x3F9E JUMPI PUSH2 0x3F9D PUSH2 0x34E5 JUMP JUMPDEST JUMPDEST PUSH1 0x0 PUSH2 0x3FAC DUP5 DUP3 DUP6 ADD PUSH2 0x3F73 JUMP JUMPDEST SWAP2 POP POP SWAP3 SWAP2 POP POP JUMP JUMPDEST PUSH1 0x0 PUSH1 0x60 DUP3 ADD SWAP1 POP PUSH2 0x3FCA PUSH1 0x0 DUP4 ADD DUP7 PUSH2 0x3AC8 JUMP JUMPDEST PUSH2 0x3FD7 PUSH1 0x20 DUP4 ADD DUP6 PUSH2 0x3AC8 JUMP JUMPDEST PUSH2 0x3FE4 PUSH1 0x40 DUP4 ADD DUP5 PUSH2 0x3610 JUMP JUMPDEST SWAP5 SWAP4 POP POP POP POP JUMP JUMPDEST PUSH1 0x0 DUP2 MLOAD SWAP1 POP PUSH2 0x3FFB DUP2 PUSH2 0x3557 JUMP JUMPDEST SWAP3 SWAP2 POP POP JUMP JUMPDEST PUSH1 0x0 DUP1 PUSH1 0x40 DUP4 DUP6 SUB SLT ISZERO PUSH2 0x4018 JUMPI PUSH2 0x4017 PUSH2 0x34E5 JUMP JUMPDEST JUMPDEST PUSH1 0x0 PUSH2 0x4026 DUP6 DUP3 DUP7 ADD PUSH2 0x3FEC JUMP JUMPDEST SWAP3 POP POP PUSH1 0x20 PUSH2 0x4037 DUP6 DUP3 DUP7 ADD PUSH2 0x3FEC JUMP JUMPDEST SWAP2 POP POP SWAP3 POP SWAP3 SWAP1 POP JUMP JUMPDEST PUSH32 0x526F757465723A20494E53554646494349454E545F415F414D4F554E54000000 PUSH1 0x0 DUP3 ADD MSTORE POP JUMP JUMPDEST PUSH1 0x0 PUSH2 0x4077 PUSH1 0x1D DUP4 PUSH2 0x3C81 JUMP JUMPDEST SWAP2 POP PUSH2 0x4082 DUP3 PUSH2 0x4041 JUMP JUMPDEST PUSH1 0x20 DUP3 ADD SWAP1 POP SWAP2 SWAP1 POP JUMP JUMPDEST PUSH1 0x0 PUSH1 0x20 DUP3 ADD SWAP1 POP DUP2 DUP2 SUB PUSH1 0x0 DUP4 ADD MSTORE PUSH2 0x40A6 DUP2 PUSH2 0x406A JUMP JUMPDEST SWAP1 POP SWAP2 SWAP1 POP JUMP JUMPDEST PUSH32 0x526F757465723A20494E53554646494349454E545F425F414D4F554E54000000 PUSH1 0x0 DUP3 ADD MSTORE POP JUMP JUMPDEST PUSH1 0x0 PUSH2 0x40E3 PUSH1 0x1D DUP4 PUSH2 0x3C81 JUMP JUMPDEST SWAP2 POP PUSH2 0x40EE DUP3 PUSH2 0x40AD JUMP JUMPDEST PUSH1 0x20 DUP3 ADD SWAP1 POP SWAP2 SWAP1 POP JUMP JUMPDEST PUSH1 0x0 PUSH1 0x20 DUP3 ADD SWAP1 POP DUP2 DUP2 SUB PUSH1 0x0 DUP4 ADD MSTORE PUSH2 0x4112 DUP2 PUSH2 0x40D6 JUMP JUMPDEST SWAP1 POP SWAP2 SWAP1 POP JUMP JUMPDEST PUSH1 0x0 PUSH1 0x20 DUP3 DUP5 SUB SLT ISZERO PUSH2 0x412F JUMPI PUSH2 0x412E PUSH2 0x34E5 JUMP JUMPDEST JUMPDEST PUSH1 0x0 PUSH2 0x413D DUP5 DUP3 DUP6 ADD PUSH2 0x3FEC JUMP JUMPDEST SWAP2 POP POP SWAP3 SWAP2 POP POP JUMP JUMPDEST PUSH1 0x0 DUP2 MLOAD SWAP1 POP SWAP2 SWAP1 POP JUMP JUMPDEST PUSH1 0x0 DUP2 SWAP1 POP SWAP3 SWAP2 POP POP JUMP JUMPDEST PUSH1 0x0 JUMPDEST DUP4 DUP2 LT ISZERO PUSH2 0x417A JUMPI DUP1 DUP3 ADD MLOAD DUP2 DUP5 ADD MSTORE PUSH1 0x20 DUP2 ADD SWAP1 POP PUSH2 0x415F JUMP JUMPDEST DUP4 DUP2 GT ISZERO PUSH2 0x4189 JUMPI PUSH1 0x0 DUP5 DUP5 ADD MSTORE JUMPDEST POP POP POP POP JUMP JUMPDEST PUSH1 0x0 PUSH2 0x419A DUP3 PUSH2 0x4146 JUMP JUMPDEST PUSH2 0x41A4 DUP2 DUP6 PUSH2 0x4151 JUMP JUMPDEST SWAP4 POP PUSH2 0x41B4 DUP2 DUP6 PUSH1 0x20 DUP7 ADD PUSH2 0x415C JUMP JUMPDEST DUP1 DUP5 ADD SWAP2 POP POP SWAP3 SWAP2 POP POP JUMP JUMPDEST PUSH1 0x0 PUSH2 0x41CC DUP3 DUP5 PUSH2 0x418F JUMP JUMPDEST SWAP2 POP DUP2 SWAP1 POP SWAP3 SWAP2 POP POP JUMP JUMPDEST PUSH32 0x5472616E7366657248656C7065723A3A736166655472616E736665723A207472 PUSH1 0x0 DUP3 ADD MSTORE PUSH32 0x616E73666572206661696C656400000000000000000000000000000000000000 PUSH1 0x20 DUP3 ADD MSTORE POP JUMP JUMPDEST PUSH1 0x0 PUSH2 0x4233 PUSH1 0x2D DUP4 PUSH2 0x3C81 JUMP JUMPDEST SWAP2 POP PUSH2 0x423E DUP3 PUSH2 0x41D7 JUMP JUMPDEST PUSH1 0x40 DUP3 ADD SWAP1 POP SWAP2 SWAP1 POP JUMP JUMPDEST PUSH1 0x0 PUSH1 0x20 DUP3 ADD SWAP1 POP DUP2 DUP2 SUB PUSH1 0x0 DUP4 ADD MSTORE PUSH2 0x4262 DUP2 PUSH2 0x4226 JUMP JUMPDEST SWAP1 POP SWAP2 SWAP1 POP JUMP JUMPDEST PUSH32 0x5472616E7366657248656C7065723A3A736166655472616E736665724554483A PUSH1 0x0 DUP3 ADD MSTORE PUSH32 0x20455448207472616E73666572206661696C6564000000000000000000000000 PUSH1 0x20 DUP3 ADD MSTORE POP JUMP JUMPDEST PUSH1 0x0 PUSH2 0x42C5 PUSH1 0x34 DUP4 PUSH2 0x3C81 JUMP JUMPDEST SWAP2 POP PUSH2 0x42D0 DUP3 PUSH2 0x4269 JUMP JUMPDEST PUSH1 0x40 DUP3 ADD SWAP1 POP SWAP2 SWAP1 POP JUMP JUMPDEST PUSH1 0x0 PUSH1 0x20 DUP3 ADD SWAP1 POP DUP2 DUP2 SUB PUSH1 0x0 DUP4 ADD MSTORE PUSH2 0x42F4 DUP2 PUSH2 0x42B8 JUMP JUMPDEST SWAP1 POP SWAP2 SWAP1 POP JUMP JUMPDEST PUSH32 0x4C6962726172793A20494E53554646494349454E545F494E5055545F414D4F55 PUSH1 0x0 DUP3 ADD MSTORE PUSH32 0x4E54000000000000000000000000000000000000000000000000000000000000 PUSH1 0x20 DUP3 ADD MSTORE POP JUMP JUMPDEST PUSH1 0x0 PUSH2 0x4357 PUSH1 0x22 DUP4 PUSH2 0x3C81 JUMP JUMPDEST SWAP2 POP PUSH2 0x4362 DUP3 PUSH2 0x42FB JUMP JUMPDEST PUSH1 0x40 DUP3 ADD SWAP1 POP SWAP2 SWAP1 POP JUMP JUMPDEST PUSH1 0x0 PUSH1 0x20 DUP3 ADD SWAP1 POP DUP2 DUP2 SUB PUSH1 0x0 DUP4 ADD MSTORE PUSH2 0x4386 DUP2 PUSH2 0x434A JUMP JUMPDEST SWAP1 POP SWAP2 SWAP1 POP JUMP JUMPDEST PUSH32 0x4C6962726172793A20494E53554646494349454E545F4C495155494449545900 PUSH1 0x0 DUP3 ADD MSTORE POP JUMP JUMPDEST PUSH1 0x0 PUSH2 0x43C3 PUSH1 0x1F DUP4 PUSH2 0x3C81 JUMP JUMPDEST SWAP2 POP PUSH2 0x43CE DUP3 PUSH2 0x438D JUMP JUMPDEST PUSH1 0x20 DUP3 ADD SWAP1 POP SWAP2 SWAP1 POP JUMP JUMPDEST PUSH1 0x0 PUSH1 0x20 DUP3 ADD SWAP1 POP DUP2 DUP2 SUB PUSH1 0x0 DUP4 ADD MSTORE PUSH2 0x43F2 DUP2 PUSH2 0x43B6 JUMP JUMPDEST SWAP1 POP SWAP2 SWAP1 POP JUMP JUMPDEST PUSH32 0x4E487B7100000000000000000000000000000000000000000000000000000000 PUSH1 0x0 MSTORE PUSH1 0x12 PUSH1 0x4 MSTORE PUSH1 0x24 PUSH1 0x0 REVERT JUMPDEST PUSH1 0x0 PUSH2 0x4433 DUP3 PUSH2 0x354D JUMP JUMPDEST SWAP2 POP PUSH2 0x443E DUP4 PUSH2 0x354D JUMP JUMPDEST SWAP3 POP DUP3 PUSH2 0x444E JUMPI PUSH2 0x444D PUSH2 0x43F9 JUMP JUMPDEST JUMPDEST DUP3 DUP3 DIV SWAP1 POP SWAP3 SWAP2 POP POP JUMP JUMPDEST PUSH32 0x4C6962726172793A20494E56414C49445F504154480000000000000000000000 PUSH1 0x0 DUP3 ADD MSTORE POP JUMP JUMPDEST PUSH1 0x0 PUSH2 0x448F PUSH1 0x15 DUP4 PUSH2 0x3C81 JUMP JUMPDEST SWAP2 POP PUSH2 0x449A DUP3 PUSH2 0x4459 JUMP JUMPDEST PUSH1 0x20 DUP3 ADD SWAP1 POP SWAP2 SWAP1 POP JUMP JUMPDEST PUSH1 0x0 PUSH1 0x20 DUP3 ADD SWAP1 POP DUP2 DUP2 SUB PUSH1 0x0 DUP4 ADD MSTORE PUSH2 0x44BE DUP2 PUSH2 0x4482 JUMP JUMPDEST SWAP1 POP SWAP2 SWAP1 POP JUMP JUMPDEST PUSH1 0x0 PUSH2 0x44D0 DUP3 PUSH2 0x354D JUMP JUMPDEST SWAP2 POP PUSH2 0x44DB DUP4 PUSH2 0x354D JUMP JUMPDEST SWAP3 POP DUP3 PUSH32 0xFFFFFFFFFFFFFFFFFFFFFFFFFFFFFFFFFFFFFFFFFFFFFFFFFFFFFFFFFFFFFFFF SUB DUP3 GT ISZERO PUSH2 0x4510 JUMPI PUSH2 0x450F PUSH2 0x3CFE JUMP JUMPDEST JUMPDEST DUP3 DUP3 ADD SWAP1 POP SWAP3 SWAP2 POP POP JUMP JUMPDEST PUSH1 0x0 PUSH2 0x4526 DUP3 PUSH2 0x354D JUMP JUMPDEST SWAP2 POP PUSH32 0xFFFFFFFFFFFFFFFFFFFFFFFFFFFFFFFFFFFFFFFFFFFFFFFFFFFFFFFFFFFFFFFF DUP3 SUB PUSH2 0x4558 JUMPI PUSH2 0x4557 PUSH2 0x3CFE JUMP JUMPDEST JUMPDEST PUSH1 0x1 DUP3 ADD SWAP1 POP SWAP2 SWAP1 POP JUMP JUMPDEST PUSH1 0x0 PUSH1 0x40 DUP3 ADD SWAP1 POP PUSH2 0x4578 PUSH1 0x0 DUP4 ADD DUP6 PUSH2 0x3AC8 JUMP JUMPDEST PUSH2 0x4585 PUSH1 0x20 DUP4 ADD DUP5 PUSH2 0x3AC8 JUMP JUMPDEST SWAP4 SWAP3 POP POP POP JUMP JUMPDEST PUSH1 0x0 DUP2 MLOAD SWAP1 POP PUSH2 0x459B DUP2 PUSH2 0x3521 JUMP JUMPDEST SWAP3 SWAP2 POP POP JUMP JUMPDEST PUSH1 0x0 PUSH1 0x20 DUP3 DUP5 SUB SLT ISZERO PUSH2 0x45B7 JUMPI PUSH2 0x45B6 PUSH2 0x34E5 JUMP JUMPDEST JUMPDEST PUSH1 0x0 PUSH2 0x45C5 DUP5 DUP3 DUP6 ADD PUSH2 0x458C JUMP JUMPDEST SWAP2 POP POP SWAP3 SWAP2 POP POP JUMP JUMPDEST PUSH32 0x5472616E7366657248656C7065723A3A7472616E7366657246726F6D3A207472 PUSH1 0x0 DUP3 ADD MSTORE PUSH32 0x616E7366657246726F6D206661696C6564000000000000000000000000000000 PUSH1 0x20 DUP3 ADD MSTORE POP JUMP JUMPDEST PUSH1 0x0 PUSH2 0x462A PUSH1 0x31 DUP4 PUSH2 0x3C81 JUMP JUMPDEST SWAP2 POP PUSH2 0x4635 DUP3 PUSH2 0x45CE JUMP JUMPDEST PUSH1 0x40 DUP3 ADD SWAP1 POP SWAP2 SWAP1 POP JUMP JUMPDEST PUSH1 0x0 PUSH1 0x20 DUP3 ADD SWAP1 POP DUP2 DUP2 SUB PUSH1 0x0 DUP4 ADD MSTORE PUSH2 0x4659 DUP2 PUSH2 0x461D JUMP JUMPDEST SWAP1 POP SWAP2 SWAP1 POP JUMP JUMPDEST PUSH1 0x0 DUP3 DUP3 MSTORE PUSH1 0x20 DUP3 ADD SWAP1 POP SWAP3 SWAP2 POP POP JUMP JUMPDEST PUSH1 0x0 PUSH2 0x467C DUP3 PUSH2 0x4146 JUMP JUMPDEST PUSH2 0x4686 DUP2 DUP6 PUSH2 0x4660 JUMP JUMPDEST SWAP4 POP PUSH2 0x4696 DUP2 DUP6 PUSH1 0x20 DUP7 ADD PUSH2 0x415C JUMP JUMPDEST PUSH2 0x469F DUP2 PUSH2 0x3895 JUMP JUMPDEST DUP5 ADD SWAP2 POP POP SWAP3 SWAP2 POP POP JUMP JUMPDEST PUSH1 0x0 PUSH1 0x80 DUP3 ADD SWAP1 POP PUSH2 0x46BF PUSH1 0x0 DUP4 ADD DUP8 PUSH2 0x3610 JUMP JUMPDEST PUSH2 0x46CC PUSH1 0x20 DUP4 ADD DUP7 PUSH2 0x3610 JUMP JUMPDEST PUSH2 0x46D9 PUSH1 0x40 DUP4 ADD DUP6 PUSH2 0x3AC8 JUMP JUMPDEST DUP2 DUP2 SUB PUSH1 0x60 DUP4 ADD MSTORE PUSH2 0x46EB DUP2 DUP5 PUSH2 0x4671 JUMP JUMPDEST SWAP1 POP SWAP6 SWAP5 POP POP POP POP POP JUMP JUMPDEST PUSH1 0x0 PUSH2 0x4701 DUP3 PUSH2 0x354D JUMP JUMPDEST SWAP2 POP PUSH1 0x0 DUP3 SUB PUSH2 0x4714 JUMPI PUSH2 0x4713 PUSH2 0x3CFE JUMP JUMPDEST JUMPDEST PUSH1 0x1 DUP3 SUB SWAP1 POP SWAP2 SWAP1 POP JUMP JUMPDEST PUSH32 0x4C6962726172793A20494E53554646494349454E545F4F55545055545F414D4F PUSH1 0x0 DUP3 ADD MSTORE PUSH32 0x554E540000000000000000000000000000000000000000000000000000000000 PUSH1 0x20 DUP3 ADD MSTORE POP JUMP JUMPDEST PUSH1 0x0 PUSH2 0x477B PUSH1 0x23 DUP4 PUSH2 0x3C81 JUMP JUMPDEST SWAP2 POP PUSH2 0x4786 DUP3 PUSH2 0x471F JUMP JUMPDEST PUSH1 0x40 DUP3 ADD SWAP1 POP SWAP2 SWAP1 POP JUMP JUMPDEST PUSH1 0x0 PUSH1 0x20 DUP3 ADD SWAP1 POP DUP2 DUP2 SUB PUSH1 0x0 DUP4 ADD MSTORE PUSH2 0x47AA DUP2 PUSH2 0x476E JUMP JUMPDEST SWAP1 POP SWAP2 SWAP1 POP JUMP JUMPDEST PUSH32 0x4C6962726172793A20494E53554646494349454E545F414D4F554E5400000000 PUSH1 0x0 DUP3 ADD MSTORE POP JUMP JUMPDEST PUSH1 0x0 PUSH2 0x47E7 PUSH1 0x1C DUP4 PUSH2 0x3C81 JUMP JUMPDEST SWAP2 POP PUSH2 0x47F2 DUP3 PUSH2 0x47B1 JUMP JUMPDEST PUSH1 0x20 DUP3 ADD SWAP1 POP SWAP2 SWAP1 POP JUMP JUMPDEST PUSH1 0x0 PUSH1 0x20 DUP3 ADD SWAP1 POP DUP2 DUP2 SUB PUSH1 0x0 DUP4 ADD MSTORE PUSH2 0x4816 DUP2 PUSH2 0x47DA JUMP JUMPDEST SWAP1 POP SWAP2 SWAP1 POP JUMP JUMPDEST PUSH32 0x4944454E544943414C5F41444452455353455300000000000000000000000000 PUSH1 0x0 DUP3 ADD MSTORE POP JUMP JUMPDEST PUSH1 0x0 PUSH2 0x4853 PUSH1 0x13 DUP4 PUSH2 0x3C81 JUMP JUMPDEST SWAP2 POP PUSH2 0x485E DUP3 PUSH2 0x481D JUMP JUMPDEST PUSH1 0x20 DUP3 ADD SWAP1 POP SWAP2 SWAP1 POP JUMP JUMPDEST PUSH1 0x0 PUSH1 0x20 DUP3 ADD SWAP1 POP DUP2 DUP2 SUB PUSH1 0x0 DUP4 ADD MSTORE PUSH2 0x4882 DUP2 PUSH2 0x4846 JUMP JUMPDEST SWAP1 POP SWAP2 SWAP1 POP JUMP JUMPDEST PUSH32 0x5A45524F5F414444524553530000000000000000000000000000000000000000 PUSH1 0x0 DUP3 ADD MSTORE POP JUMP JUMPDEST PUSH1 0x0 PUSH2 0x48BF PUSH1 0xC DUP4 PUSH2 0x3C81 JUMP JUMPDEST SWAP2 POP PUSH2 0x48CA DUP3 PUSH2 0x4889 JUMP JUMPDEST PUSH1 0x20 DUP3 ADD SWAP1 POP SWAP2 SWAP1 POP JUMP JUMPDEST PUSH1 0x0 PUSH1 0x20 DUP3 ADD SWAP1 POP DUP2 DUP2 SUB PUSH1 0x0 DUP4 ADD MSTORE PUSH2 0x48EE DUP2 PUSH2 0x48B2 JUMP JUMPDEST SWAP1 POP SWAP2 SWAP1 POP JUMP JUMPDEST PUSH32 0x556E69737761705632526F757465723A20494E53554646494349454E545F425F PUSH1 0x0 DUP3 ADD MSTORE PUSH32 0x414D4F554E540000000000000000000000000000000000000000000000000000 PUSH1 0x20 DUP3 ADD MSTORE POP JUMP JUMPDEST PUSH1 0x0 PUSH2 0x4951 PUSH1 0x26 DUP4 PUSH2 0x3C81 JUMP JUMPDEST SWAP2 POP PUSH2 0x495C DUP3 PUSH2 0x48F5 JUMP JUMPDEST PUSH1 0x40 DUP3 ADD SWAP1 POP SWAP2 SWAP1 POP JUMP JUMPDEST PUSH1 0x0 PUSH1 0x20 DUP3 ADD SWAP1 POP DUP2 DUP2 SUB PUSH1 0x0 DUP4 ADD MSTORE PUSH2 0x4980 DUP2 PUSH2 0x4944 JUMP JUMPDEST SWAP1 POP SWAP2 SWAP1 POP JUMP JUMPDEST PUSH1 0x0 PUSH2 0x4992 DUP3 PUSH2 0x354D JUMP JUMPDEST SWAP2 POP PUSH2 0x499D DUP4 PUSH2 0x354D JUMP JUMPDEST SWAP3 POP DUP2 PUSH32 0xFFFFFFFFFFFFFFFFFFFFFFFFFFFFFFFFFFFFFFFFFFFFFFFFFFFFFFFFFFFFFFFF DIV DUP4 GT DUP3 ISZERO ISZERO AND ISZERO PUSH2 0x49D6 JUMPI PUSH2 0x49D5 PUSH2 0x3CFE JUMP JUMPDEST JUMPDEST DUP3 DUP3 MUL SWAP1 POP SWAP3 SWAP2 POP POP JUMP JUMPDEST PUSH32 0x64732D6D6174682D6D756C2D6F766572666C6F77000000000000000000000000 PUSH1 0x0 DUP3 ADD MSTORE POP JUMP JUMPDEST PUSH1 0x0 PUSH2 0x4A17 PUSH1 0x14 DUP4 PUSH2 0x3C81 JUMP JUMPDEST SWAP2 POP PUSH2 0x4A22 DUP3 PUSH2 0x49E1 JUMP JUMPDEST PUSH1 0x20 DUP3 ADD SWAP1 POP SWAP2 SWAP1 POP JUMP JUMPDEST PUSH1 0x0 PUSH1 0x20 DUP3 ADD SWAP1 POP DUP2 DUP2 SUB PUSH1 0x0 DUP4 ADD MSTORE PUSH2 0x4A46 DUP2 PUSH2 0x4A0A JUMP JUMPDEST SWAP1 POP SWAP2 SWAP1 POP JUMP JUMPDEST PUSH32 0x64732D6D6174682D6164642D6F766572666C6F77000000000000000000000000 PUSH1 0x0 DUP3 ADD MSTORE POP JUMP JUMPDEST PUSH1 0x0 PUSH2 0x4A83 PUSH1 0x14 DUP4 PUSH2 0x3C81 JUMP JUMPDEST SWAP2 POP PUSH2 0x4A8E DUP3 PUSH2 0x4A4D JUMP JUMPDEST PUSH1 0x20 DUP3 ADD SWAP1 POP SWAP2 SWAP1 POP JUMP JUMPDEST PUSH1 0x0 PUSH1 0x20 DUP3 ADD SWAP1 POP DUP2 DUP2 SUB PUSH1 0x0 DUP4 ADD MSTORE PUSH2 0x4AB2 DUP2 PUSH2 0x4A76 JUMP JUMPDEST SWAP1 POP SWAP2 SWAP1 POP JUMP JUMPDEST PUSH1 0x0 PUSH14 0xFFFFFFFFFFFFFFFFFFFFFFFFFFFF DUP3 AND SWAP1 POP SWAP2 SWAP1 POP JUMP JUMPDEST PUSH2 0x4ADC DUP2 PUSH2 0x4AB9 JUMP JUMPDEST DUP2 EQ PUSH2 0x4AE7 JUMPI PUSH1 0x0 DUP1 REVERT JUMPDEST POP JUMP JUMPDEST PUSH1 0x0 DUP2 MLOAD SWAP1 POP PUSH2 0x4AF9 DUP2 PUSH2 0x4AD3 JUMP JUMPDEST SWAP3 SWAP2 POP POP JUMP JUMPDEST PUSH1 0x0 PUSH4 0xFFFFFFFF DUP3 AND SWAP1 POP SWAP2 SWAP1 POP JUMP JUMPDEST PUSH2 0x4B18 DUP2 PUSH2 0x4AFF JUMP JUMPDEST DUP2 EQ PUSH2 0x4B23 JUMPI PUSH1 0x0 DUP1 REVERT JUMPDEST POP JUMP JUMPDEST PUSH1 0x0 DUP2 MLOAD SWAP1 POP PUSH2 0x4B35 DUP2 PUSH2 0x4B0F JUMP JUMPDEST SWAP3 SWAP2 POP POP JUMP JUMPDEST PUSH1 0x0 DUP1 PUSH1 0x0 PUSH1 0x60 DUP5 DUP7 SUB SLT ISZERO PUSH2 0x4B54 JUMPI PUSH2 0x4B53 PUSH2 0x34E5 JUMP JUMPDEST JUMPDEST PUSH1 0x0 PUSH2 0x4B62 DUP7 DUP3 DUP8 ADD PUSH2 0x4AEA JUMP JUMPDEST SWAP4 POP POP PUSH1 0x20 PUSH2 0x4B73 DUP7 DUP3 DUP8 ADD PUSH2 0x4AEA JUMP JUMPDEST SWAP3 POP POP PUSH1 0x40 PUSH2 0x4B84 DUP7 DUP3 DUP8 ADD PUSH2 0x4B26 JUMP JUMPDEST SWAP2 POP POP SWAP3 POP SWAP3 POP SWAP3 JUMP JUMPDEST PUSH32 0x64732D6D6174682D7375622D756E646572666C6F770000000000000000000000 PUSH1 0x0 DUP3 ADD MSTORE POP JUMP JUMPDEST PUSH1 0x0 PUSH2 0x4BC4 PUSH1 0x15 DUP4 PUSH2 0x3C81 JUMP JUMPDEST SWAP2 POP PUSH2 0x4BCF DUP3 PUSH2 0x4B8E JUMP JUMPDEST PUSH1 0x20 DUP3 ADD SWAP1 POP SWAP2 SWAP1 POP JUMP JUMPDEST PUSH1 0x0 PUSH1 0x20 DUP3 ADD SWAP1 POP DUP2 DUP2 SUB PUSH1 0x0 DUP4 ADD MSTORE PUSH2 0x4BF3 DUP2 PUSH2 0x4BB7 JUMP JUMPDEST SWAP1 POP SWAP2 SWAP1 POP JUMP INVALID LOG2 PUSH5 0x6970667358 0x22 SLT KECCAK256 PUSH20 0x1E6E134E81FAA0D7FCDDB83EF1C10F7A3C460A85 EXP 0xAC 0x5D DUP9 0xCC 0xC9 SWAP6 DUP10 NUMBER 0xBE 0xE0 PUSH5 0x736F6C6343 STOP ADDMOD 0xD STOP CALLER "
		},
		"gasEstimates": {
			"creation": {
				"codeDepositCost": "3900800",
				"executionCost": "infinite",
				"totalCost": "infinite"
			},
			"external": {
				"WETH()": "infinite",
				"addLiquidity(address,address,uint256,uint256,uint256,uint256,address,uint256)": "infinite",
				"addLiquidityETH(address,uint256,uint256,uint256,address,uint256)": "infinite",
				"factory()": "infinite",
				"getAmountIn(uint256,uint256,uint256)": "infinite",
				"getAmountOut(uint256,uint256,uint256)": "infinite",
				"getAmountsIn(uint256,address[])": "infinite",
				"getAmountsOut(uint256,address[])": "infinite",
				"getLiquidityAmount()": "397",
				"quote(uint256,uint256,uint256)": "infinite",
				"removeLiquidity(address,address,uint256,uint256,uint256,address,uint256)": "infinite",
				"removeLiquidityETH(address,uint256,uint256,uint256,address,uint256)": "infinite",
				"swapETHForExactTokens(uint256,address[],address,uint256)": "infinite",
				"swapExactETHForTokens(uint256,address[],address,uint256)": "infinite",
				"swapExactTokensForETH(uint256,uint256,address[],address,uint256)": "infinite",
				"swapExactTokensForTokens(uint256,uint256,address[],address,uint256)": "infinite",
				"swapTokensForExactETH(uint256,uint256,address[],address,uint256)": "infinite",
				"swapTokensForExactTokens(uint256,uint256,address[],address,uint256)": "infinite"
			},
			"internal": {
				"_addLiquidity(address,address,uint256,uint256,uint256,uint256)": "infinite",
				"_swap(uint256[] memory,address[] memory,address)": "infinite"
			}
		},
		"methodIdentifiers": {
			"WETH()": "ad5c4648",
			"addLiquidity(address,address,uint256,uint256,uint256,uint256,address,uint256)": "e8e33700",
			"addLiquidityETH(address,uint256,uint256,uint256,address,uint256)": "f305d719",
			"factory()": "c45a0155",
			"getAmountIn(uint256,uint256,uint256)": "85f8c259",
			"getAmountOut(uint256,uint256,uint256)": "054d50d4",
			"getAmountsIn(uint256,address[])": "1f00ca74",
			"getAmountsOut(uint256,address[])": "d06ca61f",
			"getLiquidityAmount()": "15d3df97",
			"quote(uint256,uint256,uint256)": "ad615dec",
			"removeLiquidity(address,address,uint256,uint256,uint256,address,uint256)": "baa2abde",
			"removeLiquidityETH(address,uint256,uint256,uint256,address,uint256)": "02751cec",
			"swapETHForExactTokens(uint256,address[],address,uint256)": "fb3bdb41",
			"swapExactETHForTokens(uint256,address[],address,uint256)": "7ff36ab5",
			"swapExactTokensForETH(uint256,uint256,address[],address,uint256)": "18cbafe5",
			"swapExactTokensForTokens(uint256,uint256,address[],address,uint256)": "38ed1739",
			"swapTokensForExactETH(uint256,uint256,address[],address,uint256)": "4a25d94a",
			"swapTokensForExactTokens(uint256,uint256,address[],address,uint256)": "8803dbee"
		}
	},
	"abi": [
		{
			"inputs": [
				{
					"internalType": "address",
					"name": "_factory",
					"type": "address"
				},
				{
					"internalType": "address",
					"name": "_WETH",
					"type": "address"
				}
			],
			"stateMutability": "nonpayable",
			"type": "constructor"
		},
		{
			"inputs": [],
			"name": "WETH",
			"outputs": [
				{
					"internalType": "address",
					"name": "",
					"type": "address"
				}
			],
			"stateMutability": "view",
			"type": "function"
		},
		{
			"inputs": [
				{
					"internalType": "address",
					"name": "tokenA",
					"type": "address"
				},
				{
					"internalType": "address",
					"name": "tokenB",
					"type": "address"
				},
				{
					"internalType": "uint256",
					"name": "amountADesired",
					"type": "uint256"
				},
				{
					"internalType": "uint256",
					"name": "amountBDesired",
					"type": "uint256"
				},
				{
					"internalType": "uint256",
					"name": "amountAMin",
					"type": "uint256"
				},
				{
					"internalType": "uint256",
					"name": "amountBMin",
					"type": "uint256"
				},
				{
					"internalType": "address",
					"name": "to",
					"type": "address"
				},
				{
					"internalType": "uint256",
					"name": "deadline",
					"type": "uint256"
				}
			],
			"name": "addLiquidity",
			"outputs": [
				{
					"internalType": "uint256",
					"name": "amountA",
					"type": "uint256"
				},
				{
					"internalType": "uint256",
					"name": "amountB",
					"type": "uint256"
				},
				{
					"internalType": "uint256",
					"name": "liquidity",
					"type": "uint256"
				}
			],
			"stateMutability": "nonpayable",
			"type": "function"
		},
		{
			"inputs": [
				{
					"internalType": "address",
					"name": "token",
					"type": "address"
				},
				{
					"internalType": "uint256",
					"name": "amountTokenDesired",
					"type": "uint256"
				},
				{
					"internalType": "uint256",
					"name": "amountTokenMin",
					"type": "uint256"
				},
				{
					"internalType": "uint256",
					"name": "amountETHMin",
					"type": "uint256"
				},
				{
					"internalType": "address",
					"name": "to",
					"type": "address"
				},
				{
					"internalType": "uint256",
					"name": "deadline",
					"type": "uint256"
				}
			],
			"name": "addLiquidityETH",
			"outputs": [
				{
					"internalType": "uint256",
					"name": "amountToken",
					"type": "uint256"
				},
				{
					"internalType": "uint256",
					"name": "amountETH",
					"type": "uint256"
				},
				{
					"internalType": "uint256",
					"name": "liquidity",
					"type": "uint256"
				}
			],
			"stateMutability": "payable",
			"type": "function"
		},
		{
			"inputs": [],
			"name": "factory",
			"outputs": [
				{
					"internalType": "address",
					"name": "",
					"type": "address"
				}
			],
			"stateMutability": "view",
			"type": "function"
		},
		{
			"inputs": [
				{
					"internalType": "uint256",
					"name": "amountOut",
					"type": "uint256"
				},
				{
					"internalType": "uint256",
					"name": "reserveIn",
					"type": "uint256"
				},
				{
					"internalType": "uint256",
					"name": "reserveOut",
					"type": "uint256"
				}
			],
			"name": "getAmountIn",
			"outputs": [
				{
					"internalType": "uint256",
					"name": "amountIn",
					"type": "uint256"
				}
			],
			"stateMutability": "pure",
			"type": "function"
		},
		{
			"inputs": [
				{
					"internalType": "uint256",
					"name": "amountIn",
					"type": "uint256"
				},
				{
					"internalType": "uint256",
					"name": "reserveIn",
					"type": "uint256"
				},
				{
					"internalType": "uint256",
					"name": "reserveOut",
					"type": "uint256"
				}
			],
			"name": "getAmountOut",
			"outputs": [
				{
					"internalType": "uint256",
					"name": "amountOut",
					"type": "uint256"
				}
			],
			"stateMutability": "pure",
			"type": "function"
		},
		{
			"inputs": [
				{
					"internalType": "uint256",
					"name": "amountOut",
					"type": "uint256"
				},
				{
					"internalType": "address[]",
					"name": "path",
					"type": "address[]"
				}
			],
			"name": "getAmountsIn",
			"outputs": [
				{
					"internalType": "uint256[]",
					"name": "amounts",
					"type": "uint256[]"
				}
			],
			"stateMutability": "view",
			"type": "function"
		},
		{
			"inputs": [
				{
					"internalType": "uint256",
					"name": "amountIn",
					"type": "uint256"
				},
				{
					"internalType": "address[]",
					"name": "path",
					"type": "address[]"
				}
			],
			"name": "getAmountsOut",
			"outputs": [
				{
					"internalType": "uint256[]",
					"name": "amounts",
					"type": "uint256[]"
				}
			],
			"stateMutability": "view",
			"type": "function"
		},
		{
			"inputs": [],
			"name": "getLiquidityAmount",
			"outputs": [
				{
					"internalType": "uint256",
					"name": "liqAmount",
					"type": "uint256"
				}
			],
			"stateMutability": "view",
			"type": "function"
		},
		{
			"inputs": [
				{
					"internalType": "uint256",
					"name": "amountA",
					"type": "uint256"
				},
				{
					"internalType": "uint256",
					"name": "reserveA",
					"type": "uint256"
				},
				{
					"internalType": "uint256",
					"name": "reserveB",
					"type": "uint256"
				}
			],
			"name": "quote",
			"outputs": [
				{
					"internalType": "uint256",
					"name": "amountB",
					"type": "uint256"
				}
			],
			"stateMutability": "pure",
			"type": "function"
		},
		{
			"inputs": [
				{
					"internalType": "address",
					"name": "tokenA",
					"type": "address"
				},
				{
					"internalType": "address",
					"name": "tokenB",
					"type": "address"
				},
				{
					"internalType": "uint256",
					"name": "liquidity",
					"type": "uint256"
				},
				{
					"internalType": "uint256",
					"name": "amountAMin",
					"type": "uint256"
				},
				{
					"internalType": "uint256",
					"name": "amountBMin",
					"type": "uint256"
				},
				{
					"internalType": "address",
					"name": "to",
					"type": "address"
				},
				{
					"internalType": "uint256",
					"name": "deadline",
					"type": "uint256"
				}
			],
			"name": "removeLiquidity",
			"outputs": [
				{
					"internalType": "uint256",
					"name": "amountA",
					"type": "uint256"
				},
				{
					"internalType": "uint256",
					"name": "amountB",
					"type": "uint256"
				}
			],
			"stateMutability": "nonpayable",
			"type": "function"
		},
		{
			"inputs": [
				{
					"internalType": "address",
					"name": "token",
					"type": "address"
				},
				{
					"internalType": "uint256",
					"name": "liquidity",
					"type": "uint256"
				},
				{
					"internalType": "uint256",
					"name": "amountTokenMin",
					"type": "uint256"
				},
				{
					"internalType": "uint256",
					"name": "amountETHMin",
					"type": "uint256"
				},
				{
					"internalType": "address",
					"name": "to",
					"type": "address"
				},
				{
					"internalType": "uint256",
					"name": "deadline",
					"type": "uint256"
				}
			],
			"name": "removeLiquidityETH",
			"outputs": [
				{
					"internalType": "uint256",
					"name": "amountToken",
					"type": "uint256"
				},
				{
					"internalType": "uint256",
					"name": "amountETH",
					"type": "uint256"
				}
			],
			"stateMutability": "nonpayable",
			"type": "function"
		},
		{
			"inputs": [
				{
					"internalType": "uint256",
					"name": "amountOut",
					"type": "uint256"
				},
				{
					"internalType": "address[]",
					"name": "path",
					"type": "address[]"
				},
				{
					"internalType": "address",
					"name": "to",
					"type": "address"
				},
				{
					"internalType": "uint256",
					"name": "deadline",
					"type": "uint256"
				}
			],
			"name": "swapETHForExactTokens",
			"outputs": [
				{
					"internalType": "uint256[]",
					"name": "amounts",
					"type": "uint256[]"
				}
			],
			"stateMutability": "payable",
			"type": "function"
		},
		{
			"inputs": [
				{
					"internalType": "uint256",
					"name": "amountOutMin",
					"type": "uint256"
				},
				{
					"internalType": "address[]",
					"name": "path",
					"type": "address[]"
				},
				{
					"internalType": "address",
					"name": "to",
					"type": "address"
				},
				{
					"internalType": "uint256",
					"name": "deadline",
					"type": "uint256"
				}
			],
			"name": "swapExactETHForTokens",
			"outputs": [
				{
					"internalType": "uint256[]",
					"name": "amounts",
					"type": "uint256[]"
				}
			],
			"stateMutability": "payable",
			"type": "function"
		},
		{
			"inputs": [
				{
					"internalType": "uint256",
					"name": "amountIn",
					"type": "uint256"
				},
				{
					"internalType": "uint256",
					"name": "amountOutMin",
					"type": "uint256"
				},
				{
					"internalType": "address[]",
					"name": "path",
					"type": "address[]"
				},
				{
					"internalType": "address",
					"name": "to",
					"type": "address"
				},
				{
					"internalType": "uint256",
					"name": "deadline",
					"type": "uint256"
				}
			],
			"name": "swapExactTokensForETH",
			"outputs": [
				{
					"internalType": "uint256[]",
					"name": "amounts",
					"type": "uint256[]"
				}
			],
			"stateMutability": "nonpayable",
			"type": "function"
		},
		{
			"inputs": [
				{
					"internalType": "uint256",
					"name": "amountIn",
					"type": "uint256"
				},
				{
					"internalType": "uint256",
					"name": "amountOutMin",
					"type": "uint256"
				},
				{
					"internalType": "address[]",
					"name": "path",
					"type": "address[]"
				},
				{
					"internalType": "address",
					"name": "to",
					"type": "address"
				},
				{
					"internalType": "uint256",
					"name": "deadline",
					"type": "uint256"
				}
			],
			"name": "swapExactTokensForTokens",
			"outputs": [
				{
					"internalType": "uint256[]",
					"name": "amounts",
					"type": "uint256[]"
				}
			],
			"stateMutability": "nonpayable",
			"type": "function"
		},
		{
			"inputs": [
				{
					"internalType": "uint256",
					"name": "amountOut",
					"type": "uint256"
				},
				{
					"internalType": "uint256",
					"name": "amountInMax",
					"type": "uint256"
				},
				{
					"internalType": "address[]",
					"name": "path",
					"type": "address[]"
				},
				{
					"internalType": "address",
					"name": "to",
					"type": "address"
				},
				{
					"internalType": "uint256",
					"name": "deadline",
					"type": "uint256"
				}
			],
			"name": "swapTokensForExactETH",
			"outputs": [
				{
					"internalType": "uint256[]",
					"name": "amounts",
					"type": "uint256[]"
				}
			],
			"stateMutability": "nonpayable",
			"type": "function"
		},
		{
			"inputs": [
				{
					"internalType": "uint256",
					"name": "amountOut",
					"type": "uint256"
				},
				{
					"internalType": "uint256",
					"name": "amountInMax",
					"type": "uint256"
				},
				{
					"internalType": "address[]",
					"name": "path",
					"type": "address[]"
				},
				{
					"internalType": "address",
					"name": "to",
					"type": "address"
				},
				{
					"internalType": "uint256",
					"name": "deadline",
					"type": "uint256"
				}
			],
			"name": "swapTokensForExactTokens",
			"outputs": [
				{
					"internalType": "uint256[]",
					"name": "amounts",
					"type": "uint256[]"
				}
			],
			"stateMutability": "nonpayable",
			"type": "function"
		},
		{
			"stateMutability": "payable",
			"type": "receive"
		}
	]
}